:020000040800F2
:10300000B8F1002045310008493100084B31000873
:103010004D3100084F310008513100080000000018
:103020000000000000000000000000005331000814
:10303000553100080000000057310008694A0108B6
:103040005B3100085B3100085B3100085B31000830
:103050005B3100085B3100085B3100085B31000820
:103060005B3100085B3100085B3100085B31000810
:103070005B3100085B3100085B3100085B31000800
:103080005B3100085B3100085B3100085B310008F0
:103090005B3100085B3100085B3100085B310008E0
:1030A0005B3100085B3100085B3100085B310008D0
:1030B000654E01085B3100085B3100085B31000898
:1030C0005B3100085B3100085B3100085B310008B0
:1030D0005B3100086154010889540108B1540108AA
:1030E0005B3100085B3100085B3100085B31000890
:1030F0005B3100085B3100085B3100085B31000880
:103100005B3100085B310008894E01085B31000823
:10311000395401085B3100085B3100085B3100085D
:103120005B3100085B3100085B3100085B3100084F
:10313000DFF80CD000F080FE004800473D6F020829
:10314000B8F1002005480047FEE7FEE7FEE7FEE78E
:10315000FEE7FEE7FEE7FEE7FEE7FEE731310008A7
:1031600038B5D0E90221491E01EB410102EBC10152
:103170004268C1EB011102EB81010268C1EB011150
:1031800002EB8102D0E9043101EB410103EB810143
:103190003023A1F5527191FBF3F4174D6C4302EB10
:1031A000C41291FBF3F403FB141100921A2902DB01
:1031B000124B1A4400920C2291FBF2F3104C634321
:1031C000009C04EBC313009391FBF2F302FB131179
:1031D0000C4A08E0491E40F2A324535C6343009C60
:1031E00004EBC31300930029F4DC0146684600F0A9
:1031F000ABFC009838BD00003F0C0F00805101006F
:1032000067C20300B81D060810B5431A934209D2DD
:103210008318881803E010F8011D03F8011D521EE1
:10322000F9D210BD40EA01039B0703D009E008C9A9
:10323000121F08C0042AFAD203E011F8013B00F87B
:10324000013B521EF9D210BDD2B201E000F8012BB1
:10325000491EFBD270470022F6E710B513460A4616
:1032600004461946FFF7F0FF204610BD421E12F833
:10327000013F002BFBD111F8013B02F8013B002B71
:10328000F9D1704730B505462A460B4612F8010BB6
:1032900013F8014B08B1A042F8D01CB1002802D0AD
:1032A0006D1CF1E7284630BD10B5044604E00B78EC
:1032B00000F8013B03B1491C521EF8D2204610BD54
:1032C000421C10F8011B0029FBD1801A704710B571
:1032D000002200E0521C835C8C5CA34201D1002BD5
:1032E000F8D1D8B2E1B2401A10BD30B50446002082
:1032F000034600E05B1C934203D2E05CCD5C401BC4
:10330000F8D030BD10B5044600E0401C0378002B17
:10331000FBD100E0401C521E04D311F8013B0370A6
:10332000002BF7D100210170204610BD034611F893
:10333000012B00F8012B002AF9D11846704770B50F
:10334000064623F0D9F8046805460A2200213046D3
:1033500000F08EFC2C6070BDF0B480EA0102D40F46
:103360004200B2EB410F02D20246084611464A0023
:1033700042D0C30DDDB2C1F3C752AD1A202D35DAEC
:10338000C1F3160141F4000204B15242C5F1200616
:1033900002FA06F12A411044B3EBD05F23D0C4B146
:1033A000012DA0EBC35009DCF0BC4FF0004202EA53
:1033B000C352DBB200F5000000F09BBC400000F1FE
:1033C000807000EBC350A0F1807040EAD1704900DA
:1033D00009E0490841EAC071A0EBC35000F50000C4
:1033E000400800EBC350F0BC00F07ABC61420122FF
:1033F00002EB4101001BF6E7F0BC704781F0004191
:10340000AAE780F00040A7E780EA010210B502F0C9
:103410000043400022D04A001FD0010E01EB126190
:10342000C0F35600C2F3560240F4000042F400021A
:10343000A0FB022000047F39140400D0401C50EA95
:10344000124001D44000491EC2B20C0604EBD01059
:10345000401C4008802A02D003E0002010BD20F06C
:103460000100002900DA0020184310BD30B480EAC2
:10347000010202F0004530F0004221F0004013D07C
:1034800090B1C30DD40DC2F31601C0F31600E41AB7
:1034900041F4000140F400027D34914201D3641CE8
:1034A00000E04900002C02DA30BC002070474FF4E5
:1034B00000000023914201D3891A034340084FEAD8
:1034C0004101F7D151B1914202D14FF0004105E0E5
:1034D00002D24FF0010101E06FF0010103EBC45093
:1034E000284430BC00F0FCBB420005D0C0F3C752FA
:1034F0005242914201DC0020704700EBC1507047FE
:103500002DE9FE4F804681EA0300C00F0C46009073
:1035100021F0004123F00045B8EB0200A94105D29B
:103520004046214690461C460B46024623F000408A
:10353000104347D0270DC7F30A00C3F30A51029086
:10354000401A019040286BDAC3F3130040F4801B4B
:103550000098924620B10023D2EB030A63EB0B0BD9
:1035600001985946C0F14002504600F0B6FA0646AE
:103570000D4650465946019A00F0CEFA10EB08006D
:103580006141002487EA115284EAE7731A4340D06C
:10359000009A62B3019A012A4FEA075215DC001B18
:1035A00061EB02014FF0004202EA0752CDE900420E
:1035B000001C41F5801132462B4600F0D7FB03B0CA
:1035C000BDE8F08F40462146F9E7001B61EB0201A0
:1035D000001C41F5801300185B412018A2F500176C
:1035E00047EB030140EAD570B6196D4111E06D0853
:1035F0004FEA360645EAC0754FEA0752001B61EBF9
:103600000201001C41F5801149084FEA3000001901
:10361000514132462B4603B0BDE8F04F00F097BB56
:103620000098012240000023D0EB020263EBE0731C
:10363000009821464FEAE074B8EB000061EB04010A
:10364000E9E783F000435BE781F0004158E72DE9AB
:10365000FE4F81EA030404F0004421F0004100948D
:103660004FF0000B23F0004350EA01045ED052EA11
:1036700003045BD0C3F30A54C1F30A552C44A4F2EB
:10368000F3340194A0FB0254C1F3130141F48011FF
:10369000C3F3130343F4801301FB024400FB034E06
:1036A000840A970A44EA815447EA8357A4FB0768CF
:1036B00002958D0A05FB07854FEA932C04FB0C54F9
:1036C0002705029D4FEA065847EA1637B5EB08056D
:1036D0006EEB070C870E920E47EA811742EA8312BF
:1036E000A7FB0201B6EB0B0164EB00042B0D43EAD0
:1036F0000C335E1844EB1C50DA465146E7FB0201DE
:10370000C5F313044FEA0B3343EA14534FEA043270
:10371000019C43EA0603A4F10C040294009CCDE949
:1037200000B400F023FB03B0BDE8F08F0020014699
:10373000F9E7C10F80EAE0700844CA079623002128
:1037400000F0D7BA96230022114600F0D2BA0EB587
:10375000C10F80EAE0700844CA07002140F23343F9
:103760008DE80E000A460B4600F000FB03B000BDDA
:103770000EB540F2334102910021CDE900110A4615
:103780000B4600F0F3FA03B000BD00F0004220F059
:103790000040C10DC0F3160040F400007F2901DA9B
:1037A00000207047962903DCC1F19601C84001E072
:1037B00096398840002AF4D04042704720F00040FB
:1037C000C10DC0F3160040F400007F2901DA00208B
:1037D0007047962903DCC1F19601C84070479639BD
:1037E00088407047002801DBC0F10040002901DB60
:1037F000C1F100418142704700487047541E0608DD
:103800000000000000300008000000004561676C07
:10381000653800000000000000000000000000000B
:103820003031303031004141414100002DE9F04D4F
:1038300081EA030404F0004B21F0004514464FF0E8
:10384000000A23F0004150EA050220D054EA0102A8
:103850001DD0C5F30A570246C5F31303C1F3130085
:10386000C1F30A5640F4801543F48013A7EB060811
:10387000101BD64608F2FD3873EB050002D308F1A1
:10388000010801E092185B41B8F1000F03DA002053
:103890000146BDE8F08D00204FF4801106468446B5
:1038A0000EE0171B73EB050705D3121B63EB050333
:1038B00006434CEA010C49084FEA300092185B417C
:1038C00050EA0107EDD152EA030012D082EA040067
:1038D00083EA0501084305D0101BAB4106D2012243
:1038E000002306E000224FF0004302E06FF00102E7
:1038F00053101AEB06004CEB085110EB0A0041EB99
:103900000B01BDE8F04D00F022BA70B5C1F30A52C8
:1039100001F000450024C1F3130140F2FF3341F4EC
:1039200080119A4201DA002070BD40F233439A427E
:10393000A2F2334203DC524200F0DEF800E0904095
:103940002C43F1D0404270BDC1F30A5210B5C1F30F
:10395000130140F2FF3341F480119A4201DA002052
:1039600010BD40F233439A42A2F2334203DC52428A
:1039700000F0C2F810BD904010BD00F0004230F0E1
:1039800000400AD0C10D01F56071C0F3160042EA93
:103990000151C2084007114370470020014670479B
:1039A00030B5041E71F1000404DB4FF000444042C6
:1039B00064EB0101141E73F1000405DB1C464FF09B
:1039C0000043524263EB04038B4208BF824230BD86
:1039D00030B5041E71F1000404DB4FF00044404296
:1039E00064EB0101141E73F1000405DB1C464FF06B
:1039F0000043524263EB0403994208BF904230BD3A
:103A000001F0004330B421F0004150EA010206D039
:103A10000A0DA2F56072C1F31301002A02DC30BC6A
:103A200000207047440F44EAC104C100E01830BCD4
:103A300000EBC25000F054B9002801DBC0F1004097
:103A4000002901DBC1F100418842704730B50B46C7
:103A5000014600202022012409E021FA02F59D42BE
:103A600005D303FA02F5491B04FA02F52844151E92
:103A7000A2F10102F1DC30BD2DE9F05F0546002026
:103A800092469B4688460646814640241BE02846CF
:103A900041464746224600F02FF853465A46C01A80
:103AA000914110D311461846224600F016F82D1AFF
:103AB00067EB01084F4622460120002100F00DF877
:103AC00017EB00094E41201EA4F10104DFDC48463B
:103AD00031462A464346BDE8F09F202A04DB203ABF
:103AE00000FA02F1002070479140C2F1200320FA51
:103AF00003F3194390407047202A04DB203A21FA4F
:103B000002F00021704721FA02F3D040C2F12002F6
:103B10009140084319467047202A06DBCB17203A0C
:103B200041FA02F043EAE07306E041FA02F3D040C2
:103B3000C2F120029140084319467047014900F044
:103B400003B800008CDC002010B500683C22B0FBFC
:103B5000F2F302FB1303B0FBF2F00B60B0FBF2F3E5
:103B600002FB1303B0FBF2F018224B60B0FBF2F340
:103B700002FB1303B0FBF2F0021D8B600723B2FBC4
:103B8000F3F403FB1422800040F2B55300F66C30CE
:103B90008A61B0FBF3F2B0FBF3F403FB1400443290
:103BA00080084A61C8613B2802D3920700D0401CBC
:103BB0000022074C13460A61E25C824203D8801A55
:103BC0005B1C0B61F8E7401CC860084610BD000094
:103BD000C41D06080FB4002300B589B00CA90091DC
:103BE0000B996FF00042CB601E4B06931E4B079360
:103BF0000423CDE901321D4A089202466B4600209B
:103C000000F0B6F909B05DF814FB70B586B0064651
:103C10004FF0FF300091CDE90101002015460C4620
:103C200004903246694604A8FFF7D4FF034604987F
:103C3000211825B108B10A4600E022462A60002872
:103C40000DD0002B02DD0098884208D0081B00949C
:103C5000CDE901043246694604A8FFF7BBFF06B070
:103C600070BD0000A9410008C74100085D3E000882
:103C70002DE9F04791460F4680460446002614F889
:103C8000015B2DB1FFF7B8FD0068405DC007F6D1BC
:103C90002B2D02D02D2D18D0641E4A4639462046C1
:103CA00000F0A2FA27B13968A14201D1C7F800801B
:103CB00071054FF002040BD54042002803DD22F0CD
:103CC0001BFC0460A007BDE8F08746F48066E4E7CB
:103CD0000028F8DA22F010FC04606FF00040F2E7F0
:103CE0000029A8BF7047401C490008BF20F0010010
:103CF000704710B4B0FA80FC00FA0CF050EA0104EE
:103D000004BF10BC704749B1CCF1200421FA04F47F
:103D100011FA0CF118BF012121430843A3EB0C0158
:103D2000CB1D4FEA00614FEA102042BF002010BCBB
:103D3000704700EBC35010440029A4BF10BC70476B
:103D4000401C490008BF20F0010010BC704710B5AE
:103D5000141E73F1000408DA401C41F100019218AE
:103D60005B411A4301D120F0010010BD2DE9F04D57
:103D700092469B4611B1B1FA81F202E0B0FA80F2AC
:103D800020329046FFF7A9FE04460F4640EA0A009B
:103D900041EA0B0153465A46084313D0114653EAF1
:103DA000010019D0C8F140025046FFF7A5FE0546B4
:103DB0000E46504659464246FFF78FFE084305D04F
:103DC000012004E020463946BDE8F08D002005437F
:103DD00046EAE0762C4337430A986305E40AA0EBF1
:103DE00008000022FD0A44EA47540A3002D50020A8
:103DF0000146E9E7010510196941DDE908450019A7
:103E00006941BDE8F04DA2E7C1F30A52C1F31301C5
:103E100040F2FF3341F480119A4202DA0020014659
:103E2000704740F233439A42A2F2334202DC5242DC
:103E3000FFF762BEFFF751BE064C074D06E0E06893
:103E400040F0010394E8070098471034AC42F6D3E1
:103E5000FFF772F9EC3106080C32060810B504467B
:103E6000FFF7CAFC0068005D00F0010010BD000013
:103E70002DE9FF4F087881B09946FF2805D0491CED
:103E80002D2804D00024002308E000230BE00124A7
:103E9000F9E703EB830300EB4303491C0878FF2891
:103EA000F7D104B15B4200200090147801462D2C1C
:103EB00001D02B2C04D1521C2D2C12D000240094A4
:103EC00000251678FF2E0ED00A24A0FB04C801FBA3
:103ED0000481002700FB0711521C16EB0C006941FE
:103EE000EFE70124EBE7994450EA01020ED00024E9
:103EF000AA4D2646DFF8A88200F0D3F982468B4609
:103F0000B9F1000009DAC9F100071BE001980021AE
:103F1000C0E9001105B0BDE8F08F074612E0F807D0
:103F200007D022462B4630464146FFF790FB064617
:103F3000884622462B4610461946FFF788FB044662
:103F40000D467F10002FEAD1B9F1000F32464346EB
:103F50005046594602DAFFF769FC01E0FFF777FBAC
:103F6000009A0AB181F00041019AC2E90001D1E74B
:103F70002DE9FF4F1F468DB0D7E901464FF0FF38BE
:103F80002E2045464FF000090B90B9696D1C0E9824
:103F90008847396A824688470028F6D1BAF1FF3F40
:103FA0000AD024F4D064002E11DDBAF12B0F08D012
:103FB000BAF12D0F0BD102E0404611B0ABE744F44B
:103FC0008064B9696D1C0E9888478246761E6946E2
:103FD000600501D52D2000E02B208DF8000001F1B7
:103FE000010B0DF1200809E0B9696D1C0E98884796
:103FF00082460F9844F40074761E0560002E02DDA0
:10400000BAF1300FF0D00B998A453ED144F08004CC
:1040100006E00F99681CA9F1010944F400740860D6
:10402000B9696D1C761E0E98884782463028F0D0FC
:104030002BE00B998A4505D1200603D444F0800477
:10404000761E18E0504622F085FB08B30DF11301EF
:10405000761E44F400748B4508D2AAF130000BF8A8
:10406000010B200607D5A9F1010003E0200602D4C8
:1040700009F101008146A00502D50F99681C08606E
:10408000B9696D1C0E9888478246002ED1DC53E03A
:10409000002E51DDBAF1650F02D0BAF1450F4BD1B8
:1040A000A00549D5B9696D1C24F44074761E0E989C
:1040B00088478246002E0CDD2B2804D0BAF12D0F44
:1040C00007D144F48074B9696D1C0E988847824604
:1040D000761EE00501D52D2100E02B2108F8011BFB
:1040E000CDF82C8021E00DF12901761E44F40074F6
:1040F00088450CD2AAF1300010F0FF0088F80000CB
:1041000002D10B99884509D908F1010806E0E005BC
:1041100001D5244801E042F20F708146B9696D1C57
:104120000E98884782460F980560002E04DD5046A1
:1041300022F010FB0028D6D1F9690E988847FF209D
:104140008BF8000088F800000020069007904B468E
:104150006A4608A906A8FFF78BFEA00502D46FF0F7
:1041600001002AE714F0240F0AD0E00714D1DDE99A
:1041700006123868031D3B600068C0E900120BE0BE
:10418000DDE90601FFF73CFC0146E00704D1386891
:10419000021D3A600068016028460EE700002440D6
:1041A0000000F03FF1D8FFFF426842B1016811F80A
:1041B000013B23B1521EC0E900121846704701218D
:1041C000C160881E704742685AB1C368016843B92C
:1041D00083688B4205D0491E521CC0E900120020A2
:1041E00070474FF0FF3070472DE9F05F824600784E
:1041F000002715468B460AF10104B946302801D044
:104200009DB113E014F8010B0127782803D058283A
:1042100001D045B10AE00DB1102D07D100271025BE
:1042200014F8010B02E0082500E00A250026B0463C
:104230000EE005FB080005FB06F1012701EB104627
:104240001FFA80F8B6F5803F00D3B94614F8010B89
:10425000294600F018F80028EBDABBF1000F05D072
:104260000FB1641E00E05446CBF80040B9F1000FD6
:1042700006D022F041F902210160C81EBDE8F09F7E
:1042800048EA0640FAE73A2800D2303820F0200207
:10429000412A01D3A2F13700884201D34FF0FF3009
:1042A00070470EB540F2334202920022CDE900225F
:1042B0001346FFF75BFD03B000BD70B58C1810F816
:1042C000015B15F0070301D110F8013B2A1106D15B
:1042D00010F8012B03E010F8016B01F8016B5B1E75
:1042E000F9D12B0705D40023521E0DD401F8013B50
:1042F000FAE710F8013BCB1A921C03E013F8015BBC
:1043000001F8015B521EF9D5A142D8D3002070BD3F
:1043100070B588B02F20ADF8140001248DF8164038
:1043200000268DF8176005A9354806F055FA4FF4B8
:1043300040400EF077FF012148020EF0A1FF314D01
:10434000284600F04FF94FF46020CDE902068DF8C1
:10435000044000968DF805408DF8104069462846C7
:1043600000F098F90121284600F05EF90121284665
:1043700000F02EF9284600F0EBF9284600F06FF91E
:104380000028FAD1284600F00DFA284600F056F928
:104390000028FAD10021284600F01AF91A480A210B
:1043A00006718470C17019498160012108460EF0C0
:1043B0004FFF05A810F03EFF3F20ADF8140042F279
:1043C0000F70ADF818004FF08044ADF81A60ADF8EA
:1043D000166005A9204610F0DFFE0121204610F0EE
:1043E00075FD0121204610F07BFD0122114620467B
:1043F00010F04AFE0121204610F078FD08B070BD93
:10440000001001400024014000000020A8AF00205F
:1044100010B5012186B088020EF032FF1020ADF8F1
:10442000140000248DF8174005A9184806F0D4F9A7
:104430004FF46020CDE902048DF8044000948DF81B
:1044400005400120124C8DF810006946204600F00E
:1044500021F9072301220E21204600F03FF9012116
:10446000204600F0B5F8204600F072F9204600F032
:10447000F6F80028FAD1204600F094F9204600F022
:10448000DDF80028FAD106B010BD00000010014090
:10449000002801402DE9F0414A4C00262046E178F1
:1044A00001278078484D0A39062930D2DFE801F02B
:1044B000031931472F5D20B107230122A6700A217D
:1044C00058E00221284600F0C3F80028F9D0284619
:1044D00000F0BBF8A16821F8020BA160A7700B20C7
:1044E00014E020B107230122A6700B2142E0022133
:1044F000284600F0ADF80028F9D0284600F0A5F8CD
:10450000A16821F8020BA160A7700C20E070BDE843
:10451000F08120B107230122A6700C212AE002219C
:10452000284600F095F80028F9D0284600F08DF8CC
:10453000A16821F8020BA160A7700D20E6E720B169
:1045400007230122A6700D2114E00221284600F065
:104550007FF80028F9D0284600F077F8A16821F804
:10456000020BA160A7700F20D0E780B107230122C2
:10457000A6700F21284600F0B1F80121284600F06E
:1045800027F82846BDE8F041012100F0E6B80221F5
:10459000284600F05DF80028F9D0284600F055F8CC
:1045A000A16821F8020BA160A7700A20E0702079B1
:1045B000401CC0B220710528A9D126710348A06013
:1045C000A5E700000000002000240140A8AF002063
:1045D0000029816802D041F0010101E021F00101D0
:1045E000816070470D4910B5884202D10121441500
:1045F0000AE00B49884202D10121041504E009496F
:1046000088420AD10121CC0320460EF045FE204607
:10461000BDE8104000210EF03FBE10BD0024014057
:1046200000280140003C01400029816802D041F48B
:10463000801101E021F48011816070470146002063
:104640008968490700D501207047C06C80B2704767
:104650000246002012680A4200D00120704701463D
:1046600000208968090700D50120704710B5084C63
:104670000121204600F071F802212046FFF7E8FFF3
:104680000028F9D02046BDE81040FFF7DEBF00004B
:104690000028014010B542680E4B0C791A400B6897
:1046A00042EA04221343436083680B4A1340D1E972
:1046B000024222434C7943EA44031A438260C26AAD
:1046C000097C22F47002491EC9B242EA0151C1625A
:1046D00010BD0000FFFEF0FFFDF7F1FF70B50724ED
:1046E00009290AD9C568A1F10A0606EB4606B440B5
:1046F000A543B3401D43C56007E0056901EB4106D2
:10470000B440A543B3401D4305611F23072A09D2C6
:10471000446B521E02EB820293409C4391400C4337
:10472000446370BD0D2A09D2046BD21F02EB8202D2
:1047300093409C4391400C43046370BDC46A0D3A9E
:1047400002EB820293409C4391400C43C46270BDD3
:10475000816841F00801816070470029816802D0BA
:1047600041F4A00101E021F4A00181607047000044
:104770003EB50B4A00216B4601EB810402EB440479
:1047800034F8104023F81140491CC9B20529F3D36D
:104790000521184600F098FEBDF804003EBD00005B
:1047A000A8AF0020816841F00401816070470028B3
:1047B00000DC404270470000F8B54FF40070ADF8DF
:1047C00000001024104F8DF8034003258DF802508F
:1047D0006946384606F000F80120ADF800000420D4
:1047E0008DF803006946094805F0F6FF4026ADF84C
:1047F00000608DF803408DF802506946384605F098
:10480000EBFF3E61F8BD00000010014000180140C0
:1048100010B5FFF7D1FFBDE810400AF00FBA0AF05B
:104820000DBA000010B50320FFF7A2FF064CA0F25E
:104830001930FEF77EFF2146FEF7E6FD0146BDE892
:1048400010400248FEF788BDF40D783B0000404060
:104850002DE9F04F8DB09D480B90FFF7E3FF9C4C86
:1048600005469C4922784FF004084FF001094FF0AB
:10487000030A4FF0020B4FF040402AB10022227091
:10488000954A954203DCCAE0944A954201DB052033
:10489000B4E04FF06632924BFEF7D6FE914A924B4F
:1048A000CDE90201FEF72CFE06460F462846FFF72B
:1048B00064F8CDE9000132463B46FFF789F804D29F
:1048C0008A48854201DA404698E001210B98FEF7BC
:1048D0000BFEFFF752F84FF06632814BFEF7B4FE45
:1048E000804EDFF804820F46324643460490FEF7BE
:1048F00007FE02460B46DDE90001FFF769F80ED21C
:10490000DDE9020132464346FEF79BFE02460B46B6
:10491000DDE90001FFF744F801D250466EE04FF0A8
:10492000663A52466E4B4FF080407149FEF78CFE5E
:104930006C4A6D4BCDE90201FEF7E2FD02460B46E3
:10494000DDE90001FFF744F80ED23946654A664BAF
:104950000498FEF776FE02460B46DDE90001FFF7FC
:104960001FF801D2584649E002210B98FEF7BCFD22
:10497000FFF703F8DFF8688152464346FEF764FE0E
:10498000584F594E83463A4633460591FEF7B8FDD7
:1049900002460B46DDE90001FFF71AF80ED2DDE909
:1049A00002013A463346FEF74CFE02460B46DDE96D
:1049B0000001FEF7F5FF01D248461FE0524643468C
:1049C0004FF020404B49FEF73FFE3A463346FEF794
:1049D00097FD02460B46DDE90001FEF7F9FF11D213
:1049E00058463A4633460599FEF72BFE0B460246DB
:1049F000DDE90001FEF7D4FF04D2002060700DB0A5
:104A0000BDE8F08F3C483D492844884201D200204F
:104A1000F5E73948C043854256DD6078EFE74FF04F
:104A200066322F4BFEF710FE06460F462846FEF76D
:104A3000A4FF05463B4632460191FEF7C9FF7FF6CB
:104A400042AF01210B98FEF74FFDFEF796FF244F72
:104A50004FF0663632463B46FEF7F6FD02460B4601
:104A600028460199FEF7B4FF7FF657AF32463B4622
:104A70004FF080401E49FEF7E7FD02460B462846F0
:104A80000199FEF7A5FF7FF66DAF02210B98FEF7A7
:104A90002BFDFEF772FF32463B46FEF7D5FD024680
:104AA0000B4628460199FEF793FF85D932463B46CF
:104AB0004FF020400F49FEF7C7FD02460B4628463F
:104AC0000199FEF785FF98D9FF2098E7AE47613E30
:104AD00000000020F528CC3F3333F340CDCCF44028
:104AE00066661E409A9999999999A93F9A99F140B9
:104AF000B81EE53F9999F13FFFFF4FBF9999090013
:104B000010B50120FFF734FEBDE810400E22014928
:104B10000BF0B8B8466F020810B50220FFF728FE68
:104B2000BDE810400E2201490BF0ACB8706F0208CE
:104B300010B50A4C61684A1C6260322907D2042011
:104B4000FFF716FEA1680844A060002010BDA16810
:104B50003222B1FBF2F10180012010BD30110020A2
:104B600070B50425002406E0052022F0D1F9FFF7F6
:104B70004FFE204484B26D1EEDB2F5D2B4F5C87F6D
:104B800001D2012070BD002070BD000070B5054647
:104B90000420FFF7EDFD04460E480DF081FD0146AF
:104BA000AC4201D2002070BD601B00D5404282B2F1
:104BB00009488A4202D90021017008E00178491CA5
:104BC000C9B20170032902D903210170EAE701206B
:104BD00070BD000025B600203311002010B5002064
:104BE000FFF7C6FDB0F5166F01D3012010BD002000
:104BF00010BD70B50425002406E0052022F088F9D8
:104C0000FFF734FD204484B26D1EEDB2F5D2B4F549
:104C1000C87F01D2012070BD002070BD064A5168D6
:104C200011B95060704711460A69002AFBD1C16072
:104C30000A69026108617047641300202DE9F0439E
:104C40008FB08846814638222E496846FEF7DCFA46
:104C500000240B269DF90000FEF76BFD4146FEF790
:104C6000EBFE02D8DDF8014040E09DF93200FEF78E
:104C700060FD4146FEF7B6FD02D8DDF8334035E071
:104C80004FEA0D0504EB84002856FEF752FD41461D
:104C9000FEF7D2FE02D3641CB442F3DB04EB8400C3
:104CA00044192856D4F8017054F8046CFEF741FDFD
:104CB000054614F9050CFEF73CFD0446014628465E
:104CC000FEF79CFB054631463846FEF797FB294622
:104CD000FEF7CCFB054621464046FEF78FFB2946F2
:104CE000FEF792FB3146FEF737FB04464846FEF7D7
:104CF00029FD2146FEF788FBFEF760FD0FB080B26C
:104D0000BDE8F0838C9802082DE9FF5F5A4C4FF400
:104D1000FA7BA4F58069A5E028895E46401C80B234
:104D2000B0FBF6F128810BFB1100A8B95349544F91
:104D30000FC98DE80F005348397800685DF82110DD
:104D4000B0F9220010F04DF83878401CC0B238702D
:104D5000032801D900203870288947F23051884251
:104D60007CD8688A05EB4001401C80B2898A688241
:104D7000B04201D300206882EA68A9460A440020B4
:104D8000C5F80C2004EB800252888A4225D21026F6
:104D9000394F0023A6F1010A0022F51A6D1E11E019
:104DA00007EB8200B0F802C0B0F80680C44507D90E
:104DB000D0F800C0D0F80480C0F80080C0F804C06B
:104DC000521C92B29542EBDC5B1C9BB25345E3DB79
:104DD000B9F808202280618002E0401C1028D1DB55
:104DE000B9F80800B9F806204D46904299F800201D
:104DF0001CD9E2B90021084604EB8002401C52880D
:104E000010281144F8DBC1F30F106880FEF7B0FCE6
:104E10001D4A1E4BFEF71BFC00221D4BFEF770FBCC
:104E2000FEF792FDA880012028701BE0D2B100F0AF
:104E30000F0224F8220004EB820041800021084682
:104E400004EB8002401C528810281144F8DB08094A
:104E5000B9F80410814201D2282803D8012004B0F7
:104E6000BDE8F09FB9F81200B9F810104D4688421D
:104E70007FF452AF0020F2E72CBD002028980208F2
:104E80002C110020741300209A9999999999B93F8F
:104E90000000E03F30B5054625480C462549D0F8CE
:104EA00005008DB0884216DB2348C17999B9007A94
:104EB00088B914212148FEF7CEF9B5F9140014225F
:104EC0001E4904F01DFB1D491DA011F023FA1B48CB
:104ED000FEF7F6F958B109F023FDB4F90410884241
:104EE00024D00DB00846BDE8304011F03DBE00248E
:104EF0008DF8004012201EF08FF8029095F82000E7
:104F0000042803D0052804D1144801E013481938B7
:104F10000190FF2003901248049003208DF81400A4
:104F2000089409F007FD694601F06EFF0DB030BD31
:104F3000FDB300200000A041F4B30020D9D7002029
:104F400044726976657249445F496E666F726D613D
:104F500074696F6E3A25730D0A0000007D8A05089A
:104F6000D3D3D30030B505461D480C461D49D0F8B3
:104F700005008DB0884214DB1B48007A88B91A21DD
:104F80001A48FEF768F9B5F914001A22174904F017
:104F9000B7FA164916A011F0BDF91448FEF790F9BA
:104FA00030B1B4F904000DB0BDE8304011F0DCBD03
:104FB00000248DF8004012201EF02EF802901348B5
:104FC0000190FF2003901248049003208DF81400F4
:104FD000089409F0AFFC694601F016FF0DB030BD32
:104FE000FDB300200000A041F4B30020EDD7002065
:104FF000706C61746E756D6265725F496E666F721A
:105000006D6174696F6E3A25730D0A00588C05083E
:10501000D3D3D30030B505462A480C462A49D0F8E8
:1050200005008DB0884214DB2848007A88B9322107
:105030002748FEF710F9B5F914003222244904F08C
:105040005FFA234923A011F065F92148FEF738F9EA
:1050500058B109F065FCB4F90410884229D00DB0AC
:105060000846BDE8304011F07FBD00248DF80040B7
:1050700012201DF0D1FF029095F82800012808D0D9
:10508000022804D0032819D0062805D113E01948B6
:1050900001E018481F300190FF200390164804904B
:1050A00003208DF81400089409F044FC694601F0CF
:1050B000ABFE0DB030BD0F483830ECE70D4857302F
:1050C000E9E70000FDB300200000A041F4B3002098
:1050D00044D90020557365725F506F6C6963655FDA
:1050E000496E666F726D6174696F6E3A25730D0A51
:1050F0000000000030170020D3D3D30030B50446A1
:1051000022480D462249D0F805008DB0884216DBB2
:105110002048C17999B9007A88B914211E48FEF750
:105120009AF8B4F9140014221B4904F0E9F91A4959
:105130001AA011F0EFF81848FEF7C2F828B10DB028
:105140002846BDE8304017F065BE00258DF80050B8
:1051500012201DF061FF029094F82000042803D073
:10516000052804D1144801E0134819380190FF20A4
:1051700003901248049003208DF81400089509F05C
:10518000D9FB694601F040FE0DB030BDFDB30020F3
:105190000000A041F4B30020D9D700204472697602
:1051A000657249445F496E666F726D6174696F6EB6
:1051B0003A25730D0A0000007D8A0508D3D3D30079
:1051C00030B504461D480D461D49D0F805008DB088
:1051D000884214DB1B48007A88B91A211A48FEF766
:1051E0003AF8B4F914001A22174904F089F916495B
:1051F000164811F08FF81448FEF762F828B10DB088
:105200002846BDE8304017F0A1BF00248DF80040CB
:1052100012201DF001FF02900D480190FF20039025
:105220000C48049003208DF81400089409F082FBC8
:10523000694601F0E9FD0DB030BD0000FDB300206E
:105240000000A041F4B30020EDD70020F04F00088B
:10525000588C0508D3D3D30030B5044627480D46F3
:105260002749D0F805008DB0884214DB2548007A24
:1052700088B932212448FDF7EEFFB4F91400322238
:10528000214904F03DF9204920A011F043F81E48BF
:10529000FEF716F828B10DB02846BDE8304017F0EB
:1052A0007DBF00258DF8005012201DF0B5FE029044
:1052B00094F82800012808D0022804D0032819D027
:1052C000062805D113E0194801E018481F30019065
:1052D000FF2003901648049003208DF814000895D1
:1052E00009F028FB694601F08FFD0DB030BD0F4875
:1052F0003830ECE70D485730E9E70000FDB30020F7
:105300000000A041F4B3002044D900205573657219
:105310005F506F6C6963655F496E666F726D617433
:10532000696F6E313A25730D0A00000030170020B6
:10533000D3D3D30010B50CA1FDF7A4FF0AA1801CA4
:10534000FDF7A0FF08A1801CFDF79CFF06A1801CB3
:10535000FDF798FF04A1801CFDF794FF02A1801CBB
:10536000FDF790FF801C10BD0D0A00000BF06DF9D9
:105370000DF09EFF0CF00EFF0AF00AFE0BF00EFA85
:1053800011F01EF80AF0EAFF00F080FA0FF0D4F9ED
:10539000FEF7BEFFFFF73CF8454C1C216068FDF7A7
:1053A0005AFF6068012606700FF0C6F90FF04AFC3C
:1053B0004FF4FA7021F0ACFD012100200AF088FDC5
:1053C000012108460AF084FD02F08AFB0EF024FB5E
:1053D000012138480EF0BEFA36480BF071F900256D
:1053E00050B9344811210170467086700C21C1708B
:1053F000057145710EF01FFB07F07AFF08F0DEFD26
:10540000042012F065F810F06FFF0BF0D1FE03F0EE
:1054100091FE022000F0ACF905E000BF0BF0A6F908
:1054200008B1606806760BF095F90028F6D1642083
:1054300021F06EFD60680021467501200AF048FDEC
:105440000121002001F0BAF86068007E20B109F067
:1054500071FA012101F0BCFE06F0ECFD164EDFF8FA
:105460005C80DFF85C90174F07F00CFE6068007DF1
:1054700008B104F08DFA10F0F3FD307810B13570FA
:105480000CF0C6FC98F80010404611B1057006F00B
:1054900075FA99F80010484611B105700CF07AFCC5
:1054A00038780028E0D03D700CF06CFCDCE70000A0
:1054B00004110020E51000204C1100204E110020A6
:1054C0005011002054110020F0B500234C1E15E0AF
:1054D0000022CE1A761E0DE000EB420C30F812507E
:1054E000BCF80270BD4203D920F81270ACF802502B
:1054F000521C92B29642EFDC5B1C9BB2A342E7DBEC
:10550000F0BD00000248018841F0010101807047B0
:10551000346C004008B5024A10440090016008BD98
:10552000006C004070B5B0F904600546304607F0E5
:1055300003F804462946304610F05DFF00284ED09F
:1055400028680B2822D00C2804D00E2828D00F2839
:1055500040D115E0A868214680B1007A0028C88CA7
:105560004FEAC05006D0002839DB3046BDE8704015
:105570001EF03DBD002832DA022226E0032224E09C
:1055800031462046BDE870401EF032BF04F14C00A9
:1055900006F047FF032104F14E0006F04BFF19E02F
:1055A000A968486809680D2902D0202912D106E0AF
:1055B00000280FDD214630461EF019FD03E00028CB
:1055C00001DD2146D1E7022221463046BDE8704088
:1055D0001EF01EBD2846BDE8704011F099BA70BD9E
:1055E0002DE9FF410DF12C084FF0380C98E8D00060
:1055F000DFF83CE0A4B20A9DCDE902ECCDE900540D
:1056000011F0ECF905000ED006F096FF04461022CA
:10561000394611F0F1F82422064904F12800FDF77B
:10562000F3FD84F8546004B02846BDE8F081000022
:1056300025550008681800202DE9F04115460E4652
:10564000002815D006F078FFB0F94C00002788B18B
:1056500006F072FF8046FDF733FE0446681E844262
:1056600000DD0446224641463046FDF7CDFD375564
:10567000BDE8F0813770FBE770B516460C4605466D
:1056800019463046049A07F04DFA0246214628464C
:10569000BDE8704000F054B870B516460C460500E1
:1056A0000BD0022C09D806F047FF00EB840086627D
:1056B0002846BDE8704011F09ABD70BD00294FF03A
:1056C000100101D010F001BF10F07BBE70B50D4687
:1056D000040007D006F030FF45642046BDE8704066
:1056E00011F085BD70BD4FF480720029114601D0C4
:1056F00010F0EBBE10F065BE70B50D4604000CD086
:1057000006F01AFF29464C3008F0E0FF002804D0CC
:105710002046BDE8704011F06ABD70BD70B51646F8
:105720000C4605000BD0022C09D806F005FF00EB53
:10573000840046632846BDE8704011F058BD70BD36
:1057400070B515460C46060010D006F0F5FE032C89
:105750000CD800EB440404F14E0006F062FEA4F8FD
:105760004E503046BDE8704011F041BD70BD0000A4
:10577000012827D0022827D0072828D0052829D09B
:1057800006282AD004282BD008282CD009282FD06E
:105790000A2830D00B2831D00C2833D00D2834D033
:1057A0000E282BD00F2829D0112833D0102835D01F
:1057B000122836D0132838D1012200215FF06E0064
:1057C00012F09CBF19482EE0184811302BE0174802
:1057D000333028E01548443025E01448553022E0A5
:1057E000124866301FE0012200214FF4FA70E7E70B
:1057F0000E48773017E00D48993014E0032232212B
:105800006420DDE7094822300DE0012200214FF439
:105810009670D5E7012200211E20D1E70348883089
:1058200001E00248AA3012F07BBF70479A6F02086D
:1058300070B5154C6068002819D0227881188B78D3
:1058400061788B421CD1521CD1B2217001260144D7
:1058500066708978002511B1A07848B904E04178D4
:1058600051B12570007818B100F058F8A67070BDDD
:1058700000F03AF8A57070BD00F036F8656070BDB4
:10588000491C617070BD00000C00002030B587B06D
:10589000012102200DF0DCFC124D28460FF030FBF8
:1058A00040F64210ADF814000920ADF810000024B5
:1058B000ADF81640ADF8124004A928460FF06CFC74
:1058C0006020ADF800000120ADF8020040F2A140D8
:1058D000ADF80600ADF80840694628460FF01CFCFC
:1058E00007B030BD0004004038B5002109480FF072
:1058F000FDFA0124ADF8004010208DF803000220CD
:105900008DF802006946044804F066FF024814302E
:10591000046038BD00040040000C014008B50120BF
:10592000ADF8000018208DF8030002208DF8020069
:105930006946044804F050FF012103480FF0D6FAED
:1059400008BD0000000C0140000400407CB51D4C67
:105950000546E08CB4F844100844E084208DB4F887
:10596000481008442085284607F03AFCE18CADF841
:1059700000100844401EADF8040007F049FC218DDA
:10598000ADF802100844401EADF80600684611F05C
:1059900089FF04E0284604F0B1FB11F03FFF002826
:1059A000F8D10A2D03D0BDF80400401CE08434F87F
:1059B000260FE18B401A20806088618C401A60803D
:1059C0007CBD0000C8D900202DE9FF410446052513
:1059D0000F46284609F0D0F830B119A010F09AFC13
:1059E000002004B0BDE8F0812420002103900222B1
:1059F0000094CDE901214FF4A073F022084610F085
:105A0000EDFF194E040016D0014618A010F082FCDC
:105A1000204606F091FD203030600480476005721A
:105A2000FFF7FCF81D49204611F030FD012120460A
:105A300012F028FA02E01AA010F06CFC3068D0E7EF
:105A40006541646D696E6973746F722077696E6405
:105A50006F7720697320616C726561792065786960
:105A60007374210D0A000000C01300206541646DAD
:105A7000696E6973746F722077696E646F777320D3
:105A800069732063726561746564216857696E206B
:105A90003D203078253034580D0A000075A20108E9
:105AA0006541646D696E6973746F722077696E64A5
:105AB0006F772063616E2774206265206372656171
:105AC000746564210D0A00002DE9FF410446032599
:105AD0000F46284609F050F830B119A010F01AFC12
:105AE000002004B0BDE8F0812420002103900222B0
:105AF0000094CDE901214FF4A073F022084610F084
:105B00006DFF1C4E040016D001461BA010F002FCD5
:105B1000204606F011FD2030306004804760057299
:105B2000FFF77CF82349204611F0B0FC0121204604
:105B300012F0A8F902E020A010F0ECFB3068D0E7EA
:105B4000654175746F53687574646F776E54696DD1
:105B500065436F6E6669672077696E646F77206949
:105B60007320616C72656179206578697374210DA9
:105B70000A00000070130020654175746F5368754A
:105B800074646F776E54696D65436F6E66696720E4
:105B900077696E646F7773206973206372656174CF
:105BA0006564216857696E203D203078253034586F
:105BB0000D0A000025920108654175746F536875E0
:105BC00074646F776E54696D65436F6E66696720A4
:105BD00077696E646F772063616E27742062652039
:105BE00063726561746564210D0A00002DE9FF414F
:105BF000044608250F46284608F0BEFF30B119A01C
:105C000010F088FB002004B0BDE8F0812C200021BA
:105C1000039002220094CDE901214FF4A073F022F9
:105C2000084610F0DBFE1A4E040016D0014619A0FB
:105C300010F070FB204606F07FFC203030600480BE
:105C400047600572FEF7EAFF1F49204611F01EFC6F
:105C50000121204612F016F902E01CA010F05AFBB8
:105C60003068D0E76543616C6962726174696F6E18
:105C700057696E2077696E646F7720697320616C55
:105C800072656179206578697374210D0A000000DE
:105C9000D41300206543616C6962726174696F6E30
:105CA00057696E2077696E646F777320697320631C
:105CB000726561746564216857696E203D20307893
:105CC000253034580D0A00009DAC01086543616C15
:105CD0006962726174696F6E57696E2077696E646C
:105CE0006F772063616E277420626520637265613F
:105CF000746564210D0A00002DE9FF4104460F255B
:105D00000F46284608F038FF30B119A010F002FB0A
:105D1000002004B0BDE8F081182000210390022289
:105D20000094CDE901214FF4A073F022084610F051
:105D300055FE184E040016D0014617A010F0EAFADE
:105D4000204606F0F9FB2030306004804760057281
:105D5000FEF764FF1B49204611F098FB0121204605
:105D600012F090F802E018A010F0D4FA3068D0E7F2
:105D70006544656275672077696E646F7720697323
:105D800020616C72656179206578697374210D0AF0
:105D900000000000D013002065446562756720771D
:105DA000696E646F777320697320637265617465CF
:105DB00064216857696E203D203078253034580DB5
:105DC0000A000000D9A9010865446562756720775B
:105DD000696E646F772063616E277420626520634B
:105DE000726561746564210D0A0000002DE9FF41B0
:105DF000044625250F46284608F0BEFE30B119A0FE
:105E000010F088FA002004B0BDE8F0812C200021B9
:105E1000039002220094CDE901214FF4A073F022F7
:105E2000084610F0DBFD1A4E040016D0014619A0FA
:105E300010F070FA204606F07FFB203030600480BE
:105E400047600572FEF7EAFE1F49204611F01EFB6F
:105E50000121204612F016F802E01CA010F05AFAB8
:105E60003068D0E765446973706C61795265636F1F
:105E700072642077696E646F7720697320616C7239
:105E800065616479206578697374210D0A000000EA
:105E90000816002065446973706C61795265636F00
:105EA00072642077696E646F777320697320637200
:105EB0006561746564216857696E203D20307825DE
:105EC0003034580D0A00000069B401086544697354
:105ED000706C61795265636F72642077696E646F6C
:105EE000772063616E277420626520637265617438
:105EF0006564210D0A0000002DE9FF4104463125AB
:105F00000F46284608F038FE30B119A010F002FA0A
:105F1000002004B0BDE8F08124200021039002227B
:105F20000094CDE901214FF4A073F022084610F04F
:105F300055FD194E040016D0014618A010F0EAF9DC
:105F4000204606F0F9FA2030306004804760057280
:105F5000FEF764FE1D49204611F098FA0121204603
:105F600011F090FF02E01AA010F0D4F93068D0E7E9
:105F7000655072696E74436F7079732077696E64CF
:105F80006F7720697320616C72656179206578692B
:105F90007374210D0A000000181600206550726904
:105FA0006E74436F7079732077696E646F777320B6
:105FB00069732063726561746564216857696E2036
:105FC0003D203078253034580D0A0000CDBC010842
:105FD000655072696E74436F7079732077696E646F
:105FE0006F772063616E277420626520637265613C
:105FF000746564210D0A00002DE9FF4100270A9C09
:10600000044E02258DE8F00010F0E8FC04B0BDE875
:10601000F08100004DBE01082DE9FF41002402235C
:106020002822CDE90003CDE902420E46D300242701
:10603000F0222146204610F0D1FC05001DD001467B
:1060400011A010F067F9284606F076FA058400F1F1
:106050002004466227722046FEF7E0FD96E80F0016
:1060600004F1180888E80F001549284611F00EFAC7
:106070000121284611F006FF02E012A010F04AF9B3
:1060800004B02046BDE8F08165496E7075744E75A8
:106090006D62657257696E646F772077696E646FA1
:1060A0007773206973206372656174656421685732
:1060B000696E203D203078253034580D0A000000EC
:1060C000FD96010865496E7075744E756D62657256
:1060D00057696E646F772077696E646F77206361AC
:1060E0006E27742062652063726561746564210D9A
:1060F0000A0000002DE9FF41002402233022CDE9EF
:106100000003CDE902420E4623274FF4A073F0228C
:106110002146204610F062FC05001DD0014612A069
:1061200010F0F8F8284606F007FA058400F120047C
:10613000466227722046FEF771FD96E80F0004F1D3
:10614000200888E80F001649284611F09FF9012120
:10615000284611F097FE02E012A010F0DBF804B020
:106160002046BDE8F081000065496E707574506C82
:106170006174654E756D57696E646F772077696ECF
:10618000646F77732069732063726561746564213D
:106190006857696E203D203078253034580D0A004C
:1061A000B1AE010865496E707574506C6174654ECE
:1061B000756D57696E646F772077696E646F7720AD
:1061C00063616E2774206265206372656174656423
:1061D000210D0A002DE9FF41002402233022CDE9E0
:1061E0000003CDE902420E4622274FF4A073F022AD
:1061F0002146204610F0F2FB05001DD0014612A0FA
:1062000010F088F8284606F097F9058400F120047C
:10621000466227722046FEF701FD96E80F0004F162
:10622000200888E80F001449284611F02FF90121B1
:10623000284611F027FE02E010A010F06BF804B021
:106240002046BDE8F081000065496E70757457699D
:106250006E646F772077696E646F7773206973203F
:1062600063726561746564216857696E203D2030F2
:1062700078253034580D0A00B9C1010865496E709F
:10628000757457696E646F772077696E646F7720D5
:1062900063616E2774206265206372656174656452
:1062A000210D0A002DE9FF41044628250F46284606
:1062B00008F062FC30B119A010F02CF8002004B0F6
:1062C000BDE8F08124200021039002220094CDE952
:1062D00001214FF4A073F022084610F07FFB194E05
:1062E000040016D0014618A010F014F8204606F05D
:1062F00023F920303060048047600572FEF78EFC81
:106300001D49204611F0C2F80121204611F0BAFDC6
:1063100002E01AA00FF0FEFF3068D0E76550726906
:106320006E74436F7079732077696E646F7720693C
:106330007320616C72656179206578697374210DD1
:106340000A00000000160020655072696E74436FE9
:106350007079732077696E646F7773206973206337
:10636000726561746564216857696E203D203078DC
:10637000253034580D0A00000DB2010865507269CD
:106380006E74436F7079732077696E646F772063E2
:10639000616E277420626520637265617465642193
:1063A0000D0A00002DE9FF41044626250F46284628
:1063B00008F0E2FB30B119A00FF0ACFF002004B0F0
:1063C000BDE8F08124200021039002220094CDE951
:1063D00001214FF4A073F022084610F0FFFA194E85
:1063E000040016D0014618A00FF094FF204606F0D6
:1063F000A3F820303060048047600572FEF70EFC81
:106400001D49204611F042F80121204611F03AFDC5
:1064100002E01AA00FF07EFF3068D0E76550726985
:106420006E745265636F72642077696E646F772053
:10643000697320616C726561792065786973742174
:106440000D0A000004160020655072696E745265D2
:10645000636F72642077696E646F7773206973204D
:1064600063726561746564216857696E203D2030F0
:1064700078253034580D0A008DB3010865507269D3
:106480006E745265636F72642077696E646F7720F3
:1064900063616E2774206265206372656174656450
:1064A000210D0A002DE9FF41044630250F462846FC
:1064B00008F062FB30B119A00FF02CFF002004B0EF
:1064C000BDE8F08124200021039002220094CDE950
:1064D00001214FF4A073F022084610F07FFA1B4E02
:1064E000040016D001461AA00FF014FF204606F053
:1064F00023F820303060048047600572FEF78EFB81
:106500002149204610F0C2FF0121204611F0BAFCBB
:1065100002E01EA00FF0FEFE3068D0E743575F5345
:10652000616D706C654D6F6465436F6E6669672061
:1065300077696E646F7720697320616C7265617929
:10654000206578697374210D0A0000000C16002084
:1065500043575F53616D706C654D6F6465436F6E3B
:106560006669672077696E646F777320697320634B
:10657000726561746564216857696E203D203078CA
:10658000253034580D0A0000D1B5010843575F5338
:10659000616D706C654D6F6465436F6E66696720F1
:1065A00077696E646F772063616E2774206265205F
:1065B00063726561746564210D0A00002DE9FF4175
:1065C00004462F250F46284608F0D6FA30B119A008
:1065D0000FF0A0FE002004B0BDE8F08144200021AF
:1065E000039002220094CDE901214FF4A073F02220
:1065F000084610F0F3F91A4E040016D0014619A00F
:106600000FF088FE204605F097FF203030600480B0
:1066100047600572FEF702FB2049204610F036FF66
:106620000121204611F02EFC02E01DA00FF072FEA9
:106630003068D0E76553656C656374456E726F6C46
:106640006C557365722077696E646F77206973206B
:10665000616C72656179206578697374210D0A0037
:10666000141600206553656C656374456E726F6C1B
:106670006C557365722077696E646F7773206973E8
:106680002063726561746564216857696E203D20DE
:106690003078253034580D0A0000000065BA010832
:1066A0006553656C656374456E726F6C6C5573658C
:1066B000722077696E646F772063616E2774206241
:1066C000652063726561746564210D0A0000000035
:1066D0002DE9FF41044613250F46284608F04CFAE1
:1066E00030B119A00FF016FE002004B0BDE8F08113
:1066F0002C200021039002220094CDE901214FF4C7
:10670000A073F022084610F069F9194E040016D063
:10671000014618A00FF0FEFD204605F00DFF2030C9
:106720003060048047600572FEF778FA1D49204604
:1067300010F0ACFE0121204611F0A4FB02E01AA0EB
:106740000FF0E8FD3068D0E765536574414C435560
:106750006E69742077696E646F7720697320616C4D
:1067600072656179206578697374210D0A000000F3
:10677000CC13002065536574414C43556E697420F9
:1067800077696E646F7773206973206372656174D3
:106790006564216857696E203D2030782530345873
:1067A0000D0A0000E1A7010865536574414C43558B
:1067B0006E69742077696E646F772063616E2774E9
:1067C0002062652063726561746564210D0A0000B2
:1067D0002DE9FF41044616250F46284608F0CCF95E
:1067E00030B119A00FF096FD002004B0BDE8F08193
:1067F00028200021039002220094CDE90121C3004A
:10680000F022084610F0EAF8184E040016D00146AF
:1068100017A00FF07FFD204605F08EFE203030607F
:10682000048047600572FEF7F9F91C49204610F014
:106830002DFE0121204611F025FB02E018A00FF0EB
:1068400069FD3068D1E7000065536574426C6F776D
:106850002077696E646F7720697320616C7265615F
:1068600079206578697374210D0A0000C81300202F
:1068700065536574426C6F772077696E646F7773C8
:106880002069732063726561746564216857696E5D
:10689000203D203078253034580D0A006DA60108BF
:1068A00065536574426C6F772077696E646F7720EB
:1068B00063616E277420626520637265617465642C
:1068C000210D0A002DE9FF41044610250F462846F8
:1068D00008F052F930B119A00FF01CFD002004B0EF
:1068E000BDE8F08114200021039002220094CDE93C
:1068F00001210301F022084610F070F8184E040040
:1069000016D0014617A00FF005FD204605F014FE35
:1069100020303060048047600572FEF77FF91C4923
:10692000204610F0B3FD0121204611F0ABFA02E041
:1069300018A00FF0EFFC3068D1E7000065536574D4
:1069400054696D652077696E646F77206973206183
:106950006C72656179206578697374210D0A000095
:10696000B81300206553657454696D652077696EAE
:10697000646F777320697320637265617465642145
:106980006857696E203D203078253034580D0A0054
:10699000C99E01086553657454696D652077696EF9
:1069A000646F772063616E2774206265206372656F
:1069B00061746564210D0A002DE9FF41044602253A
:1069C0000F46284608F0D8F830B119A00FF0A2FC05
:1069D000002004B0BDE8F0812420002103900222B1
:1069E0000094CDE901214FF4A073F02208460FF086
:1069F000F5FF194E040016D0014618A00FF08AFCCE
:106A0000204605F099FD2030306004804760057213
:106A1000FEF704F91D49204610F038FD01212046FB
:106A200011F030FA02E01AA00FF074FC3068D0E7E1
:106A30006553657474696E674D61696E2077696E20
:106A4000646F7720697320616C7265617920657865
:106A5000697374210D0A00006C130020655365747E
:106A600074696E674D61696E2077696E646F7773C4
:106A70002069732063726561746564216857696E6B
:106A8000203D203078253034580D0A00658F0108EC
:106A90006553657474696E674D61696E2077696EC0
:106AA000646F772063616E2774206265206372656E
:106AB00061746564210D0A002DE9FF4104460D252E
:106AC0000F46284608F058F830B119A00FF022FC04
:106AD000002004B0BDE8F0812420002103900222B0
:106AE0000094CDE901214FF4A073F02208460FF085
:106AF00075FF1C4E040016D001461BA00FF00AFCC7
:106B0000204605F019FD2030306004804760057292
:106B1000FEF784F82349204610F0B8FC01212046F6
:106B200011F0B0F902E020A00FF0F4FB3068D0E7DC
:106B30006553657474696E674261636B6C696768FD
:106B40007454696D656F75742077696E646F772012
:106B5000697320616C72656179206578697374214D
:106B60000D0A0000AC1300206553657474696E67EC
:106B70004261636B6C6967687454696D656F7574A5
:106B80002077696E646F7773206973206372656123
:106B9000746564216857696E203D20307825303453
:106BA000580D0A00719901086553657474696E6720
:106BB0004261636B6C6967687454696D656F757465
:106BC0002077696E646F772063616E277420626539
:106BD0002063726561746564210D0A002DE9FF412F
:106BE00004460C250F46284607F0C6FF30B119A011
:106BF0000FF090FB002004B0BDE8F08124200021BC
:106C0000039002220094CDE901214FF4A073F022F9
:106C100008460FF0E3FE1A4E040016D0014619A0F4
:106C20000FF078FB204605F087FC203030600480B0
:106C300047600572FDF7F2FF2049204610F026FC60
:106C40000121204611F01EF902E01DA00FF062FBA9
:106C50003068D0E76553657474696E674261636B31
:106C60006C696768742077696E646F772069732038
:106C7000616C72656179206578697374210D0A0011
:106C8000B01300206553657474696E674261636B6D
:106C90006C696768742077696E646F7773206973B5
:106CA0002063726561746564216857696E203D20B8
:106CB0003078253034580D0A00000000E59C0108AA
:106CC0006553657474696E674261636B6C6967686C
:106CD000742077696E646F772063616E2774206219
:106CE000652063726561746564210D0A000000000F
:106CF0002DE9FF4104460E250F46284607F03CFFCC
:106D000030B119A00FF006FB002004B0BDE8F081FF
:106D100024200021039002220094CDE901214FF4A8
:106D2000A073F02208460FF059FE1B4E040016D047
:106D300001461AA00FF0EEFA204605F0FDFB2030C8
:106D40003060048047600572FDF768FF21492046E6
:106D500010F09CFB0121204611F094F802E01EA0E7
:106D60000FF0D8FA3068D0E76553657474696E67C0
:106D700053797374656D496E666F2077696E646FC1
:106D80007720697320616C72656179206578697319
:106D900074210D0A00000000B413002065536574CF
:106DA00074696E6753797374656D496E666F207789
:106DB000696E646F777320697320637265617465AF
:106DC00064216857696E203D203078253034580D95
:106DD0000A000000259E01086553657474696E679A
:106DE00053797374656D496E666F2077696E646F51
:106DF000772063616E277420626520637265617419
:106E00006564210D0A0000002DE9FF4100240223E2
:106E10005422CDE90003CDE902420F460B264FF480
:106E2000A073F022214620460FF0D8FD05001DD0AA
:106E3000014612A00FF06EFA284605F07DFB05848E
:106E400000F12004476226722046FDF7E7FE30225B
:106E5000394604F12400FCF7D7F91449284610F00C
:106E600015FB0121284611F00DF802E010A00FF0EB
:106E700051FA04B02046BDE8F08100006553686F08
:106E8000774469616C6F672077696E646F777320F0
:106E900069732063726561746564216857696E2047
:106EA0003D203078253034580D0A0000859B0108BC
:106EB0006553686F774469616C6F672077696E64AA
:106EC0006F772063616E277420626520637265614D
:106ED000746564210D0A00002DE9FF4104460A256E
:106EE0000F46284607F048FE30B119A00FF012FAFD
:106EF000002004B0BDE8F0811C2000210390022294
:106F00000094CDE901214FF4A073F02208460FF060
:106F100065FD194E040016D0014618A00FF0FAF9CD
:106F2000204605F009FB2030306004804760057280
:106F3000FDF774FE1D49204610F0A8FA01212046F5
:106F400010F0A0FF02E01AA00FF0E4F93068D0E7DB
:106F50006553686F775265706F72742077696E64DD
:106F60006F7720697320616C72656179206578693B
:106F70007374210D0A000000781300206553686FB8
:106F8000775265706F72742077696E646F777320C3
:106F900069732063726561746564216857696E2046
:106FA0003D203078253034580D0A00007D950108C9
:106FB0006553686F775265706F72742077696E647D
:106FC0006F772063616E277420626520637265614C
:106FD000746564210D0A00002DE9FF41044609256E
:106FE0000F46284607F0C8FD30B119A00FF092F9FE
:106FF000002004B0BDE8F08170200021039002223F
:107000000094CDE901214FF4A073F02208460FF05F
:10701000E5FC184E040016D0014617A00FF07AF9CF
:10702000204605F089FA2030306004804760057200
:10703000FDF7F4FD1C49204610F028FA01212046F6
:1070400010F020FF02E019A00FF064F93068D0E7DB
:1070500065546573744D61696E2077696E646F77EE
:1070600020697320616C7265617920657869737439
:10707000210D0A007413002065546573744D616915
:107080006E2077696E646F77732069732063726511
:1070900061746564216857696E203D203078253021
:1070A00034580D0A000000005194010865546573BE
:1070B000744D61696E2077696E646F772063616ECD
:1070C00027742062652063726561746564210D0A0E
:1070D000000000002DE9FF41044629250F462846FF
:1070E00007F04AFD30B119A00FF014F9002004B0E8
:1070F000BDE8F08124200021039002220094CDE914
:1071000001214FF4A073F02208460FF067FC184EDF
:10711000040016D0014617A00FF0FCF8204605F039
:107120000BFA20303060048047600572FDF776FD71
:107130001C49204610F0AAF90121204610F0A2FEB9
:1071400002E019A00FF0E6F83068D0E76554696DE9
:10715000655A6F6E652077696E646F77206973205A
:10716000616C72656179206578697374210D0A001C
:10717000C41300206554696D655A6F6E6520776988
:107180006E646F77732069732063726561746564E0
:10719000216857696E203D203078253034580D0A1B
:1071A0000000000001A501086554696D655A6F6E05
:1071B000652077696E646F772063616E2774206243
:1071C000652063726561746564210D0A000000002A
:1071D0002DE9FF41044620250F46284607F0CCFC48
:1071E00030B119A00FF096F8002004B0BDE8F0818E
:1071F00034200021039002220094CDE901214FF4B4
:10720000A073F02208460FF0E9FB1A4E040016D0D6
:10721000014619A00FF07EF8204605F08DF92030C8
:107220003060048047600572FDF7F8FC1F49204676
:1072300010F02CF90121204610F024FE02E01CA0E1
:107240000FF068F83068D0E765546F756368436184
:107250006C6962726174652077696E646F7720690A
:107260007320616C72656179206578697374210D92
:107270000A000000BC13002065546F756368436109
:107280006C6962726174652077696E646F777320D0
:1072900069732063726561746564216857696E2043
:1072A0003D203078253034580D0A0000B5A1010882
:1072B00065546F75636843616C69627261746520BF
:1072C00077696E646F772063616E27742062652032
:1072D00063726561746564210D0A00002DE9FF4148
:1072E000044601250F46284607F046FC30B11CA095
:1072F0000FF010F8002004B0BDE8F081002010F07D
:10730000E7F828200021039002220094CDE9012112
:10731000C300F02208460FF061FB0446042010F081
:10732000D7F8184EB4B1214617A00EF0F3FF20464F
:1073300005F002F920307060048047600572FDF7A7
:107340006DFC1C49204610F0A1F80121204610F0E8
:1073500099FD02E018A00EF0DDFF7068CBE7000099
:10736000654D61696E2077696E646F77206973205F
:10737000616C7265616479206578697374210D0AA6
:10738000000000005C130020654D61696E20776984
:107390006E646F77732069732063726561746564CE
:1073A000216857696E203D203078253034580D0A09
:1073B00000000000798E0108654D61696E207769D3
:1073C0006E646F772063616E27742062652063723C
:1073D0006561746564210D0A000000002DE9FF411C
:1073E00004462C250F46284607F0C6FB30B11BA0EB
:1073F0000EF090FF002004B0BDE8F0814420002191
:10740000039002220094CDE901214FF4A073F022F1
:1074100008460FF0E3FA1C4E040016D001461BA0EC
:107420000EF078FF204605F087F8203030600480A9
:1074300047600572FDF7F2FB2149204610F026F85F
:107440000121204610F01EFD02E01EA00EF062FF9A
:107450002749012008723068CDE700006557696E42
:10746000557365724D616E6167652077696E646FF3
:107470007720697320616C72656179206578697322
:1074800074210D0A00000000101600206557696E77
:10749000557365724D616E6167652077696E646FC3
:1074A000777320697320637265617465642168571E
:1074B000696E203D203078253034580D0A000000D8
:1074C000C1B701086557696E557365724D616E618C
:1074D00067652077696E646F772063616E2774201B
:1074E00062652063726561746564210D0A000000A5
:1074F000F4B300202DE9F041DFF8E88005460E46A0
:10750000D8F83900FCF71EF90446304608F08CFC28
:107510002146FBF779FFFCF751F9854201D20020A3
:107520003CE0D8F81970304CAF421BD90026D8F88F
:107530003900FCF707F980463846FCF703F9414665
:10754000FBF75CFF01462046FBF790FF0446284608
:10755000FCF7F8F84146FBF751FF2146FBF754FFD3
:10756000314619E03846FCF7EDF80646D8F8250014
:10757000FCF7E8F83146FBF741FF01461B48FBF7F3
:1075800075FF07462846FCF7DDF83146FBF736FF66
:107590003946FBF739FF2146FBF7DEFE00F054F8D1
:1075A00013490446884215DB1248007808B10228C6
:1075B00010D14FF07E55104E2046FBF71FFF31468D
:1075C000FBF722FF2946FBF7C7FE01462046FBF7E3
:1075D0001BFF04460948844200DA00242046BDE827
:1075E000F081000095B600200000A041000070422C
:1075F0000000644231110020008061390000C04069
:1076000010B5022903D80C31521EC9B2D2B24B1C9C
:1076100000EB410003EB43030524B3FBF4F36421C7
:10762000B2FBF1F11844104400EB9200401A4FF401
:10763000C871B2FBF1F10844072190FBF1F201FBA4
:107640001200401CC0B210BD70B505460F4800784E
:10765000012818D10E48C07DA0F14E012C2912D866
:10766000FCF786F800220B4BFCF7E0F806460C46C8
:107670002846FCF782F932462346FBF7E8FFBDE8CF
:107680007040FCF7BDB9284670BD00003E000020E8
:1076900025B6002000005940D0F81910184A1144AE
:1076A000184A914208D2164AD0F825105242914207
:1076B00002D3154A914221D91449C0F819108A0001
:1076C000C0F8252040F65843C0F80730C0F8311004
:1076D000C0F835200E49C0F81D100E49C0F8291019
:1076E0000D49C0F80B101121C17408210175012149
:1076F00041750C2181750021C1750176704700002C
:10770000C0BDF0FF4181BA0180C3C90130F6290034
:107710000000A0410000A0420000204210B5044635
:107720000D4A0021FDF7B8FF0C4A01212046FDF764
:10773000B3FF6FF07F4200212046FDF7EFFF4FF6C9
:10774000FF7201212046FDF7E9FF2046BDE8104009
:107750000021FDF7B3BF00005E6D8300323C500096
:1077600070B5846888B0064600257CB300201BF005
:1077700053FC06F099F93222214605A805F054FD84
:1077800000200221CDE90110CDE90304B6F904007F
:107790000090BDF91A00BDF91610F022401AC31C62
:1077A000C0F11D00411000200DF0B4FA0546002084
:1077B0001BF032FC014628460DF003FB0549284624
:1077C0000DF02EFB022128460DF01DFB08B02846C7
:1077D00070BD0000500047001FB54FF4B872022181
:1077E0000323CDE90003CDE902121A2346224FF408
:1077F00092710220FDF7F4FE044601201BF00CFC00
:1078000001462046FDF762FF2046FFF787FF04B0E0
:10781000204610BD1FB54FF4B97202210323CDE9F4
:107820000212CDE9000350221A234FF49271104640
:10783000FDF7D6FE044603201BF0EEFB0146204672
:10784000FDF744FF2046FFF769FF04B0204610BD56
:1078500030B587B01E4806F027F90A221DA105A8F9
:1078600005F0E2FC00200222CDE901201A4D19A109
:10787000CDE903012868B0F900000090BDF91A00B5
:10788000BDF91610BDF91420401ABDF91810431C9B
:107890008C1AA0F23F1040424110C4F1E00004F104
:1078A000100240100DF036FA296848844FF47F0129
:1078B0000DF0B6FA28680649B0F922000DF081FAF9
:1078C00028680221B0F922000DF09DFA07B030BD02
:1078D000AC5804082D2D0000741300201FB540F291
:1078E000711202210323CDE90003CDE902121A230C
:1078F00046224FF49271A820FDF772FE0446022042
:107900001BF08AFB01462046FDF7E0FE2046FFF70C
:1079100005FF04B0204610BD10B590B004464FF4EA
:107920000172402168460CF05FFF50B14022694669
:107930002046FBF769FC2046FFF7AEFE012010B0A1
:1079400010BDF02004F8010B104840F658420168C1
:1079500021608188A180C4F806200068C4F8120064
:10796000E1820B48A0618100616220636163094884
:10797000C4F80A000848E0610849A1622062E16297
:107980000748A063002084F83C00D8E7E5100020F9
:1079900030F62900000020420000A0410000A04273
:1079A000A086010010B54FF4017240210CF045FF94
:1079B000012010BD1CB504464FF40472082168462E
:1079C0000CF012FF18B10098206001201CBD0020AF
:1079D00020601CBD1CB5006800904FF404720821A3
:1079E00068460CF02AFF01201CBD000010B588B0CD
:1079F000044640F20622202168460CF0F5FE38B11C
:107A0000202269462046FBF7FFFB012008B010BD8D
:107A1000F020207008A1601CFBF788FC07A104F18E
:107A20000A00FBF783FC0120C4F806000020C4F81C
:107A30001900A4F81D00E9E7453800004561676CAE
:107A4000652D380010B540F2062220210CF0F5FE1D
:107A5000012010BD10B5A2B0044640F211228321CE
:107A600068460CF0C1FE38B1832269462046FBF718
:107A7000CBFB012022B010BD83212046FBF7EBFB9E
:107A80000020F7E710B540F2112283210CF0D5FE5B
:107A9000012010BD1FB504464FF402721021684644
:107AA0000CF0A2FE38B1102269462046FBF7ACFB71
:107AB000012004B010BDF02004F8010B0A2024F8C6
:107AC0000E0B002004F80C0920606060A060F0E755
:107AD00010B54FF4027210210CF0AFFE012010BD62
:107AE00010B50CF0EFFE00F003FE494800F08AFDEF
:107AF000484800F007FD484800F06CFB4748FFF796
:107B0000C9FF4748FFF708FF464800F04BFD4648CD
:107B1000FFF76CFF454800F0A1FC454800F0FAFA79
:107B20004448FFF797FF444800F0BCFB41488330CE
:107B300000F090FB414800F0C0FD4048001F00F0FD
:107B4000A1FD3E480838FFF735FF3DA00EF0E2FBEF
:107B50004FF4807148A00EF0DDFB20214CA00EF008
:107B6000D9FB402151A00EF0D5FB102156A00EF0FC
:107B7000D1FB40215CA00EF0CDFB40F2811163A04F
:107B80000EF0C8FB20216CA00EF0C4FBA42172A053
:107B90000EF0C0FB294C77A00C3CE1680EF0BAFB5C
:107BA0002448833001687AA00EF0B4FB84A0616899
:107BB0000EF0B0FBA068FBF7E0FE02460B4688A083
:107BC0000EF0A8FB164C8FA0D4F8071009340EF065
:107BD000A1FB216997A00EF09DFBE169A2A00EF028
:107BE00099FB0C4CADA0D4F812100EF093FBD4F816
:107BF0000E10B5A00EF08EFB11A00EF08BFBBC4852
:107C000061780170042901D90121017010BD0000C3
:107C100025B6002045B6002085B6002007D80020F4
:107C200095B60020D5B6002056B8002076B80020C2
:107C30001AB90020FDB40020FDB30020241100205B
:107C40002A2A2A2A2A2A2A2A2A2A2A2A2A2A2A2A94
:107C50002A2A2A2A2A2A2A2A2A2A2A2A2A2A2A2A84
:107C60002A2A2A2A2A2A2A2A2A2A2A2A2A2A2A2A74
:107C70002A2A2A2A2A0D0A0073697A656F662873F0
:107C80005265636F726429203D2025640D0A00004F
:107C900073697A656F662873546573745061726195
:107CA0006D29203D2025640D0A00000073697A6566
:107CB0006F66287353797374656D506172616D29B5
:107CC000203D2025640D0A0073697A656F6628736C
:107CD0005072696E746572506172616D29203D2029
:107CE00025640D0A0000000073697A656F662873C9
:107CF000416C6343616C6962726174696F6E50615B
:107D000072616D29203D2025640D0A0073697A6532
:107D10006F66287354656D70657261747572654322
:107D2000616C6962726174696F6E506172616D2914
:107D3000203D2025640D0A0073697A656F662873FB
:107D40004465766963654944436F6E6669672920B7
:107D50003D2025640D0A000073697A656F662873FB
:107D6000536572766572506172616D29203D2025E0
:107D7000640D0A00675F6E546F74616C54657374B0
:107D8000436F756E746572203D2025640D0A0000F6
:107D9000675F735265636F7264496E666F724D619F
:107DA000702E6E546F74616C5265636F72647343AE
:107DB0006F756E746572203D2025640D0A00000009
:107DC000675F6E416C726561647955706C6F616458
:107DD000436F756E746572203D2025640D0A0000A6
:107DE000675F66546F74616C496E68616C65546955
:107DF0006D65436F756E746572203D20252E326669
:107E00000D0A0000675F73416C6343616C696272C5
:107E10006174696F6E506172616D2E6E5065656B35
:107E200043616C6956616C7565203D2025640D0ABF
:107E300000000000675F73416C6343616C696272AC
:107E40006174696F6E506172616D2E6E496E7465FA
:107E5000726772616C4C6F77506F696E74203D2051
:107E600025640D0A00000000675F73416C63436185
:107E70006C6962726174696F6E506172616D2E6EB1
:107E8000496E7465726772616C48696768506F69A2
:107E90006E74203D2025640D0A000000675F735357
:107EA000797374656D506172616D2E6E4175746F7A
:107EB000506F7765724F666654696D65203D202569
:107EC0006C640D0A00000000675F7353797374657A
:107ED0006D506172616D2E6E4175746F536C656586
:107EE0007054696D65203D20256C640D0A0000000A
:107EF0003E000020F0B55448524940F8011F81600F
:107F000001618161514941605149C16051494161FB
:107F10005149C161514901628162016381635049E4
:107F200041625049C162504941635049C16350495F
:107F300001648164016581654E4941644E49C164B3
:107F40004E4941654E49C165002101668166016760
:107F500081674C4941664C49C1664C4941674C496F
:107F6000C1674C4940F8801F8160016181614A49C5
:107F700040F8041F494981604949016149498161CB
:107F8000494940F81C1F816001618161001D47491A
:107F900040F8081B464C40F8084B464940F8101B77
:107FA000454940F8081C454940F8041C4160C1603F
:107FB0004161434D05604349816043490161434943
:107FC0008161434940F81C1F424A8160016181611F
:107FD00040F8042F404A8260404A0261404A826170
:107FE000404AC2614262C262426301623E4A8262A8
:107FF0003E4E06633E4F87633E4BC3634364C36498
:10800000436501648264066587653B49C1654166D5
:10801000C166416705663949816639490167394951
:108020008167C267C0F88420C0F88C20C0F8942013
:108030003549C0F8801040F8884F34498160344990
:108040000161F0BD000070C1D5B6002000001841EC
:108050000000C44100006A420000E542000020C167
:10806000000038410000E4419A9979429A99F1421E
:108070000000A0C0CDCC5C416666004266668842C6
:10808000CD4C0443CDCC7C4166660842CDCC8E42BB
:108090009A1908430000A04033338741CDCC0E42EB
:1080A0003333944233B30B43000020416666924160
:1080B0009A991542CDCC9542CDCC0E43000070412B
:1080C00000009841333319429A999B4266E6134364
:1080D0000000A0419A999D4133331D4200009F4208
:1080E000008015430000C841000020420000A0426B
:1080F000000016430000F04100000C42000018424E
:10810000000098420000144333339741666697425B
:108110000000124310B5044607481222214601F020
:1081200007FF607CA52805D012212046FBF793F8B5
:10813000002010BD012010BD0030220070B5084D98
:108140000446284601F036FFA5206074122221461D
:10815000284601F085FF002800D0012070BD0000F6
:108160000030220070B50546A520A0B085F87F003C
:108170000024A0B2694600F019F810B1641C202C4C
:10818000F7D3094E14B9304601F014FF4FF4805173
:1081900006EBC410B1EBC41F03D98022294601F0BD
:1081A0005FFF20B0012070BD0020210010B50C46FB
:1081B0000749802201EBC010214601F0B9FE94F876
:1081C0007F00A52801D0002010BD012010BD0000B7
:1081D000002021001FB5044640F20322102168460A
:1081E0000CF002FB38B1102269462046FBF70CF870
:1081F000012004B010BDF020207001206070A0703C
:108200000020C4F80300C4F80700C4F80B00F0E72E
:1082100010B540F2032210210CF00FFB012010BD1D
:108220000A4810B50068817D00290DD000218175B4
:108230000CF048FB064800F06FF8054800F032F8F3
:10824000BDE810400CF03CBB10BD00000811002040
:10825000FDB300201FB5044640F20D2210216846F0
:108260000CF0C2FA38B1102269462046FAF7CCFF6A
:10827000012004B010BD002020606060F9E710B557
:1082800040F20D2210210CF0D8FA012010BD4FF45D
:10829000111210B502EB00204FF4807201F048FE7D
:1082A000012010BD70B505460F48FFF7D3FF40B958
:1082B0000EA00EF02FF8164801F07CFE0A48FFF7DA
:1082C000DEFF094C206820B12946401EFFF7DFFF82
:1082D00004E04FF480712846FAF7BDFF20680D498D
:1082E000401C0860012070BD80B50020457261739C
:1082F0006520675F735265636F7264496E666F7263
:108300004D617020736563746F72210D0A00000067
:1083100000D020001811002070B504462A482B49CF
:10832000A2B0006801EB002501F0FCFDB5EB003FB9
:1083300005D927A00DF0EEFF002022B070BD280562
:1083400005D12FA00DF0E6FF284601F033FE364E92
:108350003068401C30603046FFF791FF3168334889
:108360000DF0D8FF4FF480722146284601F078FEC8
:108370000028E2D02E2204F138016846FAF744FFC3
:108380000F2204F194010DF12E00FAF73DFF1722A0
:1083900004F1D1010DF13D00FAF736FF2E2204F170
:1083A000A30115A8FAF730FF8222A6F183016846DF
:1083B000FAF79BFF30B16846FFF764FBA6F1830034
:1083C000FFF748FB0120B8E718110020003F240008
:1083D00044617461205265636F7264204661696C08
:1083E000656421417265616479207265616368200A
:1083F0006D617820736563746F72210D0A0000004F
:108400004E6565642065726173652063757272657F
:108410006E7420736563746F722873617665207360
:10842000756229210D0A000080B500209C1E0608F7
:1084300010B5074801F0BEFD4FF4041001F0BAFD7D
:108440000448FFF72FFFBDE810400348FFF7B2BA1A
:1084500000D02000FDB300201C11002030B5A9B0D1
:10846000044640F20722A42168460CF0BDF938B159
:10847000A42269462046FAF7C7FE012029B030BD84
:10848000F12020700CA1601CFAF750FF0EA104F13E
:108490001100FAF74BFF41F66470A4F8390000258B
:1084A00084F83B500EA104F13F00FAF73FFFA58787
:1084B00084F83E500020E1E73232312E31322E373F
:1084C000362E3430000000007777772E62726163B9
:1084D00061756469742D6770732E636F6D000000A1
:1084E000434D494F5454534A544A435A442E4845E5
:1084F0000000000010B540F20722A4210CF09DF905
:10850000012010BD70B590B0044640F20222402117
:1085100068460CF069F938B1402269462046FAF7FE
:1085200073FE012010B070BDF0202070012666702F
:1085300013A1A01CFAF7FAFE267364206073134897
:10854000C4F80E001248C4F812000025A575E6759F
:1085500032202076102104F11900FAF77CFE84F80D
:1085600029506585082084F82C0084F82D5084F863
:108570002E50102104F12F00FAF76DFE0020D1E7F4
:1085800032363731353336300000000020BF02006C
:10859000E093040010B540F2022240210CF04DF9A6
:1085A000012010BD70B50546084C094801F0E6FCF5
:1085B000A52803D0FFF79EFC002070BD40F2811279
:1085C0002946204601F0B4FC012070BD0050200077
:1085D000FF55200070B5094D0446284601F0EAFC1D
:1085E00040F281122146284601F03AFD002804D0CD
:1085F000A521034801F04CFD012070BD0050200072
:10860000FF55200030B589B0044640F201222021F8
:1086100068460CF0E9F80C2558B12022694620463E
:10862000FAF7F2FD607E0C2800D26576012009B0D1
:1086300030BDF02020700020607040F6980161800D
:1086400040F6B8316160094AA260094AE2602074CC
:1086500064226274C4F812100121A175E27503212D
:1086600021766576A076A083A077E0E70000A041A0
:108670000000A04210B540F2012220210CF0DDF8EC
:10868000012010BD1CB5044640F20E2208216846A8
:108690000CF0AAF818B10098206001201CBD002041
:1086A00020601CBD1CB50068009040F20E2208211D
:1086B00068460CF0C2F801201CBD1CB5044640F20F
:1086C0000F22082168460CF08FF818B1009820603E
:1086D00001201CBD002020601CBD1CB5006800905E
:1086E00040F20F22082168460CF0A7F801201CBDBB
:1086F0001FB50F4C0F4801F041FCAA2806D00E49C7
:10870000012009680876002004B010BD10226946D7
:10871000204601F00DFC6946002001AA05F0FAFA96
:10872000012002A903AA05F0F5FA0120ECE70000F8
:1087300000902000FF932000081100201FB50E4C70
:10874000204601F037FC6946002001AA05F0CEFA68
:10875000012002A903AA05F0C9FA102269462046A1
:1087600001F07EFC002804D0AA21044801F090FC0E
:10877000012004B010BD000000902000FF932000F5
:10878000104A10B55368002B07D01946B1F90040C4
:10879000844203D009690029F8D110BD0029FCD01A
:1087A0000869994206D1002110B15060C16010BD26
:1087B000516010BD08B1CA68C2600869C968086123
:1087C00010BD00006413002070B50D4CA078002887
:1087D00015D040F2DC510B48FAF73DFD094803F093
:1087E0004FF8094D288001206071064907A00DF05F
:1087F00091FD2988BDE8704008A00DF08BBD70BDCB
:10880000F4B300201ABF0020BC110020686561721B
:1088100074726174653A25730D0A00006C656E67A9
:1088200074683A25640D0A002DE9F04F0B68FF4D7E
:108830008BB00C460746FE4EFEA1307855F820005E
:10884000D0F8E42138461DF031FE3846FAF738FDFD
:108850000744E17BA07BCDE900013078637BF8A180
:1088600055F8200003F5FA63D0F8E82138461DF0EA
:108870001DFE3846FAF724FD0744A17C607CCDE953
:1088800000013078237CF3A155F82000D0F8EC21CA
:1088900038461DF00BFE3846FAF712FD07443078D3
:1088A00094F9042055F82000D0F8F01138461DF056
:1088B000FDFD3846FAF704FD07440A2007F8010BCE
:1088C000E07C40B101280DD0032811D002281BD034
:1088D000FA281FD023E03078E3A155F82000D0E932
:1088E0007D230DE0307855F82000D0F8FC3104E00D
:1088F000307855F82000D0F80032D0F8F421DAA111
:1089000038461DF0D3FD0AE0307855F82000D0F845
:10891000042200E0D6A2DAA138461DF0C7FD384691
:10892000FAF7CEFC0744D4F80500FBF726F8E27C02
:108930000DF1080A032A4FF0000201D0D14B00E0EC
:10894000D14BFBF745F820D23E208DF80800E07CA3
:1089500003284FF0000001D0CA4900E0CA49FBF7E4
:108960004FF8B4F81520217D06F0B4FA217D0023DC
:108970000AF1010206F0DCFA207D07F017FA0090F8
:10898000207D04280CD9C1A20BE0B4F81520217D6C
:10899000D4F8050006F09EFA217D002302AAE9E73B
:1089A000BCA202ABBDA138461DF080FD3846FAF7E7
:1089B00087FC0744E07C02283ED0D4F80500B94982
:1089C000884206DA3078A8A155F82000D0E9822341
:1089D00016E0B44949420144B1F1807F05D23078B4
:1089E00055F82000D0F8103207E0AF4988420ADB82
:1089F000307855F82000D0F81432D0F808229AA127
:108A000038461DF053FD3846FAF75AFC07443078D3
:108A100004F1380394A155F82000D0F81C22384600
:108A20001DF044FD3846FAF74BFC0744D4F8190012
:108A300010F0FF4F0BD105E0307855F82000D0F84A
:108A4000A032DAE7D4F81D1011F0FF4F7DD010F1FD
:108A5000FF4F01D380F000408046FAF796FE814632
:108A6000FAF767FE4146FAF7CCFC9049FAF7CCFCDE
:108A70008046FAF78AFE8346FAF75BFE4146FAF72C
:108A8000C0FC8B49FAF7C0FCFAF77FFE59464FF05D
:108A9000640B5A4699FBF2F399FBFBF2CDE9001007
:108AA0000BFB139383A102A81DF000FDCDF800A0DD
:108AB000D4F8190010F1FF4F307855F8200002D299
:108AC000D0F8243201E0D0F8283230787DA155F872
:108AD0002000D0F8202238461DF0E8FC3846FAF78E
