:020000040800F2
:100000007827002021010008290100082B010008A1
:100010002D0100082F010008310100080000000038
:100020000000000000000000000000003301000894
:10003000350100080000000037010008B50E000877
:100040003B0100083B0100083B0100083B010008A0
:100050003B0100083B0100083B0100083B01000890
:100060003B0100083B0100083B0100083B01000880
:100070003B0100083B0100083B0100083B01000870
:100080003B0100083B0100083B0100083B01000860
:100090003B0100083B0100083B0100083B01000850
:1000A0003B0100083B0100083B0100083B01000840
:1000B0003B0100083B0100083B0100083B01000830
:1000C0003B0100083B0100083B0100083B01000820
:1000D0003B010008250F0008710F0008B10F000850
:1000E0003B0100083B0100083B010008DFF80CD091
:1000F00000F058FA004800474920000878270020FF
:10010000EFF30980704780F309887047EFF30880A8
:10011000704780F30888704740BA7047C0BA70478C
:100120000648804706480047FEE7FEE7FEE7FEE791
:10013000FEE7FEE7FEE7FEE7FEE7FEE7C50E000886
:10014000ED00000840EA01039B0703D009E008C95D
:10015000121F08C0042AFAD203E011F8013B00F88C
:10016000013B521EF9D27047D2B201E000F8012BD8
:10017000491EFBD270470022F6E710B513460A4627
:1001800004461946FFF7F0FF204610BD30B504467F
:100190000020034600E05B1C934203D2E05CCD5C90
:1001A000401BF8D030BD30B50B4601460020202260
:1001B000012409E021FA02F59D4205D303FA02F574
:1001C000491B04FA02F52844151EA2F10102F1DCD4
:1001D00030BD2DE9F05F0546002092469B468846DB
:1001E0000646814640241BE02846414647462246B3
:1001F00000F0F9F953465A46C01A914110D31146FE
:100200001846224600F0E0F92D1A67EB01084F4628
:1002100022460120002100F0D7F917EB00094E41DA
:10022000201EA4F10104DFDC484631462A4643463D
:10023000BDE8F09F2DE9FE4F804681EA0300C00F24
:100240000C46009021F0004123F00045B8EB02007D
:10025000A94105D24046214690461C460B4602461F
:1002600023F00040104347D0270DC7F30A00C3F323
:100270000A510290401A019040286BDAC3F3130030
:1002800040F4801B0098924620B10023D2EB030A71
:1002900063EB0B0B01985946C0F14002504600F049
:1002A00093F906460D4650465946019A00F0ABF9BF
:1002B00010EB08006141002487EA115284EAE773D9
:1002C0001A4340D0009A62B3019A012A4FEA0752BA
:1002D00015DC001B61EB02014FF0004202EA0752FD
:1002E000CDE90042001C41F5801132462B4600F05A
:1002F000ABF903B0BDE8F08F40462146F9E7001B9B
:1003000061EB0201001C41F5801300185B412018CD
:10031000A2F5001747EB030140EAD570B6196D410D
:1003200011E06D084FEA360645EAC0754FEA0752FC
:10033000001B61EB0201001C41F5801149084FEAE6
:1003400030000019514132462B4603B0BDE8F04F52
:1003500000F06BB90098012240000023D0EB0202AC
:1003600063EBE073009821464FEAE074B8EB0000BD
:1003700061EB0401E9E783F000435BE781F00041B2
:1003800058E72DE9FE4F81EA030404F0004421F010
:10039000004100944FF0000B23F0004350EA0104A9
:1003A0005ED052EA03045BD0C3F30A54C1F30A558A
:1003B0002C44A4F2F3340194A0FB0254C1F31301C2
:1003C00041F48011C3F3130343F4801301FB02448F
:1003D00000FB034E840A970A44EA815447EA835794
:1003E000A4FB076802958D0A05FB07854FEA932C4D
:1003F00004FB0C542705029D4FEA065847EA1637BE
:10040000B5EB08056EEB070C870E920E47EA8117D5
:1004100042EA8312A7FB0201B6EB0B0164EB000476
:100420002B0D43EA0C335E1844EB1C50DA46514660
:10043000E7FB0201C5F313044FEA0B3343EA1453FD
:100440004FEA0432019C43EA0603A4F10C0402942F
:10045000009CCDE900B400F0F7F803B0BDE8F08FE0
:1004600000200146F9E72DE9F04D81EA030404F08C
:10047000004B21F0004514464FF0000A23F00041E4
:1004800050EA050220D054EA01021DD0C5F30A57F4
:100490000246C5F31303C1F31300C1F30A5640F437
:1004A000801543F48013A7EB0608101BD64608F20C
:1004B000FD3873EB050002D308F1010801E0921842
:1004C0005B41B8F1000F03DA00200146BDE8F08D72
:1004D00000204FF48011064684460EE0171B73EB94
:1004E000050705D3121B63EB050306434CEA010C19
:1004F00049084FEA300092185B4150EA0107EDD1FC
:1005000052EA030012D082EA040083EA050108439C
:1005100005D0101BAB4106D20122002306E00022C9
:100520004FF0004302E06FF0010253101AEB060097
:100530004CEB085110EB0A0041EB0B01BDE8F04D0C
:1005400000F073B8C1F30A52C1F3130140F2FF3354
:1005500041F480119A4202DA00200146704740F2CD
:1005600033439A42A2F2334202DC524200F03BB8DB
:1005700000F02AB830B5041E71F1000404DB4FF01E
:100580000044404264EB0101141E73F1000405DBDA
:100590001C464FF00043524263EB0403994208BFEC
:1005A000904230BD064C074D06E0E06840F0010384
:1005B00094E8070098471034AC42F6D3FFF79AFD51
:1005C000F820000818210008202A04DB203A00FA4D
:1005D00002F1002070479140C2F1200320FA03F39A
:1005E000194390407047202A04DB203A21FA02F098
:1005F0000021704721FA02F3D040C2F1200291405D
:10060000084319467047202A06DBCB17203A41FAE7
:1006100002F043EAE07306E041FA02F3D040C2F18F
:100620002002914008431946704710B5141E73F11B
:10063000000408DA401C41F1000192185B411A43A2
:1006400001D120F0010010BD2DE9F04D92469B46EE
:1006500011B1B1FA81F202E0B0FA80F22032904694
:10066000FFF7B2FF04460F4640EA0A0041EA0B01D9
:1006700053465A46084313D0114653EA010019D095
:10068000C8F140025046FFF7AEFF05460E46504601
:1006900059464246FFF798FF084305D0012004E081
:1006A00020463946BDE8F08D0020054346EAE07655
:1006B0002C4337430A986305E40AA0EB08000022A4
:1006C000FD0A44EA47540A3002D500200146E9E712
:1006D000010510196941DDE9084500196941BDE8C6
:1006E000F04DA2E70248018841F001010180704706
:1006F000346C004008B5024908440090008808BDE9
:10070000006C004008B5024A10440090016008BD2A
:10071000006C004070B501214FF0C05000F096FA17
:10072000012000F079FAFFF7DDFF1020FFF7E2FF6C
:1007300001240D4D1E26A0F51A41553908D128680F
:1007400080F874420470C4701020FFF7DBFF6E6005
:100750004FF48051054800F061F9002802D1286863
:1007600004706E6070BD000020000020000C01408D
:1007700000B58BB02C220D496846FFF7E3FC06223A
:100780000BA003A9FFF702FD38B904220AA00DF15E
:100790002601FFF7FBFC002805D00948002100686E
:1007A0008170012101700BB000BD0000003800080D
:1007B0004561676C6538000041414141000000001F
:1007C000200000200149C86070470000002002405E
:1007D00070B505464FF43026304600F07DF8042809
:1007E00011D1094C206940F0020020616561206947
:1007F00040F040002061304600F06EF8216941F67B
:10080000FD721140216170BD0020024008490420A2
:10081000CA68D20701D001207047CA68520701D5C3
:1008200002207047C968C906FBD503207047000045
:10083000002002400248016941F0800101617047D7
:100840000020024004490A6822F010020A600A6887
:1008500002430A6070470000002002402DE9F84181
:10086000064600204FF4005700900D46384600F031
:1008700033F8042816D10C4C206940F001002061A7
:100880003580B846384600F027F8BF1E042806D148
:10089000B61C280C00963080404600F01DF82169F7
:1008A00039402161BDE8F88100200240034A116807
:1008B00001F0380101431160704700000020024040
:1008C000034802494160034941607047230167457D
:1008D00000200240AB89EFCD00B50346FFF796FF3D
:1008E00003E000BFFFF792FF5B1E012803D0002B3F
:1008F00000D1052000BD002BF4D1FAE7064841687D
:10090000491C4160642906DB0021416003480168FD
:1009100081F4005101607047140000200C14014064
:10092000F0B5CA78002502F00F03D20601D58A7807
:1009300013430A784FF00F0E12F0FF0F4FF0010231
:100940001CD004680F8802FA05F63740B74211D16F
:100950004FEA850C0EFA0CF724EA070703FA0CF4A9
:100960003C43CF78282F02D0482F02D002E04661C6
:1009700000E006616D1C082DE4D304600C88FF2C98
:100980001ED944685FF0000606F1080702FA07F571
:100990000F882F40AF420FD14FEA860C0EFA0CF7AA
:1009A000BC4303FA0CF73C43CF78282F00D14561B4
:1009B000CF78482F00D10561761C082EE4D344601F
:1009C000F0BD0000F0B5144C002801DAE36900E046
:1009D0006368420D120185B2C0F301579540C0F320
:1009E0000346032F05D0C2020AD50322B240934327
:1009F00007E023F07062636823F07063636002E0D5
:100A0000AB4343F0706201B12A43002801DAE2618E
:100A1000F0BD6260F0BD0000000001400246002011
:100A200092680A4200D001207047000001488068A7
:100A3000704700001400002038B54FF40050ADF8A6
:100A4000000010208DF8030001208DF80200694697
:100A50001E48FFF765FF4FF48050ADF800000420FA
:100A60008DF8030069461A48FFF75AFF00F032FE7E
:100A7000184C40F277212068FFF77DFB20680021A9
:100A80004170017014490988802902D84FF48062AE
:100A900001E04FF40062C2608902816033220F4995
:100AA00000F24120FFF74EFB206890F841125A29CE
:100AB00004D0332100F24120FFF75DFB2068B0F83D
:100AC0006D12818290F87312817038BD001401405C
:100AD000000C014020000020E0F7FF1F0028000864
:100AE00010B5012000F04EF9212000F021F9002876
:100AF000FAD01020FFF7A6FE0220FFF7D7FE002055
:100B000000F036F9002000F043F9002000F04AF927
:100B10004FF46011002000F055F9012000F04CF96D
:100B2000392000F005F90028FAD0022000F054F92D
:100B300000F016F90828FBD110BD38B500214FF0A0
:100B4000006000F05FF84FF4C06000F051F825201D
:100B50008DF8000000248DF801408DF80240012539
:100B60008DF80350684600F011F827208DF800003A
:100B70008DF80240684600F009F826208DF8000044
:100B80008DF80250684600F001F838BD70B50F23AB
:100B9000C47801780122F4B1144C2468457804F437
:100BA000E064C4F5E064240AC4F10406E3408478F8
:100BB000B5401C402C4301F1E021230181F80034B1
:100BC000007800F01F018A404009800000F1E02019
:100BD000C0F8002170BD01F01F008240480980006C
:100BE00000F1E020C0F8802170BD00000CED00E0B5
:100BF0000249084302490860704700000000FA05F6
:100C00000CED00E0024A11400143024801607047C8
:100C100080FFFF1F08ED00E00149086270470000F7
:100C200000000E422DE9F0410746042015460E460D
:100C3000002407E0301901683819FFF70FFE042877
:100C400002D1241DAC42F5DBBDE8F081044A002945
:100C5000D16901D0014300E08143D16170470000B8
:100C600000100240044A0029916901D0014300E0CC
:100C700081439161704700000010024010B50121CE
:100C80002C20FFF7EFFF01210846FFF7EBFFBDE83F
:100C9000104001210148FFF795BE0000000230001E
:100CA00030B51F494A6812F00C031E4A03D0042BCA
:100CB00001D0082B21D002604A680F231A4C03EAA6
:100CC0001212A35C0268DA4042604B68072505EA0D
:100CD0001323E35C22FA03F383604B6805EAD32312
:100CE000E35CDA40C2604968032303EA9131231FC1
:100CF000595CB2FBF1F1016130BD4A684B6802F406
:100D000070124FF0020413F4803F04EB924202D0C1
:100D10004B689B0301D5054B00E0024B5A43CAE7E1
:100D20000010024000127A000400002000093D007B
:100D30000246002053090949012B0BD0022B0BD08E
:100D4000D1F8241002F01F02012393400B4200D07F
:100D5000012070470968F5E7096AF3E700100240CF
:100D60000248406800F00C0070470000001002408C
:100D7000034A516821F0F0010143516070470000BF
:100D80000010024001490860704700000000424224
:100D9000034A516821F4E06101435160704700004B
:100DA0000010024003494A6822F4605242EAC0003F
:100DB0004860704700100240014908667047000013
:100DC00000004242034A5368084323F47C1318434B
:100DD0005060704700100240034A516821F003013F
:100DE000014351607047000000100240074901F1C3
:100DF0000C020B899854088940F6B832401C80B226
:100E00000881904201D3002008817047D40300205C
:100E100030B5012185B08803FFF724FF4FF400703F
:100E2000ADF8100003208DF8120018201F4C8DF82B
:100E3000130004A92046FFF773FD2015ADF810003C
:100E400048208DF8130004A92046FFF769FD002013
:100E5000ADF80400ADF80800ADF80C000C20ADF8BA
:100E60000A004FF4613000906014114CADF8060098
:100E70006946204600F00EF90121204600F0C1F835
:100E800040F2255501222946204600F0EAF829467D
:100E9000204600F0B0F84021204600F0A9F840219B
:100EA000204600F0B8F805B030BD00000008014051
:100EB0000038014002488168491C8160FFF71EBD6F
:100EC00014000020704710B5FFF70AFEFFF7D6FEAA
:100ED000BDE81040FFF731BE30B5104D85B000249D
:100EE000AC606846FFF7DCFE0098286000984FF47D
:100EF0007A71B0FBF1F0B0F1807F0CD220F07F412D
:100F00004FF0E020491E4161054AF02182F8141D8E
:100F100084610721016105B030BD0000140000208C
:100F20000FE000E010B5104C40F22551204600F0D3
:100F300079F8012816D1204600F002F9C0B2FFF777
:100F400055FF0A48006890F8761200290AD190F8F7
:100F50007512491CC9B280F875120A2902D90121FB
:100F600080F8761210BD00000038014020000020FB
:100F700010B50D4C40F22551204600F053F80128E1
:100F800011D10A48006890F876020028204603D064
:100F9000BDE8104000F0D4B800F0D2F8BDE8104031
:100FA000C0B2FFF723BF10BD004400402000002066
:100FB00010B50D4C40F22551204600F033F80128C1
:100FC00011D10A48006890F876020028204603D024
:100FD000BDE8104000F0B4B800F0B2F8BDE8104031
:100FE000C0B2FFF703BF10BD004800402000002042
:100FF000C943018070470A0A01219140C943018019
:1010000070470029818902D041F4005101E021F4A8
:101010000051818170470246002012880A4200D0A8
:101020000120704730B501F01F0201240025C1F3F3
:10103000421304FA02F2012B0FD0022B0FD0838A45
:101040004FEA11210088134204FA01F400EA040077
:1010500001D000B10125284630BD8389F0E7038A1D
:10106000EEE710B5C1F3421301F01F040121A140C6
:10107000012B07D0022B07D01430002A026805D0BC
:101080000A4304E00C30F8E71030F6E78A430260C8
:1010900010BD000030B50446008A85B00D464CF600
:1010A000FF710840E98801432182A1894EF6F310BF
:1010B0000140A8882A8910436A890A431043A08105
:1010C000A08A4FF6FF410840A9890143A1826846E2
:1010D000FFF7E6FD1948844201D1039800E0029829
:1010E000A189090400EBC00101EB0010296801D5BA
:1010F000490000E08900B0FBF1F06422B0FBF2F19E
:1011000009010B096FF018056B4300EB8300A389FD
:101110001D044FF0320306D503EBC000B0FBF2F024
:1011200000F0070005E003EB0010B0FBF2F000F068
:101130000F000843208105B030BD00000038014099
:101140008088C0F308007047C1F3080181807047B0
:101150002DE9F0418EB08846042844D1294D00275E
:101160008DF834702C6801262169D4F81E22914232
:101170003CD134216846FEF7FEFF5A208DF800006E
:101180002B2204F216210DF10100FEF7DBFFA08AED
:10119000ADF82C00D8F80000CDF82E008DF83260A4
:1011A00072B6FFF78DFB3420FFF70CFB164C204680
:1011B000FFF70EFB332269462046FFF733FDFFF7AA
:1011C00039FB62B611A000F09FFA01220DA9EC20B4
:1011D00000F024FA4FF4FA7000F028FF28688670B7
:1011E0000770FFF7C5FA0EB0BDE8F0818DF83460E6
:1011F00014A000F089FA01220DA9EC2000F00EFAEB
:10120000F1E70000200000200028000846696E6910
:10121000736820757067726164652C2073797374CC
:10122000656D2077696C6C207265626F6F742069E0
:101230006E203130306D73206C61746572210D0A3F
:101240000000000046696C6520636865636B737518
:101250006D206661696C6564283078253038582CBB
:101260006578706563743A20307825303858292CB9
:1012700020496E76616964207570677261646521CA
:101280000D0A00002DE9F05F5E4C40F6B8384FF0D3
:10129000010B04F6C8364FF4FA6A04F6C739002782
:1012A00004F5805597E057480C30085C491C8AB219
:1012B0006281424500D3678194F8C42B072A10D27B
:1012C000DFE802F00410162443637D00BC2808D137
:1012D00084F800B0A4F8C67BFFF7A8FB606084F830
:1012E000C4BB78E0FD2876D185F89A73022063E0CC
:1012F000B4F8C61B8855B4F8C60B401CA4F8C60B3E
:1013000085F89F7385F89E73032055E0B4F8C62BCB
:101310009055B4F8C62B521CA4F8C62B95F89E2302
:1013200072B1B5F89C2302EB002080B2A5F89C03B3
:10133000404502D340F2C5103AE020B304203BE020
:1013400085F89EB3A5F89C0345E0B4F8C61B885504
:10135000B4F8C60B401C80B2A4F8C60B95F89F23C6
:1013600010F809105045114485F89F1303D34FF42A
:10137000EE7000F08FF9B5F89C03401E0004000CDD
:10138000A5F89C0327D1052016E0B4F8C61B8855A4
:10139000B4F8C60B401C80B2A4F8C60B504505D269
:1013A00095F89F2310F80900824204D04FF4F4709E
:1013B00000F070F90FE0062084F8C40B0BE0AE28B3
:1013C00009D100F023F8FFF731FB0F4909684860A5
:1013D000277084F8C47B6189208981427FF463AFE0
:1013E000207800280CD0FFF721FB616801F57A71A5
:1013F000884205D9BDE8F05F4FF4FE7000F04AB9AD
:10140000BDE8F09FD40300202000002038B52A4911
:1014100091F8C90B91F8CA3B91F8C82B00EB032057
:1014200080B201F6C831012A0BD06A2A1ED06B2A7D
:1014300038D06C2A3BD0BDE8384011461FA000F0E0
:1014400063B902282DD1C878097900EB012080B258
:10145000A0F528411A3924D11A208DF800008A20DD
:101460008DF8010002226946812018E0C91C2B2852
:1014700006D0BDE8384001462B2218A000F044B940
:10148000214D00248DF8004028682B2200F2162000
:10149000FEF758FE2868012269460461EA2000F040
:1014A000BDF838BDBDE83840C91C00F02FB8BDE814
:1014B0003840C91CFFF74CBED4030020556E64654C
:1014C00066696E656420636F6D6D616E64203D209A
:1014D0003078253032580D0A000000006E4C656EE1
:1014E000203D2025642C2073697A656F6628704141
:1014F00070702D3E7346696C654465736329203DA9
:101500002025640D0A000000200000202DE9F8438A
:1015100005460020294E8DF800000F460868316806
:10152000D1F81A120C183420FFF74CF9DFF890802C
:10153000444534D33068806800F10060A0422ED367
:1015400072B6FFF7BDF921461EA000F0DDF80020BD
:101550002D1F316805E03B180A691B79401C1A44AD
:101560000A61A842F7DBC868B4FBF0F100FB114048
:1015700010B92046FFF72CF9444502D11A48FFF76D
:1015800027F9AAB2391D2046FFF74CFB042802D0E8
:1015900001208DF80000FFF74DF962B606E0022049
:1015A0008DF80000214611A000F0AEF80122694636
:1015B000EB2000F033F8BDE8F883000020000020A5
:1015C0000030000850726F6772616D20666C617345
:1015D000682061646472657373203D203078253023
:1015E0003858210D0A0000000028000850726F676B
:1015F00072616D20666C61736820616464726573EA
:1016000073206973206F7574206F662072616E6736
:1016100065203D20253038580D0A00002DE9F041A5
:10162000ADF58B6D0023BC258DF80050FD258DF8A0
:1016300001508DF802001C46ADF80320684606E014
:10164000CD5CC6182C445B1CA4B275719BB293424E
:10165000F6D31044AE214471D21D81716E46D7B2CB
:1016600000240B4D0EE000BF16F8048080212846B0
:10167000FFF7D1FC0028F9D041462846FFF764FD6A
:10168000641CA4B2BC42EFD30DF58B6DBDE8F081B4
:1016900000380140044A0021117082F8C41B014641
:1016A00002A000F031B80000D4030020556172742C
:1016B0005F526563696576655F4572726F725F48F8
:1016C000616E646C6528204C696E65203D20256440
:1016D000290D0A0010B54FF49D510948FEF74BFD46
:1016E00007490020087081F8C40B0649096881F891
:1016F000760281F87502BDE81040FFF789BB000053
:10170000D4030020200000200FB4074810B503AA1E
:10171000029900F00BF882B20349FF20FFF77EFF29
:1017200010BC5DF814FB00003000002037B51446F3
:101730000846064B6A46214600F0DCF80446694636
:10174000002000F06EFC20463EBD00002320000873
:1017500002E008C8121F08C1002AFAD1704770477A
:10176000002001E001C1121F002AFBD170470000D8
:101770002DE9FF5F82B00021DDE90430020DDDF8C4
:1017800040B0034318D044F61050A2F2FF32424357
:101790001514119801281FD0A5EB0B00401C5FEA1F
:1017A000000A4FF000064E4FDFF83891B046504621
:1017B00015D5CAF1000413E0119801244AA30128A9
:1017C00001D16FEA0B010298119AC0E90031C0E91A
:1017D000024206B0BDE8F09FCBF10000DFE704460F
:1017E0000021404A491842EB0450CDE9001012E0B4
:1017F000E00707D032463B4640464946FEF7C1FD6A
:101800008046894632463B4610461946FEF7B9FDEA
:1018100006460F466410002CEAD1DDE90401DDE93B
:101820000023BAF1000F06DAFEF7ABFD42464B4645
:10183000FEF7A7FD05E0FEF716FE42464B46FEF713
:1018400012FE04460E460022284BFEF793FE03D8F4
:101850004FF0FF30014607E00022254B204631467D
:10186000FEF7E8FCFEF76EFE102409E0002C0ADB10
:101870000A220023FEF7ADFC039B30321A55641E8A
:1018800050EA0102F2D1641C039AC4F1110314441A
:10189000119A012A03D0012208430DD10AE008431E
:1018A00004D000204FF0110B119072E7A3EB0B0551
:1018B0006D1E0DE05B4504DD4FF0000205F10105F2
:1018C00004E003DA4FF00002A5F10105002AECD094
:1018D00002981199C0E90231C0E9004579E700009A
:1018E000000014400000F03F300000000000F04312
:1018F0000000E03F2DE9FF4F95B09B468946064624
:1019000000250FE2252877D100242746F84A012137
:10191000059400E0044316F8013F203B01FA03F070
:101920001042F7D130782A2811D06FF02F03307889
:10193000A0F13002092A16D8059A44F0020402EBFD
:10194000820203EB42021044761C0590EFE759F83F
:10195000042B0592002A03DA504244F40054059007
:1019600044F00204761C30782E2816D116F8010FA8
:1019700044F004042A280DD06FF02F023078A0F133
:101980003003092B09D807EB870302EB4303C71881
:10199000761CF3E759F8047B761C30786C280FD05E
:1019A00006DC4C2817D068280DD06A2814D104E032
:1019B000742810D07A280FD10DE044F400140AE006
:1019C00044F4801401E044F440147278824202D15D
:1019D00004F58014761C761C307866280BD013DC56
:1019E000582877D009DC002875D04528F6D046283D
:1019F000F4D047281AD19DE118E0632835D0642837
:101A000079D0652812D195E1702873D008DC672859
:101A1000F1D069286FD06E280DD06F2806D1B5E0BF
:101A200073282CD0752875D0782874D05A46179909
:101A300090476D1C75E1C4F30250022809D00328B9
:101A40000DD0D9F8001004280DD00D6009F104095B
:101A500067E1D9F80010EA17C1E90052F6E7D9F8B2
:101A600000100D80F2E70D70F0E719F8041B8DF8F7
:101A7000001000208DF80100EA46012003E059F82B
:101A800004AB4FF0FF3061074FF0000102D40DE0CE
:101A900008F101018846B9420FDA8045F8DB1AF8EF
:101AA00008100029F4D108E008F1010188468142BC
:101AB000FADB1AF808100029F6D105985B46A0EB6E
:101AC000080721463846179A00F094FA284400EB9C
:101AD000080507E04DE029E10DE01AF8010B5A4630
:101AE00017999047B8F10108F7D25B46214638466E
:101AF000179A13E142E00A220092C4F302524FF017
:101B0000000A022A08D059F804CB032A4FEAEC71E4
:101B10000AD00DE029E02AE009F1070121F00702CF
:101B2000F2E802C1914609E00FFA8CFC4FEAEC7131
:101B3000042A03D14FFA8CFC4FEAEC71002907DA32
:101B40000A460021DCF1000C61EB02012D2202E0CB
:101B5000220504D52B228DF80420012203E0E207A0
:101B600001D02022F7E7904659E00A2102E0102236
:101B70000DE010214FF0000A00910BE010224FF011
:101B8000000A44F004040827009203E008224FF002
:101B9000000A0092C4F30252022A05D059F804CB7D
:101BA0000021032A08D009E009F1070121F007020A
:101BB000F2E802C1914605E01FFA8CFC042A01D12B
:101BC0000CF0FF0C4FF00008220728D5702806D033
:101BD000009B83F0100353EA0A0305D00EE0402275
:101BE0008DF80420012208E05CEA010206D03022D0
:101BF0008DF804208DF8050002229046009B83F0AA
:101C0000080353EA0A030AD15CEA010201D1620720
:101C100005D530228DF804204FF001087F1E58288A
:101C200004D034A003900EA802900DE036A0F9E78E
:101C300053466046009AFEF7CCFA84460398825CCD
:101C40000298401E029002705CEA0100F0D10298F6
:101C500006A9081A00F1200A600702D524F480348E
:101C600000E00127574502DDA7EB0A0000E0002055
:101C700000EB0A01009005984144401A0590E003EA
:101C800006D45B462146179A059800F0B3F905443F
:101C9000002706E001A85A46C05D179990476D1CC1
:101CA0007F1C4745F6DBE0030CD55B462146179ABF
:101CB000059800F09FF9054404E030205A46179932
:101CC00090476D1C0099481E00900029F5DC08E043
:101CD000029802995A460078491C02911799904738
:101CE0006D1CBAF10001AAF1010AF1DC65E1000006
:101CF00009280100303132333435363738396162E2
:101D000063646566000000003031323334353637A5
:101D100038394142434445460000000000F058F97C
:101D20000544761C307800287FF4ECAD19B02846C5
:101D3000BDE8F08F620700D4062709F1070222F000
:101D4000070CFCE80223E14603F000485FEA080CB8
:101D500002D00FF2702C0DE05FEA045C02D50FF2A6
:101D6000682C07E05FEAC47C02D00FF2602C01E02F
:101D7000AFF2700C4FF0FF3823F00043CDF850C0A5
:101D800065280CD006DC452809D046281DD04728F8
:101D90003DD13DE0662818D067287ED138E000218B
:101DA000112F01DB112000E0781CCDE9000106A90C
:101DB0000EA8FFF7DDFCDDE90F010E9A039100216B
:101DC000009207F1010A04914DE04FF000400097A6
:101DD000CDE9011006A90EA8FFF7CAFCDDE90F0244
:101DE00003920E9B11990022DDF80CA0009304923F
:101DF00011B9791C00EB010AB7EB0A0004D4C0F159
:101E0000FF3007F1010A0490AAEB0700019044E0BB
:101E1000012F00DA01270021112F01DD112000E040
:101E20003846CDE9000106A90EA8FFF7A1FCDDE9BF
:101E30000F010E9A0391002104910092BA462107E6
:101E40000CD40399514500DA8A46BAF1010F05DD39
:101E5000009AAAF10101515C302908D0B84202DA97
:101E600010F1040F06DA0121CDE9011015E0AAF105
:101E70000101E9E7002805DC049901440491AAEB7B
:101E8000000102E0411C514500DD8A460499401AD8
:101E9000401C01904FF000400290200704D40198AC
:101EA000504501DBCDF8048000208DF84F000298EA
:101EB0000DF14F07B0F1004F25D02B200E90029866
:101EC0004FF0020800280CDA404202902D200E90BC
:101ED00007E00A210298FEF766F93031029007F810
:101EE000011DB8F10001A8F10108F2DC02980028F8
:101EF000EFD1791E0E980870307800F0200040F085
:101F0000450007F8020D12A8C01B00F1070814983D
:101F1000007800B1012000EB0A01019801EBE071AB
:101F200005984144401A401E0590E00306D45B46E4
:101F30002146179A059800F05DF80544149800783A
:101F400018B15A46179990476D1CE00324D55B469B
:101F50002146179A059800F04DF805441CE00498B6
:101F6000002807DBDDE90301884203DD0098405CBF
:101F7000179901E0179930205A469047049805F1C7
:101F80000105401C04900198401E019004D12E20B0
:101F90005A46179990476D1CBAF10001AAF1010A3F
:101FA000DDDC05E017F8010B5A46179990476D1CC8
:101FB000B8F10001A8F10108F4DC5B462146179A4C
:101FC0000598ABE62D0000002B000000200000006B
:101FD0002DE9F041044600251E461746880404D426
:101FE00005E039462020B0476D1C641EF9D528460F
:101FF000BDE8F0812DE9F041044600251E469046DB
:10200000C80301D5302700E02027880404D505E067
:1020100041463846B0476D1C641EF9D52846BDE8D8
:10202000F0810A68531C0B601070704738B5044685
:10203000FEF7FCFCCDF80000FEF7F8FC0099214407
:102040008842F9D338BD0000FEF73DFFFEF744FF9C
:10205000FEF7ECFCC828FBD3FEF7EEFCFEF75AFBBC
:10206000FEF786FB19A0FFF74FFB204E4FF00057FD
:102070001F4D204CFFF706F928683040B84221D1A7
:1020800020688178F1B1007860B9FEF7CFFC642850
:1020900008D96868E060A0602868FEF73AF8A06890
:1020A0008047E7E7FEF7C2FC216862684B6802EBF5
:1020B000420CCCEBC21203EBC2029042DAD90020F0
:1020C0000870D7E701202168FAE70000456E7465C3
:1020D0007220626F6F746C6F61646572206D6169EC
:1020E0006E206C6F6F70210D0A0000000000FE2F43
:1020F0000030000820000020182100080000002007
:10210000300000005017000848210008300000206F
:1021100048270000601700080204060800000000BD
:102120000102030401020304060708090090D0031A
:1021300000000000000000005C0100201E00000004
:08214000000000000000000097
:04000005080000ED02
:00000001FF
