:020000040800F2
:10000000A8F1002045010008490100084B01000843
:100010004D0100084F0100085101000800000000D8
:100020000000000000000000000000005301000874
:10003000550100080000000057010008091B0108D5
:100040005B0100085B0100085B0100085B01000820
:100050005B0100085B0100085B0100085B01000810
:100060005B0100085B0100085B0100085B01000800
:100070005B0100085B0100085B0100085B010008F0
:100080005B0100085B0100085B0100085B010008E0
:100090005B0100085B0100085B0100085B010008D0
:1000A0005B0100085B0100085B0100085B010008C0
:1000B000051F01085B0100085B0100085B010008E7
:1000C0005B0100085B0100085B0100085B010008A0
:1000D0005B010008012501082925010851250108B7
:1000E0005B0100085B0100085B0100085B01000880
:1000F0005B0100085B0100085B0100085B01000870
:100100005B0100085B010008291F01085B01000872
:10011000D92401085B0100085B0100085B010008AD
:100120005B0100085B0100085B0100085B0100083F
:10013000DFF80CD000F076FE004800470D340208CE
:10014000A8F1002005480047FEE7FEE7FEE7FEE7CE
:10015000FEE7FEE7FEE7FEE7FEE7FEE73101000807
:1001600038B5D0E90221491E01EB410102EBC10182
:100170004268C1EB011102EB81010268C1EB011180
:1001800002EB8102D0E9043101EB410103EB810173
:100190003023A1F5527191FBF3F4174D6C4302EB40
:1001A000C41291FBF3F403FB141100921A2902DB31
:1001B000124B1A4400920C2291FBF2F3104C634351
:1001C000009C04EBC313009391FBF2F302FB1311A9
:1001D0000C4A08E0491E40F2A324535C6343009C90
:1001E00004EBC31300930029F4DC0146684600F0D9
:1001F000A1FC009838BD00003F0C0F0080510100A9
:1002000067C20300B0BA050810B5431A934209D279
:100210008318881803E010F8011D03F8011D521E11
:10022000F9D210BD40EA01039B0703D009E008C9D9
:10023000121F08C0042AFAD203E011F8013B00F8AB
:10024000013B521EF9D210BDD2B201E000F8012BE1
:10025000491EFBD270470022F6E710B513460A4646
:1002600004461946FFF7F0FF204610BD421E12F863
:10027000013F002BFBD111F8013B02F8013B002BA1
:10028000F9D1704730B505462A460B4612F8010BE6
:1002900013F8014B08B1A042F8D01CB1002802D0DD
:1002A0006D1CF1E7284630BD10B5044604E00B781C
:1002B00000F8013B03B1491C521EF8D2204610BD84
:1002C000421C10F8011B0029FBD1801A704710B5A1
:1002D000002200E0521C835C8C5CA34201D1002B05
:1002E000F8D1D8B2E1B2401A10BD30B504460020B2
:1002F000034600E05B1C934203D2E05CCD5C401BF4
:10030000F8D030BD10B5044600E0401C0378002B47
:10031000FBD100E0401C521E04D311F8013B0370D6
:10032000002BF7D100210170204610BD034611F8C3
:10033000012B00F8012B002AF9D11846704730B57F
:1003400005460020034600E05B1C934205D2EC5CAE
:10035000C85C201A01D1002CF6D130BD70B506461C
:1003600022F0E0FA046805460A220021304600F037
:1003700075FC2C6070BDF0B480EA0102D40F42001D
:10038000B2EB410F02D20246084611464A0042D063
:10039000C30DDDB2C1F3C752AD1A202D35DAC1F35A
:1003A000160141F4000204B15242C5F1200602FADE
:1003B00006F12A411044B3EBD05F23D0C4B1012D24
:1003C000A0EBC35009DCF0BC4FF0004202EAC3527C
:1003D000DBB200F5000000F082BC400000F180704C
:1003E00000EBC350A0F1807040EAD170490009E0F1
:1003F000490841EAC071A0EBC35000F50000400875
:1004000000EBC350F0BC00F061BC6142012202EB82
:100410004101001BF6E7F0BC704781F00041AAE7FC
:1004200080F00040A7E780EA010210B502F0004327
:10043000400022D04A001FD0010E01EB1261C0F330
:100440005600C2F3560240F4000042F40002A0FB42
:10045000022000047F39140400D0401C50EA1240EE
:1004600001D44000491EC2B20C0604EBD010401C5F
:100470004008802A02D003E0002010BD20F00100D7
:10048000002900DA0020184310BD30B480EA0102D0
:1004900002F0004530F0004221F0004013D090B14E
:1004A000C30DD40DC2F31601C0F31600E41A41F4D3
:1004B000000140F400027D34914201D3641C00E04D
:1004C0004900002C02DA30BC002070474FF40000D5
:1004D0000023914201D3891A034340084FEA4101A6
:1004E000F7D151B1914202D14FF0004105E002D263
:1004F0004FF0010101E06FF0010103EBC45028440B
:1005000030BC00F0E3BB420005D0C0F3C7525242FA
:10051000914201DC0020704700EBC15070472DE98B
:10052000FE4F804681EA0300C00F0C46009021F088
:10053000004123F00045B8EB0200A94105D2404636
:10054000214690461C460B46024623F000401043CD
:1005500047D0270DC7F30A00C3F30A510290401A8F
:10056000019040286BDAC3F3130040F4801B00981D
:10057000924620B10023D2EB030A63EB0B0B0198E8
:100580005946C0F14002504600F09DFA06460D461D
:1005900050465946019A00F0B5FA10EB0800614147
:1005A000002487EA115284EAE7731A4340D0009A84
:1005B00062B3019A012A4FEA075215DC001B61EB76
:1005C00002014FF0004202EA0752CDE90042001C4E
:1005D00041F5801132462B4600F0BEFB03B0BDE86A
:1005E000F08F40462146F9E7001B61EB0201001C39
:1005F00041F5801300185B412018A2F5001747EB66
:10060000030140EAD570B6196D4111E06D084FEA5B
:10061000360645EAC0754FEA0752001B61EB02013E
:10062000001C41F5801149084FEA30000019514182
:1006300032462B4603B0BDE8F04F00F07EBB009879
:10064000012240000023D0EB020263EBE07300982C
:1006500021464FEAE074B8EB000061EB0401E9E7E2
:1006600083F000435BE781F0004158E72DE9FE4F3E
:1006700081EA030404F0004421F0004100944FF0AB
:10068000000B23F0004350EA01045ED052EA030459
:100690005BD0C3F30A54C1F30A552C44A4F2F334DB
:1006A0000194A0FB0254C1F3130141F48011C3F380
:1006B000130343F4801301FB024400FB034E840A3E
:1006C000970A44EA815447EA8357A4FB07680295D6
:1006D0008D0A05FB07854FEA932C04FB0C54270574
:1006E000029D4FEA065847EA1637B5EB08056EEB50
:1006F000070C870E920E47EA811742EA8312A7FB86
:100700000201B6EB0B0164EB00042B0D43EA0C3342
:100710005E1844EB1C50DA465146E7FB0201C5F374
:1007200013044FEA0B3343EA14534FEA0432019C9B
:1007300043EA0603A4F10C040294009CCDE900B442
:1007400000F00AFB03B0BDE8F08F00200146F9E796
:100750002DE9F04D81EA030404F0004B21F000453F
:1007600014464FF0000A23F0004150EA050220D061
:1007700054EA01021DD0C5F30A570246C5F313031C
:10078000C1F31300C1F30A5640F4801543F48013FB
:10079000A7EB0608101BD64608F2FD3873EB0500E0
:1007A00002D308F1010801E092185B41B8F1000F93
:1007B00003DA00200146BDE8F08D00204FF48011DF
:1007C000064684460EE0171B73EB050705D3121B84
:1007D00063EB050306434CEA010C49084FEA30007D
:1007E00092185B4150EA0107EDD152EA030012D0A2
:1007F00082EA040083EA0501084305D0101BAB41DF
:1008000006D20122002306E000224FF0004302E05E
:100810006FF0010253101AEB06004CEB085110EB7D
:100820000A0041EB0B01BDE8F04D00F086BAC10FA4
:1008300080EAE0700844CA079623002100F04FBA0E
:1008400096230022114600F04ABA0EB5C10F80EA85
:10085000E0700844CA07002140F233438DE80E00DF
:100860000A460B4600F078FA03B000BD0EB540F220
:10087000334102910021CDE900110A460B4600F0F8
:100880006BFA03B000BD00F0004220F00040C10D43
:10089000C0F3160040F400007F2901DA0020704701
:1008A000962903DCC1F19601C84001E096398840E1
:1008B000002AF4D04042704720F00040C10DC0F340
:1008C000160040F400007F2901DA002070479629C5
:1008D00003DCC1F19601C8407047963988407047E3
:1008E00070B5C1F30A5201F000450024C1F31301B1
:1008F00040F2FF3341F480119A4201DA002070BDCA
:1009000040F233439A42A2F2334203DC524200F0F7
:10091000E9F800E090402C43F1D0404270BDC1F3B3
:100920000A5210B5C1F3130140F2FF3341F48011B4
:100930009A4201DA002010BD40F233439A42A2F2FB
:10094000334203DC524200F0CDF810BD904010BDA0
:1009500000F0004230F000400AD0C10D01F5607196
:10096000C0F3160042EA0151C20840071143704724
:10097000002001467047000030B5041E71F10004EC
:1009800004DB4FF00044404264EB0101141E73F19C
:10099000000405DB1C464FF00043524263EB0403A6
:1009A0008B4208BF824230BD30B5041E71F1000495
:1009B00004DB4FF00044404264EB0101141E73F16C
:1009C000000405DB1C464FF00043524263EB040376
:1009D000994208BF904230BD01F0004330B421F08D
:1009E000004150EA010206D00A0DA2F56072C1F37F
:1009F0001301002A02DC30BC00207047440F44EA97
:100A0000C104C100E01830BC00EBC25000F05EB978
:100A1000002801DBC0F10040002901DBC1F10041E9
:100A200081427047002801DBC0F10040002901DB52
:100A3000C1F100418842704730B50B4601460020A5
:100A40002022012409E021FA02F59D4205D303FA90
:100A500002F5491B04FA02F52844151EA2F1010211
:100A6000F1DC30BD2DE9F05F0546002092469B4643
:100A700088460646814640241BE0284641464746B4
:100A8000224600F02FF853465A46C01A914110D31F
:100A900011461846224600F016F82D1A67EB010899
:100AA0004F4622460120002100F00DF817EB000907
:100AB0004E41201EA4F10104DFDC484631462A469F
:100AC0004346BDE8F09F202A04DB203A00FA02F1F9
:100AD000002070479140C2F1200320FA03F319432C
:100AE00090407047202A04DB203A21FA02F00021CE
:100AF000704721FA02F3D040C2F12002914008432E
:100B000019467047202A06DBCB17203A41FA02F03B
:100B100043EAE07306E041FA02F3D040C2F120025A
:100B20009140084319467047014900F003B800009E
:100B30007CDC002010B500683C22B0FBF2F302FB25
:100B40001303B0FBF2F00B60B0FBF2F302FB1303F4
:100B5000B0FBF2F018224B60B0FBF2F302FB130380
:100B6000B0FBF2F0021D8B600723B2FBF3F403FB32
:100B70001422800040F2B55300F66C308A61B0FB5D
:100B8000F3F2B0FBF3F403FB1400443280084A6133
:100B9000C8613B2802D3920700D0401C0022074CBA
:100BA00013460A61E25C824203D8801A5B1C0B6127
:100BB000F8E7401CC860084610BD0000BCBA050834
:100BC0000FB4002300B589B00CA900910B996FF008
:100BD0000042CB601E4B06931E4B07930423CDE9C6
:100BE00001321D4A089202466B46002000F0BAF915
:100BF00009B05DF814FB70B586B006464FF0FF30C3
:100C00000091CDE90101002015460C4604903246C2
:100C1000694604A8FFF7D4FF03460498211825B1BC
:100C200008B10A4600E022462A6000280DD0002BB9
:100C300002DD0098884208D0081B0094CDE9010429
:100C40003246694604A8FFF7BBFF06B070BD00003E
:100C50009D110008BB110008510E00082DE9F04756
:100C600091460F4680460446002614F8015B2DB1DC
:100C700000F0EAF80068405DC007F6D12B2D02D0E5
:100C80002D2D18D0641E4A463946204600F0A6FA9B
:100C900027B13968A14201D1C7F8008071054FF032
:100CA00002040BD54042002803DD21F03BFE046026
:100CB000A007BDE8F08746F48066E4E70028F8DA8C
:100CC00021F030FE04606FF00040F2E70029A8BF79
:100CD0007047401C490008BF20F00100704710B465
:100CE000B0FA80FC00FA0CF050EA010404BF10BC1A
:100CF000704749B1CCF1200421FA04F411FA0CF147
:100D000018BF012121430843A3EB0C01CB1D4FEA7F
:100D100000614FEA102042BF002010BC704700EB7A
:100D2000C35010440029A4BF10BC7047401C4900A8
:100D300008BF20F0010010BC704710B5141E73F1FD
:100D4000000408DA401C41F1000192185B411A438B
:100D500001D120F0010010BD2DE9F04D92469B46D7
:100D600011B1B1FA81F202E0B0FA80F2203290467D
:100D7000FFF7A9FE04460F4640EA0A0041EA0B01CC
:100D800053465A46084313D0114653EA010019D07E
:100D9000C8F140025046FFF7A5FE05460E465046F4
:100DA00059464246FFF78FFE084305D0012004E074
:100DB00020463946BDE8F08D0020054346EAE0763E
:100DC0002C4337430A986305E40AA0EB080000228D
:100DD000FD0A44EA47540A3002D500200146E9E7FB
:100DE000010510196941DDE9084500196941BDE8AF
:100DF000F04DA2E7C1F30A52C1F3130140F2FF33F1
:100E000041F480119A4202DA00200146704740F214
:100E100033439A42A2F2334202DC5242FFF762BEEF
:100E2000FFF751BE064C074D06E0E06840F00103B5
:100E300094E8070098471034AC42F6D3FFF77CF9EA
:100E400098CE0508B8CE0508004870474CBB050889
:100E500010B50446FFF7F8FF0068005D00F00100E0
:100E600010BD00002DE9FF4F087881B09946FF289A
:100E700005D0491C2D2804D00024002308E00023BD
:100E80000BE00124F9E703EB830300EB4303491C68
:100E90000878FF28F7D104B15B4200200090147855
:100EA00001462D2C01D02B2C04D1521C2D2C12D0FC
:100EB0000024009400251678FF2E0ED00A24A0FBF3
:100EC00004C801FB0481002700FB0711521C16EB2C
:100ED0000C006941EFE70124EBE7994450EA010275
:100EE0000ED00024AA4D2646DFF8A88200F0D3F9E0
:100EF00082468B46B9F1000009DAC9F100071BE010
:100F000001980021C0E9001105B0BDE8F08F074647
:100F100012E0F80707D022462B4630464146FFF73D
:100F2000A5FB0646884622462B4610461946FFF783
:100F30009DFB04460D467F10002FEAD1B9F1000F4A
:100F4000324643465046594602DAFFF701FC01E0BB
:100F5000FFF78CFB009A0AB181F00041019AC2E9C7
:100F60000001D1E72DE9FF4F1F468DB0D7E90146BB
:100F70004FF0FF382E2045464FF000090B90B9691D
:100F80006D1C0E988847396A824688470028F6D13A
:100F9000BAF1FF3F0AD024F4D064002E11DDBAF17B
:100FA0002B0F08D0BAF12D0F0BD102E0404611B043
:100FB000ABE744F48064B9696D1C0E98884782469B
:100FC000761E6946600501D52D2000E02B208DF8A6
:100FD000000001F1010B0DF1200809E0B9696D1C59
:100FE0000E98884782460F9844F40074761E056078
:100FF000002E02DDBAF1300FF0D00B998A453ED1B8
:1010000044F0800406E00F99681CA9F1010944F43A
:1010100000740860B9696D1C761E0E988847824678
:101020003028F0D02BE00B998A4505D1200603D457
:1010300044F08004761E18E0504621F0A1FD08B36C
:101040000DF11301761E44F400748B4508D2AAF109
:1010500030000BF8010B200607D5A9F1010003E0D1
:10106000200602D409F101008146A00502D50F999E
:10107000681C0860B9696D1C0E9888478246002E6E
:10108000D1DC53E0002E51DDBAF1650F02D0BAF188
:10109000450F4BD1A00549D5B9696D1C24F44074A6
:1010A000761E0E9888478246002E0CDD2B2804D031
:1010B000BAF12D0F07D144F48074B9696D1C0E98F4
:1010C00088478246761EE00501D52D2100E02B21C0
:1010D00008F8011BCDF82C8021E00DF12901761EC6
:1010E00044F4007488450CD2AAF1300010F0FF00DF
:1010F00088F8000002D10B99884509D908F1010848
:1011000006E0E00501D5244801E042F20F70814677
:10111000B9696D1C0E98884782460F980560002EAD
:1011200004DD504621F02CFD0028D6D1F9690E9837
:101130008847FF208BF8000088F800000020069008
:1011400007904B466A4608A906A8FFF78BFEA00544
:1011500002D46FF001002AE714F0240F0AD0E00750
:1011600014D1DDE906123868031D3B600068C0E950
:1011700000120BE0DDE90601FFF72EFC0146E00757
:1011800004D13868021D3A600068016028460EE705
:10119000000024400000F03FF1D8FFFF426842B158
:1011A000016811F8013B23B1521EC0E90012184634
:1011B00070470121C160881E704742685AB1C368F8
:1011C000016843B983688B4205D0491E521CC0E9AF
:1011D0000012002070474FF0FF3070472DE9F05F9C
:1011E00082460078002715468B460AF10104B9466D
:1011F000302801D09DB113E014F8010B01277828A5
:1012000003D0582801D045B10AE00DB1102D07D107
:101210000027102514F8010B02E0082500E00A253C
:101220000026B0460EE005FB080005FB06F101278D
:1012300001EB10461FFA80F8B6F5803F00D3B9469F
:1012400014F8010B294600F018F80028EBDABBF17E
:10125000000F05D00FB1641E00E05446CBF80040EB
:10126000B9F1000F06D021F05DFB02210160C81E1C
:10127000BDE8F09F48EA0640FAE73A2800D2303845
:1012800020F02002412A01D3A2F13700884201D385
:101290004FF0FF3070470EB540F233420292002209
:1012A000CDE900221346FFF757FD03B000BD70B52E
:1012B0008C1810F8015B15F0070301D110F8013B01
:1012C0002A1106D110F8012B03E010F8016B01F888
:1012D000016B5B1EF9D12B0705D40023521E0DD4E0
:1012E00001F8013BFAE710F8013BCB1A921C03E02E
:1012F00013F8015B01F8015B521EF9D5A142D8D366
:10130000002070BD70B588B02F20ADF81400012406
:101310008DF8164000268DF8176005A9354806F0AF
:1013200073FA4FF440400EF0CDFF012148020EF059
:10133000F7FF314D284600F04FF94FF46020CDE91A
:1013400002068DF8044000968DF805408DF8104097
:101350006946284600F098F90121284600F05EF918
:101360000121284600F02EF9284600F0EBF9284626
:1013700000F06FF90028FAD1284600F00DFA28464F
:1013800000F056F90028FAD10021284600F01AF999
:101390001A480A2106718470C170194981600121BF
:1013A00008460EF0A5FF05A810F094FF3F20ADF809
:1013B000140042F20F70ADF818004FF08044ADF801
:1013C0001A60ADF8166005A9204610F035FF01211E
:1013D000204610F0CBFD0121204610F0D1FD012266
:1013E0001146204610F0A0FE0121204610F0CEFD4F
:1013F00008B070BD00100140002401400000002032
:10140000C4B0002010B5012186B088020EF088FF1C
:101410001020ADF8140000248DF8174005A91848D5
:1014200006F0F2F94FF46020CDE902048DF8044093
:1014300000948DF805400120124C8DF8100069468B
:10144000204600F021F9072301220E21204600F05A
:101450003FF90121204600F0B5F8204600F072F96E
:10146000204600F0F6F80028FAD1204600F094F962
:10147000204600F0DDF80028FAD106B010BD0000CB
:1014800000100140002801402DE9F0414A4C00269F
:101490002046E17801278078484D0A39062930D264
:1014A000DFE801F0031931472F5D20B10723012246
:1014B000A6700A2158E00221284600F0C3F800284F
:1014C000F9D0284600F0BBF8A16821F8020BA16012
:1014D000A7700B2014E020B107230122A6700B2176
:1014E00042E00221284600F0ADF80028F9D0284655
:1014F00000F0A5F8A16821F8020BA160A7700C20EC
:10150000E070BDE8F08120B107230122A6700C2114
:101510002AE00221284600F095F80028F9D0284654
:1015200000F08DF8A16821F8020BA160A7700D20D2
:10153000E6E720B107230122A6700D2114E0022165
:10154000284600F07FF80028F9D0284600F077F808
:10155000A16821F8020BA160A7700F20D0E780B12D
:1015600007230122A6700F21284600F0B1F80121BF
:10157000284600F027F82846BDE8F041012100F098
:10158000E6B80221284600F05DF80028F9D0284688
:1015900000F055F8A16821F8020BA160A7700A209D
:1015A000E0702079401CC0B220710528A9D12671B5
:1015B0000348A060A5E700000000002000240140CF
:1015C000C4B000200029816802D041F0010101E08F
:1015D00021F00101816070470D4910B5884202D1A8
:1015E000012144150AE00B49884202D1012104156A
:1015F00004E0094988420AD10121CC0320460EF0BB
:101600009BFE2046BDE8104000210EF095BE10BDA7
:101610000024014000280140003C0140002981686D
:1016200002D041F4801101E021F480118160704703
:10163000014600208968490700D501207047C06C29
:1016400080B270470246002012680A4200D0012092
:101650007047014600208968090700D501207047BE
:1016600010B5084C0121204600F071F802212046F7
:10167000FFF7E8FF0028F9D02046BDE81040FFF74B
:10168000DEBF00000028014010B542680E4B0C7907
:101690001A400B6842EA04221343436083680B4AF2
:1016A0001340D1E9024222434C7943EA44031A43EE
:1016B0008260C26A097C22F47002491EC9B242EA01
:1016C0000151C16210BD0000FFFEF0FFFDF7F1FF08
:1016D00070B5072409290AD9C568A1F10A0606EBE5
:1016E0004606B440A543B3401D43C56007E0056905
:1016F00001EB4106B440A543B3401D4305611F23E0
:10170000072A09D2446B521E02EB820293409C438B
:1017100091400C43446370BD0D2A09D2046BD21F63
:1017200002EB820293409C4391400C43046370BDE2
:10173000C46A0D3A02EB820293409C4391400C43F1
:10174000C46270BD816841F0080181607047002962
:10175000816802D041F4A00101E021F4A001816080
:10176000704700003EB50B4A00216B4601EB810437
:1017700002EB440434F8104023F81140491CC9B26C
:101780000529F3D30521184600F0B0FEBDF804008A
:101790003EBD0000C4B00020816841F004018160BA
:1017A0007047002800DC404270470000F8B54FF455
:1017B0000070ADF800001024104F8DF80340032591
:1017C0008DF802506946384606F01EF80120ADF843
:1017D000000004208DF803006946094806F014F85B
:1017E0004026ADF800608DF803408DF80250694640
:1017F000384606F009F83E61F8BD000000100140CF
:101800000018014010B5FFF7D1FFBDE810400AF005
:101810002DBA0AF02BBA000010B50320FFF7A2FF83
:10182000064CA0F21930FFF702F82146FEF7FBFD47
:101830000146BDE810400248FEF79DBDF40D783B1F
:10184000000040402DE9F04F8DB09D480B90FFF710
:10185000E3FF9C4C05469C4922784FF004084FF06A
:1018600001094FF0030A4FF0020B4FF040402AB13C
:1018700000222270954A954203DCCAE0944A9542C0
:1018800001DB0520B4E04FF06632924BFEF7EBFE31
:10189000914A924BCDE90201FEF741FE06460F4602
:1018A0002846FFF755F8CDE9000132463B46FFF7E1
:1018B0007BF804D28A48854201DA404698E001214B
:1018C0000B98FEF720FEFFF743F84FF06632814B8E
:1018D000FEF7C9FE804EDFF804820F4632464346CB
:1018E0000490FEF71CFE02460B46DDE90001FFF7FF
:1018F0005BF80ED2DDE9020132464346FEF7B0FE48
:1019000002460B46DDE90001FFF736F801D25046EA
:101910006EE04FF0663A52466E4B4FF08040714990
:10192000FEF7A1FE6C4A6D4BCDE90201FEF7F7FD13
:1019300002460B46DDE90001FFF736F80ED23946C4
:10194000654A664B0498FEF78BFE02460B46DDE9BE
:101950000001FFF711F801D2584649E002210B9827
:10196000FEF7D1FDFEF7F4FFDFF8688152464346EB
:10197000FEF779FE584F594E83463A463346059155
:10198000FEF7CDFD02460B46DDE90001FFF70CF83E
:101990000ED2DDE902013A463346FEF761FE024609
:1019A0000B46DDE90001FEF7E7FF01D248461FE0E4
:1019B000524643464FF020404B49FEF754FE3A460C
:1019C0003346FEF7ACFD02460B46DDE90001FEF7AB
:1019D000EBFF11D258463A4633460599FEF740FED2
:1019E0000B460246DDE90001FEF7C6FF04D20020E7
:1019F00060700DB0BDE8F08F3C483D4928448842F6
:101A000001D20020F5E73948C043854256DD6078B1
:101A1000EFE74FF066322F4BFEF725FE06460F46E6
:101A20002846FEF795FF05463B4632460191FEF7F4
:101A3000BBFF7FF642AF01210B98FEF764FDFEF776
:101A400087FF244F4FF0663632463B46FEF70BFECB
:101A500002460B4628460199FEF7A6FF7FF657AFD0
:101A600032463B464FF080401E49FEF7FCFD0246E1
:101A70000B4628460199FEF797FF7FF66DAF0221CE
:101A80000B98FEF740FDFEF763FF32463B46FEF73C
:101A9000EAFD02460B4628460199FEF785FF85D9E7
:101AA00032463B464FF020400F49FEF7DCFD024630
:101AB0000B4628460199FEF777FF98D9FF2098E753
:101AC000AE47613E00000020F528CC3F3333F340A1
:101AD000CDCCF44066661E409A9999999999A93F90
:101AE0009A99F140B81EE53F9999F13FFFFF4FBF2A
:101AF0009999090010B50120FFF734FEBDE81040A8
:101B00000E2201490BF0EAB81634020810B5022083
:101B1000FFF728FEBDE810400E2201490BF0DEB8A9
:101B20004034020810B50A4C61684A1C62603229D0
:101B300007D20420FFF716FEA1680844A060002029
:101B400010BDA1683222B1FBF2F10180012010BD6D
:101B50003011002070B50425002406E0052021F096
:101B6000EDFBFFF74FFE204484B26D1EEDB2F5D2BF
:101B7000B4F5C87F01D2012070BD002070BD000007
:101B800070B505460420FFF7EDFD04460E480DF044
:101B9000D7FD0146AC4201D2002070BD601B00D5CC
:101BA000404282B209488A4202D90021017008E00D
:101BB0000178491CC9B20170032902D903210170BF
:101BC000EAE7012070BD000041B70020331100207A
:101BD00010B50020FFF7C6FDB0F5166F01D3012048
:101BE00010BD002010BD70B50425002406E00520BE
:101BF00021F0A4FBFFF734FD204484B26D1EEDB24A
:101C0000F5D2B4F5C87F01D2012070BD002070BDAF
:101C1000064A516811B95060704711460A69002A96
:101C2000FBD1C1600A69026108617047641300203A
:101C30002DE9F0438FB08846814638222E49684608
:101C4000FEF7E2FA00240B269DF90000FEF7EFFDF7
:101C50004146FEF7E7FE02D8DDF8014040E09DF97D
:101C60003200FEF7E4FD4146FEF7D2FE02D8DDF871
:101C7000334035E04FEA0D0504EB84002856FEF7AB
:101C8000D6FD4146FEF7CEFE02D3641CB442F3DB20
:101C900004EB840044192856D4F8017054F8046CFD
:101CA000FEF7C5FD054614F9050CFEF7C0FD044618
:101CB00001462846FEF7B1FB054631463846FEF799
:101CC000ACFB2946FEF7E1FB054621464046FEF700
:101CD000A4FB2946FEF7A7FB3146FEF74CFB044662
:101CE0004846FEF7ADFD2146FEF79DFBFEF7E4FDFD
:101CF0000FB080B2BDE8F0835C5D02082DE9FF5FA4
:101D00005A4C4FF4FA7BA4F58069A5E028895E4619
:101D1000401C80B2B0FBF6F128810BFB1100A8B982
:101D20005349544F0FC98DE80F0053483978006864
:101D30005DF82110B0F9220010F0A3F83878401CAB
:101D4000C0B23870032801D900203870288947F2C2
:101D5000305188427CD8688A05EB4001401C80B233
:101D6000898A6882B04201D300206882EA68A94665
:101D70000A440020C5F80C2004EB800252888A42F5
:101D800025D21026394F0023A6F1010A0022F51AA8
:101D90006D1E11E007EB8200B0F802C0B0F80680BB
:101DA000C44507D9D0F800C0D0F80480C0F800803E
:101DB000C0F804C0521C92B29542EBDC5B1C9BB293
:101DC0005345E3DBB9F808202280618002E0401C23
:101DD0001028D1DBB9F80800B9F806204D4690422A
:101DE00099F800201CD9E2B90021084604EB8002D2
:101DF000401C528810281144F8DBC1F30F10688092
:101E0000FEF734FD1D4A1E4BFEF730FC00221D4B31
:101E1000FEF785FBFEF783FDA880012028701BE0FC
:101E2000D2B100F00F0224F8220004EB82004180BE
:101E30000021084604EB8002401C528810281144FF
:101E4000F8DB0809B9F80410814201D2282803D828
:101E5000012004B0BDE8F09FB9F81200B9F81010E5
:101E60004D4688427FF452AF0020F2E748BE002082
:101E7000F85C02082C110020741300209A9999999B
:101E80009999B93F0000E03F30B5054625480C461A
:101E90002549D0F805008DB0884216DB2348C1796A
:101EA00099B9007A88B914212148FEF7D4F9B5F917
:101EB000140014221E4904F03DFB1D491DA020F012
:101EC0000DFD1B48FEF7FCF958B109F041FDB4F9CE
:101ED0000410884224D00DB00846BDE8304011F00F
:101EE0006BBE00248DF8004012201DF03BFE0290D6
:101EF00095F82000042803D0052804D1144801E0F7
:101F0000134819380190FF200390124804900320D1
:101F10008DF81400089409F025FD694601F0A2FF30
:101F20000DB030BD19B500200000A04110B5002053
:101F3000F5D8002044726976657249445F496E663F
:101F40006F726D6174696F6E3A25730D0A0000003F
:101F50001D270508D3D3D300F0B506462F480F46FA
:101F60002F49D0F805002F4D00248DB0884214DB96
:101F70002D48007A88B932212C48FEF76CF9B6F961
:101F800014003222294904F0D5FA284928A020F06B
:101F9000A5FC2648FEF794F9A8B12C606C602C8152
:101FA0002049AC72B6F91600091D0FF06AFF09F05E
:101FB000CFFCB7F90410884228D00DB00846BDE820
:101FC000F04011F0F9BD8DF8004012201DF0CAFD5F
:101FD000029096F82400012808D0022804D0032893
:101FE00019D0062805D113E0194801E018481F3020
:101FF0000190FF2003901748049003208DF81400EF
:10200000089409F0AFFC694601F02CFF0DB0F0BD5B
:102010000F483830ECE70E485730E9E719B5002093
:102020000000A041DC13002010B5002009D90020D9
:10203000557365725F506F6C6963655F496E666F5B
:10204000726D6174696F6E3A25730D0A00000000AD
:10205000E0150020D3D3D30030B505461D480C460B
:102060001D49D0F805008DB0884214DB1B48007A6A
:1020700088B91A211A48FEF7EEF8B5F914001A22A9
:10208000174904F057FA164916A020F027FC144807
:10209000FEF716F930B1B4F904000DB0BDE83040D8
:1020A00011F08ABD00248DF8004012201DF05AFD69
:1020B000029013480190FF200390124804900320DF
:1020C0008DF81400089409F04DFC694601F0CAFE31
:1020D0000DB030BD19B500200000A04110B50020A2
:1020E0003BD90020706C61746E756D6265725F49DA
:1020F0006E666F726D6174696F6E3A25730D0A00BA
:10210000A09E0508D3D3D30030B5044622480D461F
:102110002249D0F805008DB0884216DB2048C179ED
:1021200099B9007A88B914211E48FEF794F8B4F9D9
:10213000140014221B4904F0FDF91A491AA020F0DA
:10214000CDFB1848FEF7BCF828B10DB02846BDE815
:10215000304017F0ADBB00258DF8005012201DF067
:1021600001FD029094F82000042803D0052804D132
:10217000144801E0134819380190FF2003901248D9
:10218000049003208DF81400089509F0EBFB6946D4
:1021900001F068FE0DB030BD19B500200000A0416F
:1021A00010B50020F5D80020447269766572494464
:1021B0005F496E666F726D6174696F6E3A25730D5B
:1021C0000A0000001D270508D3D3D300F0B506464A
:1021D0002C480F462C49D0F805002C4D00248DB01A
:1021E000884214DB2A48007A88B932212948FEF750
:1021F00032F8B6F914003222264904F09BF9254939
:1022000025A020F06BFB2348FEF75AF878B12C602C
:102210006C602C811D49AC72B6F91600091D0FF0D7
:1022200030FE0DB03846BDE8F04017F0DDBC8DF84B
:10223000004012201DF096FC029096F82400012820
:1022400008D0022804D0032819D0062805D113E0AD
:10225000194801E018481F300190FF2003901748EB
:10226000049003208DF81400089409F07BFB694664
:1022700001F0F8FD0DB0F0BD0F483830ECE70E4826
:102280005730E9E719B500200000A041DC13002019
:1022900010B5002009D90020557365725F506F6C2E
:1022A0006963655F496E666F726D6174696F6E31E7
:1022B0003A25730D0A000000E0150020D3D3D300A7
:1022C00030B504461D480D461D49D0F805008DB0B7
:1022D000884214DB1B48007A88B91A211A48FDF796
:1022E000BAFFB4F914001A22174904F023F9164969
:1022F000164820F0F3FA1448FDF7E2FF28B10DB0BC
:102300002846BDE8304017F067BD00248DF8004036
:1023100012201DF027FC02900D480190FF20039031
:102320000C48049003208DF81400089409F01AFB5F
:10233000694601F097FD0DB030BD000019B50020D1
:102340000000A04110B500203BD90020E420000887
:10235000A09E0508D3D3D30010B50CA1FDF792FFC2
:102360000AA1801CFDF78EFF08A1801CFDF78AFFE3
:1023700006A1801CFDF786FF04A1801CFDF782FFEB
:1023800002A1801CFDF77EFF801C10BD0D0A00001D
:102390000BF0ABF90DF0DCFF0CF04CFF0AF048FE3F
:1023A0000BF04CFA11F034F80BF028F800F080FA3A
:1023B0000FF012FAFEF7A6FFFFF724F8454C1C2198
:1023C0006068FDF748FF6068012606700FF004FAA8
:1023D0000FF088FC4FF4FA7020F0B0FF01210020CC
:1023E0000AF0C6FD012108460AF0C2FD02F092FB88
:1023F0000EF062FB012138480EF0FCFA36480BF073
:10240000AFF9002550B9344811210170467086702B
:102410000C21C170057145710EF05DFB07F080FF66
:1024200008F0E4FD042012F071F810F0ADFF0BF09D
:102430000FFF03F099FE022000F0ACF905E000BFA9
:102440000BF0E4F908B1606806760BF0D3F90028C8
:10245000F6D1642020F072FF6068002146750120EB
:102460000AF086FD0121002001F0AAF86068007ED4
:1024700020B109F077FA012101F0D8FE06F0F2FD53
:10248000164EDFF85C80DFF85C90174F07F012FE05
:102490006068007D08B104F093FA10F031FE3078E6
:1024A00010B135700CF004FD98F80010404611B1E1
:1024B000057006F07BFA99F80010484611B10570D6
:1024C0000CF0B8FC38780028E0D03D700CF0AAFC85
:1024D000DCE7000004110020E51000204C11002072
:1024E0004E1100205011002054110020F0B500239F
:1024F0004C1E15E00022CE1A761E0DE000EB420CB9
:1025000030F81250BCF80270BD4203D920F81270A6
:10251000ACF80250521C92B29642EFDC5B1C9BB2AC
:10252000A342E7DBF0BD00000248018841F0010151
:1025300001807047346C004008B5024A1044009096
:10254000016008BD006C004070B5B0F9046005463C
:10255000304607F009F804462946304610F073FF6C
:1025600000284ED028680B2822D00C2804D00E2832
:1025700028D00F2840D115E0A868214680B1007A04
:102580000028C88C4FEAC05006D0002839DB3046FE
:10259000BDE870401EF024BA002832DA022226E09C
:1025A000032224E031462046BDE870401EF01ABCEC
:1025B00004F14C0006F04DFF032104F14E0006F03B
:1025C00051FF19E0A968486809680D2902D020293F
:1025D00012D106E000280FDD214630461EF000FA39
:1025E00003E0002801DD2146D1E7022221463046E2
:1025F000BDE870401EF005BA2846BDE8704011F0F5
:10260000AFBA70BD2DE9FF410DF12C084FF0380C29
:1026100098E8D000DFF83CE0A4B20A9DCDE902ECD6
:10262000CDE9005411F002FA05000ED006F09CFF2F
:1026300004461022394611F007F92422064904F114
:102640002800FDF7E1FD84F8546004B02846BDE899
:10265000F081000049250008801900202DE9F04193
:1026600015460E46002815D006F07EFFB0F94C0046
:10267000002788B106F078FF8046FDF721FE04466A
:10268000681E844200DD0446224641463046FDF77E
:10269000BBFD3755BDE8F0813770FBE770B51646D6
:1026A0000C46054619463046049A07F053FA02468E
:1026B00021462846BDE8704000F054B870B5164673
:1026C0000C4605000BD0022C09D806F04DFF00EB9C
:1026D000840086622846BDE8704011F0A6BD70BD3A
:1026E00000294FF0100101D010F017BF10F091BE7B
:1026F00070B50D46040007D006F036FF456420464D
:10270000BDE8704011F091BD70BD4FF4807200299A
:10271000114601D010F001BF10F07BBE70B50D4620
:1027200004000CD006F020FF29464C3008F0E6FFEC
:10273000002804D02046BDE8704011F076BD70BD81
:1027400070B516460C4605000BD0022C09D806F0D1
:102750000BFF00EB840046632846BDE8704011F093
:1027600064BD70BD70B515460C46060010D006F06D
:10277000FBFE032C0CD800EB440404F14E0006F0E1
:1027800068FEA4F84E503046BDE8704011F04DBDD3
:1027900070BD0000012827D0022827D0072828D0A4
:1027A000052829D006282AD004282BD008282CD088
:1027B00009282FD00A2830D00B2831D00C2833D04C
:1027C0000D2834D00E282BD00F2829D0112833D033
:1027D000102835D0122836D0132838D101220021F4
:1027E0005FF06E0012F0A8BF19482EE018481130B3
:1027F0002BE01748333028E01548443025E01448D2
:10280000553022E0124866301FE0012200214FF4CB
:10281000FA70E7E70E48773017E00D48993014E07A
:10282000032232216420DDE7094822300DE0012235
:1028300000214FF49670D5E7012200211E20D1E738
:102840000348883001E00248AA3012F087BF704781
:102850006A34020870B5154C6068002819D02278D7
:1028600081188B7861788B421CD1521CD1B22170B7
:102870000126014466708978002511B1A07848B915
:1028800004E0417851B12570007818B100F058F893
:10289000A67070BD00F03AF8A57070BD00F036F873
:1028A000656070BD491C617070BD00000C000020A7
:1028B00030B587B0012102200DF01AFD124D2846D7
:1028C0000FF06EFB40F64210ADF814000920ADF891
:1028D00010000024ADF81640ADF8124004A92846B7
:1028E0000FF0AAFC6020ADF800000120ADF8020056
:1028F00040F2A140ADF80600ADF808406946284610
:102900000FF05AFC07B030BD0004004038B500217C
:1029100009480FF03BFB0124ADF8004010208DF872
:10292000030002208DF802006946044804F06CFFA1
:1029300002481430046038BD00040040000C01401F
:1029400008B50120ADF8000018208DF80300022022
:102950008DF802006946044804F056FF012103483F
:102960000FF014FB08BD0000000C01400004004003
:102970007CB51D4C0546E08CB4F844100844E08456
:10298000208DB4F8481008442085284607F040FC04
:10299000E18CADF800100844401EADF8040007F0CB
:1029A0004FFC218DADF802100844401EADF8060022
:1029B000684611F095FF04E0284604F0B7FB11F0DB
:1029C0004BFF0028F8D10A2D03D0BDF80400401CAD
:1029D000E08434F8260FE18B401A20806088618CF7
:1029E000401A60807CBD0000B8D900202DE9FF416D
:1029F000044605250F46284609F0D6F830B119A03F
:102A00001FF06CFF002004B0BDE8F08124200021FD
:102A1000039002220094CDE901214FF4A073F0222B
:102A2000084611F003F8194E040016D0014618A00C
:102A30001FF054FF204606F097FD203030600480E0
:102A400047600572FFF7E4F81D49204611F03CFD90
:102A50000121204612F034FA02E01AA01FF03EFFD6
:102A60003068D0E76541646D696E6973746F722078
:102A700077696E646F7720697320616C7265617924
:102A8000206578697374210D0A0000005C1600202F
:102A90006541646D696E6973746F722077696E64E5
:102AA0006F77732069732063726561746564216850
:102AB00057696E203D203078253034580D0A0000CB
:102AC000F57A01086541646D696E6973746F7220EF
:102AD00077696E646F772063616E2774206265206A
:102AE00063726561746564210D0A00002DE9FF4180
:102AF000044603250F46284609F056F830B119A0C0
:102B00001FF0ECFE002004B0BDE8F081242000217D
:102B1000039002220094CDE901214FF4A073F0222A
:102B2000084610F083FF1C4E040016D001461BA07F
:102B30001FF0D4FE204606F017FD203030600480E0
:102B400047600572FFF764F82349204611F0BCFC8A
:102B50000121204612F0B4F902E020A01FF0BEFED1
:102B60003068D0E7654175746F53687574646F772A
:102B70006E54696D65436F6E6669672077696E6430
:102B80006F7720697320616C72656179206578695F
:102B90007374210D0A0000007013002065417574E4
:102BA0006F53687574646F776E54696D65436F6EAB
:102BB0006669672077696E646F7773206973206335
:102BC000726561746564216857696E203D203078B4
:102BD000253034580D0A00006162010865417574A2
:102BE0006F53687574646F776E54696D65436F6E6B
:102BF0006669672077696E646F772063616E2774FA
:102C00002062652063726561746564210D0A0000AD
:102C10002DE9FF41044608250F46284608F0C4FF69
:102C200030B119A01FF05AFE002004B0BDE8F081B9
:102C30002C200021039002220094CDE901214FF4C1
:102C4000A073F022084610F0F1FE1A4E040016D0D0
:102C5000014619A01FF042FE204606F085FC2030F8
:102C60003060048047600572FEF7D2FF1F4920469E
:102C700011F02AFC0121204612F022F902E01CA0EA
:102C80001FF02CFE3068D0E76543616C69627261A9
:102C900074696F6E57696E2077696E646F7720690B
:102CA0007320616C72656179206578697374210D98
:102CB0000A000000701600206543616C6962726151
:102CC00074696F6E57696E2077696E646F777320D1
:102CD00069732063726561746564216857696E2049
:102CE0003D203078253034580D0A00001D8501083C
:102CF0006543616C6962726174696F6E57696E20B9
:102D000077696E646F772063616E27742062652037
:102D100063726561746564210D0A00002DE9FF414D
:102D200004460F250F46284608F03EFF30B119A093
:102D30001FF0D4FD002004B0BDE8F0811820002170
:102D4000039002220094CDE901214FF4A073F022F8
:102D5000084610F06BFE184E040016D0014617A06E
:102D60001FF0BCFD204606F0FFFB203030600480E1
:102D700047600572FEF74CFF1B49204611F0A4FB8B
:102D80000121204612F09CF802E018A01FF0A6FDD9
:102D90003068D0E76544656275672077696E646F57
:102DA0007720697320616C72656179206578697339
:102DB00074210D0A000000006C1600206544656255
:102DC00075672077696E646F77732069732063720B
:102DD0006561746564216857696E203D20307825EF
:102DE0003034580D0A0000005982010865446562BC
:102DF00075672077696E646F772063616E27742032
:102E000062652063726561746564210D0A000000CB
:102E10002DE9FF41044625250F46284608F0C4FE4B
:102E200030B119A01FF05AFD002004B0BDE8F081B8
:102E30002C200021039002220094CDE901214FF4BF
:102E4000A073F022084610F0F1FD1A4E040016D0CF
:102E5000014619A01FF042FD204606F085FB2030F8
:102E60003060048047600572FEF7D2FE1F4920469D
:102E700011F02AFB0121204612F022F802E01CA0EA
:102E80001FF02CFD3068D0E765446973706C617980
:102E90005265636F72642077696E646F772069731F
:102EA00020616C7265616479206578697374210DA5
:102EB0000A000000A418002065446973706C6179F1
:102EC0005265636F72642077696E646F77732069EF
:102ED000732063726561746564216857696E203D73
:102EE000203078253034580D0A000000E18C0108AC
:102EF00065446973706C61795265636F72642077A1
:102F0000696E646F772063616E2774206265206349
:102F1000726561746564210D0A0000002DE9FF41AE
:102F2000044631250F46284608F03EFE30B119A070
:102F30001FF0D4FC002004B0BDE8F0812420002163
:102F4000039002220094CDE901214FF4A073F022F6
:102F5000084610F06BFD194E040016D0014618A06B
:102F60001FF0BCFC204606F0FFFA203030600480E1
:102F700047600572FEF74CFE1D49204611F0A4FA89
:102F80000121204611F09CFF02E01AA01FF0A6FCD0
:102F90003068D0E7655072696E74436F7079732042
:102FA00077696E646F7720697320616C72656179EF
:102FB000206578697374210D0A000000B4180020A0
:102FC000655072696E74436F7079732077696E64AF
:102FD0006F7773206973206372656174656421681B
:102FE00057696E203D203078253034580D0A000096
:102FF00045950108655072696E74436F707973204E
:1030000077696E646F772063616E27742062652034
:1030100063726561746564210D0A00002DE9FF414A
:10302000002402232822CDE90003CDE902420E4606
:10303000D3002427F0222146204610F0F7FC05009B
:103040001DD0014611A01FF049FC284606F08CFA5D
:10305000058400F12004466227722046FEF7D8FD61
:1030600096E80F0004F1180888E80F001549284673
:1030700011F02AFA0121284611F022FF02E012A0E5
:103080001FF02CFC04B02046BDE8F08165496E704D
:1030900075744E756D62657257696E646F772077CF
:1030A000696E646F777320697320637265617465FC
:1030B00064216857696E203D203078253034580DE2
:1030C0000A0000003967010865496E7075744E7515
:1030D0006D62657257696E646F772077696E646F91
:1030E000772063616E277420626520637265617466
:1030F0006564210D0A0000002DE9FF410024022330
:103100002C22CDE90003CDE902420E4623274FF4DD
:10311000A073F0222146204610F088FC05001DD047
:10312000014612A01FF0DAFB284606F01DFA0584BE
:1031300000F12004466227722046FEF769FD96E8FA
:103140000F0004F11C0888E80F001649284611F00A
:10315000BBF90121284611F0B3FE02E012A01FF0D6
:10316000BDFB04B02046BDE8F081000065496E70EB
:103170007574506C6174654E756D57696E646F77C8
:103180002077696E646F777320697320637265615D
:10319000746564216857696E203D2030782530348D
:1031A000580D0A003187010865496E707574506CBE
:1031B0006174654E756D57696E646F772077696EBF
:1031C000646F772063616E27742062652063726587
:1031D00061746564210D0A002DE9FF41002402237A
:1031E0002C22CDE90003CDE902420E4622274FF4FE
:1031F000A073F0222146204610F018FC05001DD0D7
:10320000014612A01FF06AFB284606F0ADF90584BE
:1032100000F12004466227722046FEF7F9FC96E88A
:103220000F0004F11C0888E80F001449284611F02B
:103230004BF90121284611F043FE02E010A01FF0D7
:103240004DFB04B02046BDE8F081000065496E707A
:10325000757457696E646F772077696E646F7773E2
:103260002069732063726561746564216857696EB3
:10327000203D203078253034580D0A00616E010859
:1032800065496E70757457696E646F772077696EE3
:10329000646F772063616E277420626520637265B6
:1032A00061746564210D0A002DE9FF41044628255B
:1032B0000F46284608F078FC30B119A01FF00EFB2D
:1032C000002004B0BDE8F0812420002103900222F8
:1032D0000094CDE901214FF4A073F022084610F0CC
:1032E000A5FB194E040016D0014618A01FF0F6FAEF
:1032F000204606F039F920303060048047600572BE
:10330000FEF786FC1D49204611F0DEF8012120461B
:1033100011F0D6FD02E01AA01FF0E0FA3068D0E705
:10332000655072696E74436F7079732077696E644B
:103330006F7720697320616C7265617920657869A7
:103340007374210D0A0000009C18002065507269FA
:103350006E74436F7079732077696E646F77732032
:1033600069732063726561746564216857696E20B2
:103370003D203078253034580D0A0000858A010838
:10338000655072696E74436F7079732077696E64EB
:103390006F772063616E27742062652063726561B8
:1033A000746564210D0A00002DE9FF4104462625BD
:1033B0000F46284608F0F8FB30B119A01FF08EFA2E
:1033C000002004B0BDE8F0812420002103900222F7
:1033D0000094CDE901214FF4A073F022084610F0CB
:1033E00025FB194E040016D0014618A01FF076FAEE
:1033F000204606F0B9F8203030600480476005723E
:10340000FEF706FC1D49204611F05EF8012120461A
:1034100011F056FD02E01AA01FF060FA3068D0E704
:10342000655072696E745265636F72642077696E5D
:10343000646F7720697320616C72656179206578AB
:10344000697374210D0A0000A0180020655072698C
:103450006E745265636F72642077696E646F777300
:103460002069732063726561746564216857696EB1
:10347000203D203078253034580D0A00058C010895
:10348000655072696E745265636F72642077696EFD
:10349000646F772063616E277420626520637265B4
:1034A00061746564210D0A002DE9FF410446302551
:1034B0000F46284608F078FB30B119A01FF00EFA2D
:1034C000002004B0BDE8F0812420002103900222F6
:1034D0000094CDE901214FF4A073F022084610F0CA
:1034E000A5FA1B4E040016D001461AA01FF0F6F9EB
:1034F000204606F039F820303060048047600572BD
:10350000FEF786FB2149204610F0DEFF0121204610
:1035100011F0D6FC02E01EA01FF0E0F93068D0E701
:1035200043575F53616D706C654D6F6465436F6E9B
:103530006669672077696E646F7720697320616CB4
:1035400072656179206578697374210D0A00000045
:10355000A818002043575F53616D706C654D6F6410
:1035600065436F6E6669672077696E646F77732055
:1035700069732063726561746564216857696E20A0
:103580003D203078253034580D0A0000498E01085E
:1035900043575F53616D706C654D6F6465436F6E2B
:1035A0006669672077696E646F772063616E277440
:1035B0002062652063726561746564210D0A0000F4
:1035C0002DE9FF4104462F250F46284608F0ECFA66
:1035D00030B119A01FF082F9002004B0BDE8F081DD
:1035E00044200021039002220094CDE901214FF4F0
:1035F000A073F022084610F019FA1A4E040016D0F3
:10360000014619A01FF06AF9204605F0ADFF2030F1
:103610003060048047600572FEF7FAFA20492046C0
:1036200010F052FF0121204611F04AFC02E01DA0DB
:103630001FF054F93068D0E76553656C65637445D5
:103640006E726F6C6C557365722077696E646F77FC
:1036500020697320616C7265617920657869737483
:10366000210D0A00B01800206553656C6563744530
:103670006E726F6C6C557365722077696E646F77CC
:10368000732069732063726561746564216857698A
:103690006E203D203078253034580D0A000000009F
:1036A000DD9201086553656C656374456E726F6CDD
:1036B0006C557365722077696E646F772063616EF5
:1036C00027742062652063726561746564210D0A48
:1036D000000000002DE9FF41044613250F4628464F
:1036E00008F062FA30B119A01FF0F8F8002004B019
:1036F000BDE8F0812C200021039002220094CDE946
:1037000001214FF4A073F022084610F08FF9194EF2
:10371000040016D0014618A01FF0E0F8204605F07E
:1037200023FF20303060048047600572FEF770FA96
:103730001D49204610F0C8FE0121204611F0C0FBB3
:1037400002E01AA01FF0CAF83068D0E7655365742C
:10375000414C43556E69742077696E646F772069B8
:103760007320616C72656179206578697374210DCD
:103770000A0000006816002065536574414C4355EB
:103780006E69742077696E646F7773206973206344
:10379000726561746564216857696E203D203078D8
:1037A000253034580D0A00006180010865536574A6
:1037B000414C43556E69742077696E646F7720635E
:1037C000616E27742062652063726561746564218F
:1037D0000D0A000010B54FF4017240210EF07DF883
:1037E000012010BD1CB5006800904FF40472082140
:1037F00068460EF072F801201CBD00221EF058BA77
:103800000000000000300008000000004561676C07
:103810006533000000000000000000000000000010
:103820003031303031004141414100002DE9FF414C
:10383000044616250F46284608F0B6F930B119A0FF
:103840001FF04CF8002004B0BDE8F08128200021D2
:10385000039002220094CDE90121C300F022084622
:1038600010F0E4F8184E040016D0014617A01FF01F
:1038700035F8204605F078FE20303060048047603F
:103880000572FEF7C5F91C49204610F01DFE012106
:10389000204611F015FB02E018A01FF01FF8306859
:1038A000D1E7000065536574426C6F772077696ECD
:1038B000646F7720697320616C7265617920657827
:1038C000697374210D0A0000641600206553657445
:1038D000426C6F772077696E646F7773206973200D
:1038E00063726561746564216857696E203D20309C
:1038F00078253034580D0A00ED7E01086553657453
:10390000426C6F772077696E646F772063616E27F2
:10391000742062652063726561746564210D0A001C
:103920002DE9FF41044610250F46284608F03CF9D2
:1039300030B119A01EF0D2FF002004B0BDE8F08124
:1039400014200021039002220094CDE901210301FB
:10395000F022084610F06AF8184E040016D001460E
:1039600017A01EF0BBFF204605F0FEFD20303060A2
:10397000048047600572FEF74BF91C49204610F0A1
:10398000A3FD0121204611F09BFA02E018A01EF0D1
:10399000A5FF3068D1E700006553657454696D6513
:1039A0002077696E646F7720697320616C7265613E
:1039B00079206578697374210D0A0000541600207F
:1039C0006553657454696D652077696E646F7773AC
:1039D0002069732063726561746564216857696E3C
:1039E000203D203078253034580D0A0049770108F1
:1039F0006553657454696D652077696E646F7720CF
:103A000063616E277420626520637265617465640A
:103A1000210D0A002DE9FF41044602250F462846E4
:103A200008F0C2F830B119A01EF058FF002004B011
:103A3000BDE8F08124200021039002220094CDE90A
:103A400001214FF4A073F02208460FF0EFFF194E4A
:103A5000040016D0014618A01EF040FF204605F0D5
:103A600083FD20303060048047600572FEF7D0F897
:103A70001D49204610F028FD0121204611F020FAB2
:103A800002E01AA01EF02AFF3068D0E76553657483
:103A900074696E674D61696E2077696E646F772017
:103AA000697320616C72656179206578697374212E
:103AB0000D0A00006C1300206553657474696E670D
:103AC0004D61696E2077696E646F7773206973202A
:103AD00063726561746564216857696E203D2030AA
:103AE00078253034580D0A00A15F010865536574CC
:103AF00074696E674D61696E2077696E646F7720B7
:103B000063616E2774206265206372656174656409
:103B1000210D0A002DE9FF4104460D250F462846D8
:103B200008F042F830B119A01EF0D8FE002004B011
:103B3000BDE8F08124200021039002220094CDE909
:103B400001214FF4A073F02208460FF06FFF1C4EC6
:103B5000040016D001461BA01EF0C0FE204605F052
:103B600003FD20303060048047600572FEF750F896
:103B70002349204610F0A8FC0121204611F0A0F9AD
:103B800002E020A01EF0AAFE3068D0E765536574FD
:103B900074696E674261636B6C6967687454696DC0
:103BA000656F75742077696E646F77206973206123
:103BB0006C72656179206578697374210D0A000063
:103BC000AC1300206553657474696E674261636B62
:103BD0006C6967687454696D656F75742077696E78
:103BE000646F777320697320637265617465642103
:103BF0006857696E203D203078253034580D0A0012
:103C0000AD6901086553657474696E674261636BE1
:103C10006C6967687454696D656F75742077696E37
:103C2000646F772063616E2774206265206372651C
:103C300061746564210D0A002DE9FF4104460C25DD
:103C40000F46284607F0B0FF30B119A01EF046FE1F
:103C5000002004B0BDE8F08124200021039002225E
:103C60000094CDE901214FF4A073F02208460FF033
:103C7000DDFE1A4E040016D0014619A01EF02EFEDD
:103C8000204605F071FC20303060048047600572EA
:103C9000FDF7BEFF2049204610F016FC012120460A
:103CA00011F00EF902E01DA01EF018FE3068D0E7FA
:103CB0006553657474696E674261636B6C696768AC
:103CC000742077696E646F7720697320616C726508
:103CD0006179206578697374210D0A00B0130020A2
:103CE0006553657474696E674261636B6C6967687C
:103CF000742077696E646F777320697320637265CF
:103D000061746564216857696E203D2030782530E4
:103D100034580D0A00000000216D010865536574D8
:103D200074696E674261636B6C6967687420776958
:103D30006E646F772063616E277420626520637202
:103D40006561746564210D0A000000002DE9FF41E2
:103D500004460E250F46284607F026FF30B119A06D
:103D60001EF0BCFD002004B0BDE8F081242000213D
:103D7000039002220094CDE901214FF4A073F022B8
:103D800008460FF053FE1B4E040016D001461AA041
:103D90001EF0A4FD204605F0E7FB203030600480D3
:103DA00047600572FDF734FF2149204610F08CFB77
:103DB0000121204611F084F802E01EA01EF08EFDC5
:103DC0003068D0E76553657474696E6753797374AE
:103DD000656D496E666F2077696E646F77206973D1
:103DE00020616C72656179206578697374210D0AB0
:103DF00000000000501600206553657474696E67FA
:103E000053797374656D496E666F2077696E646F60
:103E100077732069732063726561746564216857E4
:103E2000696E203D203078253034580D0A0000009E
:103E3000A57601086553657474696E675379737468
:103E4000656D496E666F2077696E646F7720636178
:103E50006E27742062652063726561746564210D4C
:103E60000A0000002DE9FF41002402235422CDE97D
:103E70000003CDE902420F460B264FF4A073F02257
:103E8000214620460FF0D2FD05001DD0014612A0AC
:103E90001EF024FD284605F067FB058400F1200490
:103EA000476226722046FDF7B3FE3022394604F100
:103EB0002400FCF7A9F91449284610F005FB01215C
:103EC000284610F0FDFF02E010A01EF007FD04B030
:103ED0002046BDE8F08100006553686F7744696152
:103EE0006C6F672077696E646F77732069732063E6
:103EF000726561746564216857696E203D20307871
:103F0000253034580D0A0000C16B01086553686FF5
:103F1000774469616C6F672077696E646F7720639F
:103F2000616E277420626520637265617465642127
:103F30000D0A00002DE9FF4104460A250F462846D8
:103F400007F032FE30B119A01EF0C8FC002004B00A
:103F5000BDE8F0811C200021039002220094CDE9ED
:103F600001214FF4A073F02208460FF05FFD194EB7
:103F7000040016D0014618A01EF0B0FC204605F043
:103F8000F3FA20303060048047600572FDF740FE90
:103F90001D49204610F098FA0121204610F090FFAC
:103FA00002E01AA01EF09AFC3068D0E76553686FF3
:103FB000775265706F72742077696E646F772069CD
:103FC0007320616C72656179206578697374210D65
:103FD0000A000000781300206553686F77526570FF
:103FE0006F72742077696E646F77732069732063D2
:103FF000726561746564216857696E203D20307870
:10400000253034580D0A0000B96501086553686F02
:10401000775265706F72742077696E646F77206372
:10402000616E277420626520637265617465642126
:104030000D0A00002DE9FF41044609250F462846D8
:1040400007F0B2FD30B119A01EF048FC002004B00A
:10405000BDE8F08170200021039002220094CDE998
:1040600001214FF4A073F02208460FF0DFFC184E38
:10407000040016D0014617A01EF030FC204605F0C3
:1040800073FA20303060048047600572FDF7C0FD90
:104090001C49204610F018FA0121204610F010FFAC
:1040A00002E019A01EF01AFC3068D0E76554657371
:1040B000744D61696E2077696E646F772069732033
:1040C000616C72656179206578697374210D0A00ED
:1040D0007413002065546573744D61696E207769AF
:1040E0006E646F77732069732063726561746564B1
:1040F000216857696E203D203078253034580D0AEC
:10410000000000008D64010865546573744D616999
:104110006E2077696E646F772063616E277420620A
:10412000652063726561746564210D0A00000000FA
:104130002DE9FF41044629250F46284607F034FDA6
:1041400030B119A01EF0CAFB002004B0BDE8F08118
:1041500024200021039002220094CDE901214FF494
:10416000A073F02208460FF061FC184E040016D030
:10417000014617A01EF0B2FB204605F0F5F92030ED
:104180003060048047600572FDF742FD1C492046FF
:1041900010F09AF90121204610F092FE02E019A0D9
:1041A0001EF09CFB3068D0E76554696D655A6F6EF0
:1041B000652077696E646F7720697320616C726522
:1041C0006179206578697374210D0A0060160020FA
:1041D0006554696D655A6F6E652077696E646F7797
:1041E000732069732063726561746564216857691F
:1041F0006E203D203078253034580D0A0000000034
:10420000817D01086554696D655A6F6E6520776917
:104210006E646F772063616E27742062652063721D
:104220006561746564210D0A000000002DE9FF41FD
:10423000044620250F46284607F0B6FC30B119A0E9
:104240001EF04CFB002004B0BDE8F08134200021BA
:10425000039002220094CDE901214FF4A073F022D3
:1042600008460FF0E3FB1A4E040016D0014619A0D1
:104270001EF034FB204605F077F9203030600480D2
:1042800047600572FDF7C4FC1F49204610F01CF979
:104290000121204610F014FE02E01CA01EF01EFBBF
:1042A0003068D0E765546F75636843616C6962720A
:1042B0006174652077696E646F7720697320616C23
:1042C00072656179206578697374210D0A000000B8
:1042D0005816002065546F75636843616C6962729B
:1042E0006174652077696E646F77732069732063EA
:1042F000726561746564216857696E203D2030786D
:10430000253034580D0A0000357A010865546F7560
:10431000636843616C6962726174652077696E6479
:104320006F772063616E2774206265206372656118
:10433000746564210D0A00002DE9FF410446012542
:104340000F46284607F030FC30B11CA01EF0C6FA1C
:10435000002004B0BDE8F081002010F0D7F828203C
:104360000021039002220094CDE90121C300F02234
:1043700008460FF05BFB0446042010F0C7F8184E07
:10438000B4B1214617A01EF0A9FA204605F0ECF8BA
:1043900020307060048047600572FDF739FC1C49CD
:1043A000204610F091F80121204610F089FD02E02E
:1043B00018A01EF093FA7068CBE70000654D6169A4
:1043C0006E2077696E646F7720697320616C726507
:1043D000616479206578697374210D0A000000001A
:1043E0005C130020654D61696E2077696E646F779C
:1043F000732069732063726561746564216857690D
:104400006E203D203078253034580D0A0000000021
:10441000B55E0108654D61696E2077696E646F77DE
:104420002063616E27742062652063726561746524
:1044300064210D0A000000002DE9FF4104462C25EF
:104440000F46284607F0B0FB30B11BA01EF046FA1D
:10445000002004B0BDE8F081442000210390022236
:104460000094CDE901214FF4A073F02208460FF02B
:10447000DDFA1C4E040016D001461BA01EF02EFAD9
:10448000204605F071F820303060048047600572E6
:10449000FDF7BEFB2149204610F016F80121204609
:1044A00010F00EFD02E01EA01EF018FA27490120B0
:1044B00008723068CDE700006557696E5573657204
:1044C0004D616E6167652077696E646F77206973EF
:1044D00020616C72656179206578697374210D0AB9
:1044E00000000000AC1800206557696E55736572B6
:1044F0004D616E6167652077696E646F77732069BF
:10450000732063726561746564216857696E203D2C
:10451000203078253034580D0A0000003990010809
:104520006557696E557365724D616E616765207779
:10453000696E646F772063616E2774206265206303
:10454000726561746564210D0A00000010B50020D9
:104550002DE9F041DFF8E88005460E46D8F839002D
:10456000FCF76EF90446304608F0AEFC2146FBF736
:104570005AFFFCF7A1F9854201D200203CE0D8F8AF
:104580001970304CAF421BD90026D8F83900FCF71F
:1045900057F980463846FCF753F94146FBF73DFF93
:1045A00001462046FBF771FF04462846FCF748F910
:1045B0004146FBF732FF2146FBF735FF314619E054
:1045C0003846FCF73DF90646D8F82500FCF738F9DF
:1045D0003146FBF722FF01461B48FBF756FF074613
:1045E0002846FCF72DF93146FBF717FF3946FBF754
:1045F0001AFF2146FBF7BFFE00F054F813490446AA
:10460000884215DB1248007808B1022810D14FF01B
:104610007E55104E2046FBF700FF3146FBF703FFA7
:104620002946FBF7A8FE01462046FBF7FCFE0446A0
:104630000948844200DA00242046BDE8F0810000E9
:10464000B1B700200000A0410000704200006442A9
:1046500031110020008061390000C04010B50229EE
:1046600003D80C31521EC9B2D2B24B1C00EB410030
:1046700003EB43030524B3FBF4F36421B2FBF1F134
:104680001844104400EB9200401A4FF4C871B2FB7A
:10469000F1F10844072190FBF1F201FB1200401CEC
:1046A000C0B210BD70B505460F480078012818D17A
:1046B0000E48C07DA0F14E012C2912D8FCF7D6F887
:1046C00000220B4BFCF744F806460C462846FCF744
:1046D0003FF932462346FBF7C9FFBDE87040FCF7BF
:1046E0007BB9284670BD00003E00002041B7002085
:1046F00000005940D0F81910184A1144184A914244
:1047000008D2164AD0F825105242914202D3154AD7
:10471000914221D91449C0F819108A00C0F8252007
:1047200040F65843C0F80730C0F83110C0F83520C3
:104730000E49C0F81D100E49C0F829100D49C0F8E7
:104740000B101121C17408210175012141750C2143
:1047500081750021C175017670470000C0BDF0FF72
:104760004181BA0180C3C90130F629000000A0418F
:104770000000A0420000204210B504460D4A00216E
:10478000FDF79CFF0C4A01212046FDF797FF6FF0D3
:104790007F4200212046FDF7D3FF4FF6FF72012133
:1047A0002046FDF7CDFF2046BDE810400021FDF773
:1047B00097BF00005E6D8300323C500070B5846886
:1047C00088B0064600257CB300201BF0CBF906F02C
:1047D00083F93222214605A805F03EFD0020022182
:1047E000CDE90110CDE90304B6F904000090BDF94C
:1047F0001A00BDF91610F022401AC31CC0F11D00AA
:10480000411000200DF0D6FA054600201BF0AAF951
:10481000014628460DF025FB054928460DF050FBC2
:10482000022128460DF03FFB08B0284670BD00006D
:10483000500047001FB54FF4B87202210323CDE9A1
:104840000003CDE902121A2346224FF4927102208E
:10485000FDF7D8FE044601201BF084F901462046EE
:10486000FDF746FF2046FFF787FF04B0204610BD46
:104870001FB54FF4B97202210323CDE90212CDE92D
:10488000000350221A234FF492711046FDF7BAFE2E
:10489000044603201BF066F901462046FDF728FF79
:1048A0002046FFF769FF04B0204610BD30B587B041
:1048B0001E4806F011F90A221DA105A805F0CCFC3E
:1048C00000200222CDE901201A4D19A1CDE90301F2
:1048D0002868B0F900000090BDF91A00BDF9161063
:1048E000BDF91420401ABDF91810431C8C1AA0F20F
:1048F0003F1040424110C4F1E00004F110024010AA
:104900000DF058FA296848844FF47F010DF0D8FA69
:1049100028680649B0F922000DF0A3FA28680221A0
:10492000B0F922000DF0BFFA07B030BD08F6030859
:104930002D2D0000741300201FB540F271120221CA
:104940000323CDE90003CDE902121A2346224FF4D6
:104950009271A820FDF756FE044602201BF002F9D2
:1049600001462046FDF7C4FE2046FFF705FF04B0D0
:10497000204610BD10B590B004464FF4017240219E
:1049800068460CF081FF50B1402269462046FBF793
:104990003BFC2046FFF7AEFE012010B010BDF0201A
:1049A00004F8010B104840F65842016821608188E4
:1049B000A180C4F806200068C4F81200E1820B4808
:1049C000A06181006162206361630948C4F80A0044
:1049D0000848E0610849A1622062E1620748A063DB
:1049E000002084F83C00D8E7E510002030F62900CC
:1049F000000020420000A0410000A042A08601006B
:104A00001CB504464FF40472082168460CF03CFFC4
:104A100018B10098206001201CBD002020601CBD42
:104A200010B588B0044640F20622202168460CF0FA
:104A30002BFF38B1202269462046FBF7E5FB012019
:104A400008B010BDF020207008A1601CFBF76EFCC0
:104A500007A104F10A00FBF769FC0120C4F8060075
:104A60000020C4F81900A4F81D00E9E7453800004B
:104A70004561676C652D380010B540F20622202193
:104A80000CF02BFF012010BD10B5A2B0044640F27F
:104A90001122832168460CF0F7FE38B18322694663
:104AA0002046FBF7B1FB012022B010BD8321204638
:104AB000FBF7D1FB0020F7E710B540F2112283216C
:104AC0000CF00BFF012010BD1FB504464FF402721D
:104AD000102168460CF0D8FE38B1102269462046F5
:104AE000FBF792FB012004B010BDF02004F8010B8D
:104AF0000A2024F80E0B002004F80C0920606060E6
:104B0000A060F0E710B54FF4027210210CF0E5FE42
:104B1000012010BD10B50CF025FF00F003FE494840
:104B200000F08AFD484800F007FD484800F06CFBA3
:104B30004748FFF7C9FF4748FFF71CFF464800F00A
:104B40004BFD4648FFF76CFF454800F0A1FC454887
:104B500000F0FAFA4448FFF797FF444800F0BCFB26
:104B60004148833000F090FB414800F0C0FD4048D0
:104B7000001F00F0A1FD3E480838FFF741FF3DA0AF
:104B80001DF0ACFE4FF4807148A01DF0A7FE20215F
:104B90004CA01DF0A3FE402151A01DF09FFE10214E
:104BA00056A01DF09BFE40215CA01DF097FE40F238
:104BB000811163A01DF092FE20216CA01DF08EFEDD
:104BC000A42172A01DF08AFE294C77A00C3CE1685C
:104BD0001DF084FE2448833001687AA01DF07EFE1B
:104BE00084A061681DF07AFEA068FBF7B1FE024662
:104BF0000B4688A01DF072FE164C8FA0D4F807104B
:104C000009341DF06BFE216997A01DF067FEE16974
:104C1000A2A01DF063FE0C4CADA0D4F812101DF044
:104C20005DFED4F80E10B5A01DF058FE11A01DF0C9
:104C300055FEBC4861780170042901D90121017039
:104C400010BD000041B7002061B70020A1B70020CF
:104C500055D90020B1B70020F1B7002072B900206B
:104C600092B9002036BA002019B6002019B50020EC
:104C7000241100202A2A2A2A2A2A2A2A2A2A2A2AE7
:104C80002A2A2A2A2A2A2A2A2A2A2A2A2A2A2A2A84
:104C90002A2A2A2A2A2A2A2A2A2A2A2A2A2A2A2A74
:104CA0002A2A2A2A2A2A2A2A2A0D0A0073697A65B8
:104CB0006F6628735265636F726429203D202564F6
:104CC0000D0A000073697A656F6628735465737402
:104CD000506172616D29203D2025640D0A0000009D
:104CE00073697A656F66287353797374656D506163
:104CF00072616D29203D2025640D0A0073697A6573
:104D00006F6628735072696E746572506172616D5E
:104D100029203D2025640D0A0000000073697A6592
:104D20006F662873416C6343616C69627261746978
:104D30006F6E506172616D29203D2025640D0A005F
:104D400073697A656F66287354656D7065726174F6
:104D500075726543616C6962726174696F6E5061EE
:104D600072616D29203D2025640D0A0073697A6502
:104D70006F6628734465766963654944436F6E6660
:104D8000696729203D2025640D0A000073697A6552
:104D90006F662873536572766572506172616D2912
:104DA000203D2025640D0A00675F6E546F74616CAE
:104DB00054657374436F756E746572203D2025646D
:104DC0000D0A0000675F735265636F7264496E6617
:104DD0006F724D61702E6E546F74616C5265636FAB
:104DE000726473436F756E746572203D2025640D87
:104DF0000A000000675F6E416C72656164795570EE
:104E00006C6F6164436F756E746572203D2025641C
:104E10000D0A0000675F66546F74616C496E6861CB
:104E20006C6554696D65436F756E746572203D20C5
:104E3000252E32660D0A0000675F73416C63436183
:104E40006C6962726174696F6E506172616D2E6E11
:104E50005065656B43616C6956616C7565203D20DA
:104E600025640D0A00000000675F73416C634361B5
:104E70006C6962726174696F6E506172616D2E6EE1
:104E8000496E7465726772616C4C6F77506F696EB2
:104E900074203D2025640D0A00000000675F734107
:104EA0006C6343616C6962726174696F6E506172A8
:104EB000616D2E6E496E7465726772616C486967C8
:104EC00068506F696E74203D2025640D0A00000053
:104ED000675F7353797374656D506172616D2E6E87
:104EE0004175746F506F7765724F666654696D6572
:104EF000203D20256C640D0A00000000675F73539D
:104F0000797374656D506172616D2E6E4175746F49
:104F1000536C65657054696D65203D20256C640D8A
:104F20000A0000003E000020F0B55448524940F805
:104F3000011F816001618161514941605149C16036
:104F4000514941615149C161514901628162016325
:104F50008163504941625049C1625049416350499F
:104F6000C163504901648164016581654E494164B2
:104F70004E49C1644E4941654E49C16500210166F3
:104F80008166016781674C4941664C49C1664C495D
:104F900041674C49C1674C4940F8801F81600161FD
:104FA00081614A4940F8041F4949816049490161CA
:104FB00049498161494940F81C1F81600161816153
:104FC000001D474940F8081B464C40F8084B46492D
:104FD00040F8101B454940F8081C454940F8041C9E
:104FE0004160C1604161434D05604349816043496F
:104FF000016143498161434940F81C1F424A816075
:105000000161816140F8042F404A8260404A026198
:10501000404A8261404AC2614262C26242630162A6
:105020003E4A82623E4E06633E4F87633E4BC363F9
:105030004364C364436501648264066587653B49D4
:10504000C1654166C166416705663949816639496E
:10505000016739498167C267C0F88420C0F88C2095
:10506000C0F894203549C0F8801040F8884F344982
:10507000816034490161F0BD000070C1F1B70020CA
:10508000000018410000C44100006A420000E542EF
:10509000000020C1000038410000E4419A997942A3
:1050A0009A99F1420000A0C0CDCC5C4166660042F6
:1050B00066668842CD4C0443CDCC7C41666608428E
:1050C000CDCC8E429A1908430000A040333387416B
:1050D000CDCC0E423333944233B30B430000204116
:1050E000666692419A991542CDCC9542CDCC0E433D
:1050F0000000704100009841333319429A999B4255
:1051000066E613430000A0419A999D4133331D4246
:1051100000009F42008015430000C841000020426B
:105120000000A042000016430000F04100000C42C5
:1051300000001842000098420000144333339741A6
:10514000666697420000124310B5044607481222D3
:10515000214601F005FF607CA52805D012212046DC
:10516000FBF779F8002010BD012010BD00302200AF
:1051700070B5084D0446284601F034FFA520607440
:1051800012222146284601F083FF002800D001208A
:1051900070BD00000030220070B50546A520A0B00B
:1051A00085F87F000024A0B2694600F019F810B11C
:1051B000641C202CF7D3094E14B9304601F012FFBD
:1051C0004FF4805106EBC410B1EBC41F03D9802209
:1051D000294601F05DFF20B0012070BD00202100B4
:1051E00010B50C460749802201EBC010214601F0A2
:1051F000B7FE94F87F00A52801D0002010BD012043
:1052000010BD0000002021001FB5044640F203221B
:10521000102168460CF038FB38B110226946204650
:10522000FAF7F2FF012004B010BDF0202070012039
:105230006070A0700020C4F80300C4F80700C4F830
:105240000B00F0E710B540F2032210210CF045FBF3
:10525000012010BD0A4810B50068817D00290DD0DD
:10526000002181750CF07EFB064800F06FF80548C0
:1052700000F032F8BDE810400CF072BB10BD000029
:105280000811002019B500201FB5044640F20D2278
:10529000102168460CF0F8FA38B110226946204611
:1052A000FAF7B2FF012004B010BD0020206060605A
:1052B000F9E710B540F20D2210210CF00EFB012091
:1052C00010BD4FF4111210B502EB00204FF48072A4
:1052D00001F046FE012010BD70B505460F48FFF7EE
:1052E000D3FF40B90EA01DF0F9FA164801F07AFE7E
:1052F0000A48FFF7DEFF094C206820B12946401E0E
:10530000FFF7DFFF04E04FF480712846FAF7A3FFB0
:1053100020680D49401C0860012070BD9CB600202B
:10532000457261736520675F735265636F7264498C
:105330006E666F724D617020736563746F72210DBC
:105340000A00000000D020001811002070B50446AB
:105350002A482B49A2B0006801EB002501F0FAFDB4
:10536000B5EB003F05D927A01DF0B8FA002022B008
:1053700070BD280505D12FA01DF0B0FA284601F018
:1053800031FE364E3068401C30603046FFF791FFEA
:10539000316833481DF0A2FA4FF480722146284646
:1053A00001F076FE0028E2D02E2204F13801684692
:1053B000FAF72AFF0F2204F194010DF12E00FAF7FB
:1053C00023FF172204F1D1010DF13D00FAF71CFF74
:1053D0002E2204F1A30115A8FAF716FF8222A6F1E6
:1053E00083016846FAF781FF30B16846FFF764FB36
:1053F000A6F18300FFF748FB0120B8E71811002051
:10540000003F240044617461205265636F72642020
:105410004661696C656421417265616479207265D9
:10542000616368206D617820736563746F72210D0C
:105430000A0000004E656564206572617365206333
:10544000757272656E7420736563746F7228736110
:1054500076652073756229210D0A00009CB6002034
:1054600094BB050810B5074801F0BCFD4FF40410CB
:1054700001F0B8FD0448FFF72FFFBDE810400348D6
:10548000FFF7BEBA00D0200019B500201C11002083
:1054900030B5A9B0044640F20722A42168460CF0BA
:1054A000F3F938B1A42269462046FAF7ADFE01208F
:1054B00029B030BDF12020700CA1601CFAF736FF36
:1054C0000EA104F11100FAF731FF41F66470A4F85F
:1054D0003900002584F83B500EA104F13F00FAF793
:1054E00025FFA58784F83E500020E1E73232312EB7
:1054F00031322E37362E3430000000007777772E89
:105500006272616361756469742D6770732E636F75
:105510006D000000434D494F5454534A544A435A76
:10552000442E48450000000010B540F20722A42197
:105530000CF0D3F9012010BD70B590B0044640F2D4
:105540000222402168460CF09FF938B1402269469A
:105550002046FAF759FE012010B070BDF0202070EF
:105560000126667013A1A01CFAF7E0FE26736420E2
:1055700060731348C4F80E001248C4F812000025E6
:10558000A575E67532202076102104F11900FAF78E
:1055900062FE84F829506585082084F82C0084F880
:1055A0002D5084F82E50102104F12F00FAF753FEED
:1055B0000020D1E732363731353336300000000075
:1055C00020BF0200E093040010B540F20222402107
:1055D0000CF083F9012010BD70B50546084C094850
:1055E00001F0E4FCA52803D0FFF79EFC002070BD6D
:1055F00040F281122946204601F0B2FC012070BD24
:1056000000502000FF55200070B5094D0446284683
:1056100001F0E8FC40F281122146284601F038FDF5
:10562000002804D0A521034801F04AFD012070BDE7
:1056300000502000FF55200030B589B0044640F2EC
:105640000122202168460CF01FF90C2558B12022B8
:1056500069462046FAF7D8FD607E0C2800D26576B0
:10566000012009B030BDF02020700020607040F6AD
:105670009801618040F6B8316160094AA260094A28
:10568000E260207464226274C4F812100121A175D2
:10569000E275032121766576A076A083A077E0E706
:1056A0000000A0410000A04210B540F201222021DC
:1056B0000CF013F9012010BD1CB5044640F20E2277
:1056C000082168460CF0E0F818B10098206001202D
:1056D0001CBD002020601CBD1CB50068009040F27D
:1056E0000E22082168460CF0F8F801201CBD1CB5FC
:1056F000044640F20F22082168460CF0C5F818B1A4
:105700000098206001201CBD002020601CBD1CB53D
:105710000068009040F20F22082168460CF0DDF886
:1057200001201CBD1FB50F4C0F4801F03FFCAA28FB
:1057300006D00E49012009680876002004B010BD8B
:1057400010226946204601F00BFC6946002001AAA0
:1057500005F0F8FA012002A903AA05F0F3FA0120E6
:10576000ECE7000000902000FF93200008110020CB
:105770001FB50E4C204601F035FC6946002001AAF9
:1057800005F0CCFA012002A903AA05F0C7FA1022FD
:105790006946204601F07CFC002804D0AA21044878
:1057A00001F08EFC012004B010BD0000009020002C
:1057B000FF932000104A10B55368002B07D01946FC
:1057C000B1F90040844203D009690029F8D110BD25
:1057D0000029FCD00869994206D1002110B150601F
:1057E000C16010BD516010BD08B1CA68C2600869CF
:1057F000C968086110BD00006413002070B50D4C2D
:10580000A078002815D040F2DC510B48FAF723FDB0
:10581000094803F04DF8094D2880012060710649C0
:1058200007A01DF05BF82988BDE8704008A01DF0B6
:1058300055B870BD10B5002036C00020BC11002046
:105840006865617274726174653A25730D0A0000AF
:105850006C656E6774683A25640D0A002DE9F04F97
:105860000B68FF4D8BB00C460746FE4EFEA130780C
:1058700055F82000D0F8E42138461DF03FF83846AE
:10588000FAF71EFD0744E17BA07BCDE900013078EB
:10589000637BF8A155F8200003F5FA63D0F8E821FE
:1058A00038461DF02BF83846FAF70AFD0744A17C6C
:1058B000607CCDE900013078237CF3A155F820000D
:1058C000D0F8EC2138461DF019F83846FAF7F8FC04
:1058D0000744307894F9042055F82000D0F8F011EE
:1058E00038461DF00BF83846FAF7EAFC07440A2060
:1058F00007F8010BE07C40B101280DD0032811D03E
:1059000002281BD0FA281FD023E03078E3A155F8F5
:105910002000D0E97D230DE0307855F82000D0F844
:10592000FC3104E0307855F82000D0F80032D0F88F
:10593000F421DAA138461CF0E1FF0AE0307855F88E
:105940002000D0F8042200E0D6A2DAA138461CF0EC
:10595000D5FF3846FAF7B4FC0744D4F80500FAF747
:10596000F7FFE27C0DF1080A032A4FF0000201D094
:10597000D14B00E0D14BFBF717F820D23E208DF839
:105980000800E07C03284FF0000001D0CA4900E085
:10599000CA49FBF721F8B4F81520217D06F0B2FAC8
:1059A000217D00230AF1010206F0DAFA207D07F0DA
:1059B00029FA0090207D04280CD9C1A20BE0B4F88C
:1059C0001520217DD4F8050006F09CFA217D0023E6
:1059D00002AAE9E7BCA202ABBDA138461CF08EFFCB
:1059E0003846FAF76DFC0744E07C02283ED0D4F834
:1059F0000500B949884206DA3078A8A155F8200098
:105A0000D0E9822316E0B44949420144B1F1807FD4
:105A100005D2307855F82000D0F8103207E0AF49B1
:105A200088420ADB307855F82000D0F81432D0F8DC
:105A300008229AA138461CF061FF3846FAF740FC6C
:105A40000744307804F1380394A155F82000D0F8C9
:105A50001C2238461CF052FF3846FAF731FC074446
:105A6000D4F8190010F0FF4F0BD105E0307855F84D
:105A70002000D0F8A032DAE7D4F81D1011F0FF4F63
:105A80007DD010F1FF4F01D380F000408046FAF73F
:105A9000FAFE8146FAF7CBFE4146FAF7C1FC90497F
:105AA000FAF7C1FC8046FAF7EEFE8346FAF7BFFE2E
:105AB0004146FAF7B5FC8B49FAF7B5FCFAF7E3FE75
:105AC00059464FF0640B5A4699FBF2F399FBFBF2EF
:105AD000CDE900100BFB139383A102A81CF00EFF6D
